:020000040800F2
:10000000183B0020AD0200083D2305081FCD010864
:10001000D3200508CD080008C1960508000000009F
:10002000000000000000000000000000A16B0508B7
:10003000BB74010800000000E12405085D6E05089E
:10004000C7020008C7020008C7020008C70200086C
:10005000C7020008C7020008C7020008C70200085C
:10006000C7020008C7020008C7020008C70200084C
:10007000C7020008C7020008C7020008C70200083C
:10008000C7020008C7020008C7020008C70200082C
:10009000C7020008C7020008C7020008C70200081C
:1000A000C7020008C7020008C7020008C70200080C
:1000B000C7020008FD6F05080D700508C70200089B
:1000C000C7020008C7020008C7020008C7020008EC
:1000D000C7020008C70200084194050829950508D1
:1000E0001B750108C702000800000000C7020008D5
:1000F000C70200082D700508C7020008C7020008E3
:10010000C7020008C70200081D700508C7020008E2
:10011000C7020008C7020008C7020008C70200089B
:10012000C7020008C7020008C7020008C70200088B
:10013000C7020008C7020008C7020008C70200087B
:1001400000000000000000000000000000000000AF
:10015000C7020008C7020008C70200084996050840
:10016000C7020008C7020008C7020008C70200084B
:10017000C7020008C7020008C7020008000000000C
:10018000C7020008C7020008C7020008C70200082B
:10019000C7020008C7020008C7020008C70200081B
:1001A000C7020008C7020008C7020008C70200080B
:1001B000C7020008C7020008C7020008C7020008FB
:1001C000C7020008C7020008C7020008C7020008EB
:1001D000C7020008C7020008C7020008C7020008DB
:1001E000C7020008C7020008C7020008C7020008CB
:1001F000C7020008C7020008C7020008C7020008BB
:10020000C7020008C7020008C7020008C7020008AA
:10021000C7020008ED6F0508C7020008C702000802
:10022000C7020008C7020008C7020008000000005B
:10023000C7020008C702000800000000C70200084B
:10024000C7020008C7020008C7020008C70200086A
:10025000C7020008C7020008C7020008C70200085A
:10026000C7020008C7020008C7020008C70200084A
:10027000C7020008C7020008C7020008000000000B
:10028000C702000800000000C702000800000000CC
:1002900000000000C7020008DFF80CD000F072FA7E
:1002A000004800475DB70508183B00200648804716
:1002B00006480047FEE7FEE7FEE7FEE7FEE7FEE74B
:1002C000FEE7FEE7FEE7FEE7596F05089902000822
:1002D0002DE9F05F0546002092469B46884606467B
:1002E000814640241BE0284641464746224600F00E
:1002F00069F853465A46C01A914110D31146184620
:10030000224600F050F82D1A67EB01084F462246AE
:100310000120002100F047F817EB00094E41201E94
:10032000A4F10104DFDC484631462A464346BDE8D5
:10033000F09F40EA01039B0703D009E008C9121FA0
:1003400008C0042AFAD203E011F8013B00F8013B8F
:10035000521EF9D27047D2B201E000F8012B491EBB
:10036000FBD270470022F6E710B513460A46044652
:100370001946FFF7F0FF204610BD30B50B46014689
:1003800000202022012409E021FA02F59D4205D334
:1003900003FA02F5491B04FA02F52844151EA2F1DE
:1003A0000102F1DC30BD202A04DB203A00FA02F120
:1003B000002070479140C2F1200320FA03F3194353
:1003C00090407047202A04DB203A21FA02F00021F5
:1003D000704721FA02F3D040C2F120029140084355
:1003E000194670472DE9FE4F804681EA0300C00F91
:1003F0000C46009021F0004123F00045B8EB0200CC
:10040000A94105D24046214690461C460B4602466D
:1004100023F00040104347D0270DC7F30A00C3F371
:100420000A510290401A019040286BDAC3F313007E
:1004300040F4801B0098924620B10023D2EB030ABF
:1004400063EB0B0B01985946C0F140025046FFF791
:10045000AAFF06460D4650465946019A00F0A4F9F7
:1004600010EB08006141002487EA115284EAE77327
:100470001A4340D0009A62B3019A012A4FEA075208
:1004800015DC001B61EB02014FF0004202EA07524B
:10049000CDE90042001C41F5801132462B4600F0A8
:1004A000A4F903B0BDE8F08F40462146F9E7001BF0
:1004B00061EB0201001C41F5801300185B4120181C
:1004C000A2F5001747EB030140EAD570B6196D415C
:1004D00011E06D084FEA360645EAC0754FEA07524B
:1004E000001B61EB0201001C41F5801149084FEA35
:1004F00030000019514132462B4603B0BDE8F04FA1
:1005000000F064B90098012240000023D0EB020201
:1005100063EBE073009821464FEAE074B8EB00000B
:1005200061EB0401E9E783F000435BE781F0004100
:1005300058E72DE9FE4F81EA030404F0004421F05E
:10054000004100944FF0000B23F0004350EA0104F7
:100550005ED052EA03045BD0C3F30A54C1F30A55D8
:100560002C44A4F2F3340194A0FB0254C1F3130110
:1005700041F48011C3F3130343F4801301FB0244DD
:1005800000FB034E840A970A44EA815447EA8357E2
:10059000A4FB076802958D0A05FB07854FEA932C9B
:1005A00004FB0C542705029D4FEA065847EA16370C
:1005B000B5EB08056EEB070C870E920E47EA811724
:1005C00042EA8312A7FB0201B6EB0B0164EB0004C5
:1005D0002B0D43EA0C335E1844EB1C50DA465146AF
:1005E000E7FB0201C5F313044FEA0B3343EA14534C
:1005F0004FEA0432019C43EA0603A4F10C0402947E
:10060000009CCDE900B400F0F0F803B0BDE8F08F35
:1006100000200146F9E72DE9F04D81EA030404F0DA
:10062000004B21F0004514464FF0000A23F0004132
:1006300050EA050220D054EA01021DD0C5F30A5742
:100640000246C5F31303C1F31300C1F30A5640F485
:10065000801543F48013A7EB0608101BD64608F25A
:10066000FD3873EB050002D308F1010801E0921890
:100670005B41B8F1000F03DA00200146BDE8F08DC0
:1006800000204FF48011064684460EE0171B73EBE2
:10069000050705D3121B63EB050306434CEA010C67
:1006A00049084FEA300092185B4150EA0107EDD14A
:1006B00052EA030012D082EA040083EA05010843EB
:1006C00005D0101BAB4106D20122002306E0002218
:1006D0004FF0004302E06FF0010253101AEB0600E6
:1006E0004CEB085110EB0A0041EB0B01BDE8F04D5B
:1006F00000F06CB870B521F0004303430CD0C1F397
:100700000A550024D5EB040564EB0403D617AD1A93
:10071000B34102DB0020014670BD201841EB0251BD
:1007200070BDC1F30A52C1F3130140F2FF3341F42B
:1007300080119A4202DA00200146704740F23343AA
:100740009A42A2F2334202DC5242FFF73BBEFFF76D
:100750002ABE000030B5041E71F1000404DB4FF026
:100760000044404264EB0101141E73F1000405DBF8
:100770001C464FF00043524263EB0403994208BF0A
:10078000904230BD064C074D06E0E06840F00103A2
:1007900094E8070098471034AC42F6D3FFF780FD89
:1007A00070C4050890C40508202A06DBCB17203A40
:1007B00041FA02F043EAE07306E041FA02F3D04066
:1007C000C2F12002914008431946704710B5141E2B
:1007D00073F1000408DA401C41F1000192185B41FA
:1007E0001A4301D120F0010010BD2DE9F04D9246D1
:1007F0009B4611B1B1FA81F202E0B0FA80F22032E8
:100800009046FFF7D0FD04460F4640EA0A0041EA51
:100810000B0153465A46084313D0114653EA0100D0
:1008200019D0C8F140025046FFF7CCFD05460E46F0
:10083000504659464246FFF7B6FD084305D0012011
:1008400004E020463946BDE8F08D0020054346EA25
:10085000E0762C4337430A986305E40AA0EB0800CE
:100860000022FD0A44EA47540A3002D5002001461E
:10087000E9E7010510196941DDE9084500196941F9
:10088000BDE8F04DA2E7000010B50446012C0AD1E6
:10089000012281030B4819F077F8012208210A4848
:1008A00019F072F80DE000224FF48041054819F06C
:1008B0006BF800220821044819F066F8002051F076
:1008C00093FC10BD000402580008025800BFFEE768
:1008D0000FB410B52DED108BB4B09DED460B8DED22
:1008E000140B9DED480B8DED120B9DED4A0B8DED1C
:1008F000100B9DED4C0B8DED0E0B9DED4E0B8DED0C
:100900000C0B9DED500B8DED0A0B9DED140BB7EE0E
:10091000C00B5AF061FAB0EE408A9DED100BB7EEB5
:10092000C00B5AF059FA28EE008A9DED140BB7EE71
:10093000C00B5AF099FAF0EE408A9DED120BB7EE1B
:10094000C00B5AF091FA68EE808A9DED100BB7EE5D
:10095000C00B5AF089FA08EEC08AB7EEC81A9DEDAE
:100960000C0BB0EE002B20EE020BFE4890ED002B9E
:10097000B0EE003B03EE020BFB4890ED002BB0EE17
:10098000003B22EE032BB0EE409B02EE419B9DED1F
:10099000140BB7EEC00B5AF01FFAB0EE408A9DED73
:1009A000100BB7EEC00B5AF05FFA28EE008A9DEDEF
:1009B000100BB7EEC00B5AF00FFAF0EE408A9DED27
:1009C000140BB7EEC00B5AF04FFA68EE808A9DED1B
:1009D000120BB7EEC00B5AF047FA08EE808AB7EE5A
:1009E000C88A9DED120BB7EEC00B5AF0F5F9B7EEC1
:1009F000C00ADD4890ED001BB0EE002B21EE021B7B
:100A000020EE01AB9DED100BB7EEC00B5AF02CFAA7
:100A1000B7EEC00A2AEE001B9DED0E0BB0EE002BC8
:100A200002EE001B28EE01AB9DED120BB7EEC00BE2
:100A30005AF0D2F9B0EE408A9DED100BB7EEC00B24
:100A40005AF0CAF928EE000AB7EEC00A8AEE001B77
:100A500039EE410B8DED080BB0EE001B9DED080B40
:100A600059F026F8B0EE40AB9DED100BB7EEC00B81
:100A70005AF0B2F9B0EE408A9DED140BB7EEC00B00
:100A80005AF0F2F928EE008A9DED120BB7EEC00B7A
:100A90005AF0EAF9F0EE408A9DED140BB7EEC00B68
:100AA0005AF09AF968EE808A9DED100BB7EEC00BF4
:100AB0005AF0DAF908EE808AB7EEC80AAA4890ED33
:100AC000001BB0EE002B21EE021B20EE019B9DEDE2
:100AD0000A0BB0EE001B01EE409B9DED140BB7EE30
:100AE000C00B5AF0C1F9B0EE408A9DED100BB7EE85
:100AF000C00B5AF0B9F968EE008A9DED120BB7EE03
:100B0000C00B5AF0B1F9B0EE408A9DED140BB7EE70
:100B1000C00B5AF061F928EE008A9DED100BB7EE7C
:100B2000C00B5AF059F948EE408AB7EEE88A9DEDBD
:100B3000120BB7EEC00B5AF04FF9B7EEC00A8A4855
:100B400090ED001BB0EE002B21EE021B20EE01BB4E
:100B50009DED100BB7EEC00B5AF086F9B7EEC00A48
:100B60002BEE001B9DED0E0BB0EE002B02EE001BDA
:100B700028EE01BB9DED120BB7EEC00B5AF02CF91D
:100B8000B0EE408A9DED100BB7EEC00B5AF024F981
:100B900028EE000AB7EEC00A8BEE001B39EE010BFF
:100BA0009FED721B30EE010B8DED080BB0EE001BBC
:100BB0009DED080B58F07CFF8AEE009BB0EE080B11
:100BC00059F0F2FB684890ED001B20EE01AB9DED63
:100BD000140BB7EEC00B5AF047F9B0EE408A9DED0A
:100BE000100BB7EEC00B5AF03FF928EE008A9DEDCE
:100BF000140BB7EEC00B5AF0EFF8F0EE408A9DED03
:100C0000100BB7EEC00B5AF0E7F868EE808A9DED46
:100C1000120BB7EEC00B5AF027F908EEC08AB7EEF8
:100C2000C80A2AEE00AB9DED140BB7EEC00B5AF0CC
:100C3000D3F8B0EE408A9DED100BB7EEC00B5AF022
:100C4000CBF868EE008A9DED140BB7EEC00B5AF09E
:100C50000BF9B0EE408A9DED120BB7EEC00B5AF0C7
:100C600003F928EE008A9DED100BB7EEC00B5AF089
:100C7000FBF848EE408AB7EEE81A9DED0C0BB0EE9B
:100C8000002B20EE020B374890ED002BB0EE003B1E
:100C900003EE020B344890ED002BB0EE003B22EE49
:100CA000032BB0EE40BB02EE41BB9DED140BB7EE43
:100CB000C00B5AF091F8B0EE408A9DED100BB7EEE4
:100CC000C00B5AF0D1F868EE008A9DED100BB7EE1C
:100CD000C00B5AF081F8B0EE408A9DED140BB7EED0
:100CE000C00B5AF0C1F828EE008A9DED120BB7EE4A
:100CF000C00B5AF0B9F848EE008AB7EEE88A9DEDCD
:100D0000120BB7EEC00B5AF067F8B7EEC00A1648E0
:100D100090ED001BB0EE002B21EE021B20EE01CB6C
:100D20009DED100BB7EEC00B5AF09EF8B7EEC00A5F
:100D30002CEE001B9DED0E0BB0EE002B02EE001B07
:100D400028EE01CB9DED120BB7EEC00B5AF044F824
:100D5000B0EE408A9DED100BB7EEC00B5AF03CF898
:100D600008E0000070BB050868BB05080000000033
:100D70000000444028EE000AB7EEC00A8CEE001BCB
:100D80003BEE410B2AEE00AB9DED100BB7EEC00B16
:100D90005AF022F8B0EE408A9DED140BB7EEC00B6E
:100DA0005AF062F828EE008A9DED140BB7EEC00BE6
:100DB0005AF012F8F0EE408A9DED120BB7EEC00B20
:100DC0005AF052F868EE808A9DED100BB7EEC00B1A
:100DD0005AF04AF808EE808AB7EEC80AFE4890ED4D
:100DE000001BB0EE002B21EE021B20EE01BB9DED9F
:100DF0000A0BB0EE001B01EE40BB9DED140BB7EEED
:100E0000C00B5AF031F8B0EE408A9DED100BB7EEF2
:100E1000C00B5AF029F828EE008A9DED140BB7EEAE
:100E2000C00B59F0D9FFF0EE408A9DED100BB7EEE4
:100E3000C00B59F0D1FF68EE808A9DED120BB7EE22
:100E4000C00B5AF011F808EEC08AB7EEC88A9DEDC3
:100E5000120BB7EEC00B59F0BFFFB7EEC00ADE4869
:100E600090ED001BB0EE002B21EE021B20EE01CB1B
:100E70009DED100BB7EEC00B59F0F6FFB7EEC00AB0
:100E80002CEE000B9DED0E1BB0EE002B02EE010BC5
:100E900028EE00CB9DED120BB7EEC00B59F09CFF76
:100EA000B0EE408A9DED100BB7EEC00B59F094FFE9
:100EB00028EE000AB7EEC00A8CEE001B3BEE010BD9
:100EC0001FED561B30EE010B8AEE00BBB0EE080B97
:100ED00059F06AFAC04890ED001B20EE01AB9DED81
:100EE000140BB7EEC00B59F077FFB0EE408A9DEDC2
:100EF000100BB7EEC00B59F0B7FF28EE008A9DED3E
:100F0000100BB7EEC00B59F067FFF0EE408A9DED75
:100F1000140BB7EEC00B59F0A7FF68EE808A9DED69
:100F2000120BB7EEC00B59F09FFF08EE808AB7EEA8
:100F3000C81AB0EE4B0B0AEE010B8DED080BB0EEAC
:100F4000001B9DED080B58F0B3FDB0EE408BB0EEEA
:100F5000001BA14890ED000B58F0AAFDB0EE081B55
:100F600020EE01AB9DED120BB7EEC00B59F034FF34
:100F7000B7EEC00A8DED080BB0EE001B9DED080B1F
:100F800058F096FD2AEE00AB9DED100BB7EEC00BAE
:100F900059F022FFB7EEC00A8DED080BB0EE001B32
:100FA0009DED080B58F084FD2AEE000B88EE001B27
:100FB00039EE010BB7EE001B30EE010B8DED1C0B73
:100FC0009DED140BB7EEC00B59F006FFB0EE408A52
:100FD0009DED100BB7EEC00B59F0FEFE28EE008A17
:100FE0009DED140BB7EEC00B59F03EFFF0EE408ABA
:100FF0009DED120BB7EEC00B59F036FF68EE808AFC
:101000009DED100BB7EEC00B59F02EFF08EEC08A15
:10101000B7EEC81A9DED0C0BB0EE002B20EE020BC4
:101020006E4890ED002BB0EE003B03EE020B6A48D9
:1010300090ED002BB0EE003B22EE032BB0EE409B78
:1010400002EE419B9DED140BB7EEC00B59F0C4FEB0
:10105000B0EE408A9DED100BB7EEC00B59F004FFC7
:1010600028EE008A9DED100BB7EEC00B59F0B4FED0
:10107000F0EE408A9DED140BB7EEC00B59F0F4FE74
:1010800068EE808A9DED120BB7EEC00B59F0ECFEB6
:1010900008EE808AB7EEC88A9DED120BB7EEC00B42
:1010A00059F09AFEB7EEC00A4B4890ED001BB0EE27
:1010B000002B21EE021B20EE01AB9DED100BB7EED5
:1010C000C00B59F0D1FEB7EEC00A2AEE001B9DED11
:1010D0000E0BB0EE002B02EE001B28EE01AB9DEDD7
:1010E000120BB7EEC00B59F077FEB0EE408A9DEDC3
:1010F000100BB7EEC00B59F06FFE28EE000AB7EEEA
:10110000C00A8AEE001B39EE410B1FEDE81B20EEF2
:10111000019B9DED100BB7EEC00B59F05DFEB0EEDC
:10112000408A9DED140BB7EEC00B59F09DFE28EEE2
:10113000008A9DED140BB7EEC00B59F04DFEF0EE9A
:10114000408A9DED120BB7EEC00B59F08DFE68EE94
:10115000808A9DED100BB7EEC00B59F085FE08EEAE
:10116000808AB7EEC80A1C4890ED001BB0EE002B39
:1011700021EE021B20EE01AB9DED0A0BB0EE001B31
:1011800001EE40AB9DED140BB7EEC00B59F06CFEB9
:10119000B0EE408A9DED100BB7EEC00B59F064FE27
:1011A00028EE008A9DED140BB7EEC00B59F014FE2B
:1011B000F0EE408A9DED100BB7EEC00B59F00CFE1F
:1011C00068EE808A9DED120BB7EEC00B59F04CFE15
:1011D00008EEC08A04E0000068BB050870BB050883
:1011E000B7EEC88A9DED120BB7EEC00B59F0F4FDB7
:1011F000B7EEC00AFE4890ED001BB0EE002B21EECA
:10120000021B20EE01BB9DED100BB7EEC00B59F099
:101210002BFEB7EEC00A2BEE001B9DED0E0BB0EEC1
:10122000002B02EE001B28EE01BB9DED120BB7EE6A
:10123000C00B59F0D1FDB0EE408A9DED100BB7EE1A
:10124000C00B59F0C9FD28EE000AB7EEC00A8BEEBC
:10125000001B3AEE010B9FEDE71B30EE010B89EE10
:10126000008BE64890ED000BB0EE001B11EE008BFA
:101270009DED140BB7EEC00B59F0AEFDB0EE409AE9
:101280009DED100BB7EEC00B59F0A6FD29EE009AAC
:101290009DED140BB7EEC00B59F0E6FDF0EE409A51
:1012A0009DED120BB7EEC00B59F0DEFD69EE809A92
:1012B0009DED100BB7EEC00B59F0D6FD09EEC09AAC
:1012C000B7EEC91A9DED0C0BB0EE002B20EE020B11
:1012D000CA4890ED002BB0EE003B03EE020BC44871
:1012E00090ED002BB0EE003B22EE032BB0EE40ABB6
:1012F00002EE41AB9DED140BB7EEC00B59F06CFD47
:10130000B0EE409A9DED100BB7EEC00B59F0ACFD5E
:1013100029EE009A9DED100BB7EEC00B59F05CFD65
:10132000F0EE409A9DED140BB7EEC00B59F09CFD0A
:1013300069EE809A9DED120BB7EEC00B59F094FD4B
:1013400009EE809AB7EEC99A9DED120BB7EEC00B6D
:1013500059F042FDB7EEC00AA54890ED001BB0EE73
:10136000002B21EE021B20EE01BB9DED100BB7EE12
:10137000C00B59F079FDB7EEC00A2BEE001B9DEDB6
:101380000E0BB0EE002B02EE001B29EE01BB9DED13
:10139000120BB7EEC00B59F01FFDB0EE409A9DED59
:1013A000100BB7EEC00B59F017FD29EE000AB7EE8F
:1013B000C00A8BEE001B3AEE410BB0EE001B20EE94
:1013C000019B9DED140BB7EEC00B59F005FDB0EE7F
:1013D00040AA9DED100BB7EEC00B59F0FDFC2AEEB4
:1013E00000AA9DED140BB7EEC00B59F03DFDF0EED9
:1013F00040AA9DED120BB7EEC00B59F035FD6AEE19
:1014000080AA9DED100BB7EEC00B59F02DFD0AEE32
:10141000C0AAB7EECA1A9DED0C0B754890ED002BD3
:1014200002EE410B8DED080BB0EE001B9DED080B9D
:1014300058F03EFBB0EE40BB9DED100BB7EEC00B7D
:1014400059F0CAFCB0EE40AA9DED140BB7EEC00BEC
:1014500059F00AFD2AEE00AA9DED140BB7EEC00B61
:1014600059F0BAFCF0EE40AA9DED120BB7EEC00B9E
:1014700059F0FAFC6AEE80AA9DED100BB7EEC00B96
:1014800059F0F2FC0AEE80AAB7EECA1A9DED0A0BDB
:10149000574890ED002B02EE410B8DED080BB0EE9E
:1014A000001B9DED080B58F003FB3BEE00AB9DEDE0
:1014B000120BB7EEC00B59F08FFCB7EEC00A4C48C8
:1014C00090ED001B20EE01BB9DED100BB7EEC00BA5
:1014D00059F0CAFCB7EEC01A9DED0E0B0BEE010BD6
:1014E0008DED080BB0EE001B9DED080B58F0E0FAF7
:1014F0003AEE00ABB0EE001B404890ED000B58F008
:10150000D7FA3AEE40AB3E4890ED000B8DED080B5C
:10151000B0EE001B9DED080B58F0CAFA3AEE40BB46
:10152000B0EE001B374890ED000B58F0C1FAB0EE5A
:10153000001B01EE00BBB0EE080B58F035FFB0EE1B
:1015400040CBB0EE080B58F02FFFB3EE041B20EE9B
:10155000010B274890ED001B20EE01DB9DED140BE5
:10156000B7EEC00B59F080FCB0EE40AA9DED100B19
:10157000B7EEC00B59F078FC2AEE00AA9DED140BD3
:10158000B7EEC00B59F028FCF0EE40AA9DED100B11
:10159000B7EEC00B59F020FC6AEE80AA9DED120B4D
:1015A000B7EEC00B59F060FC0AEEC0AAB7EECA0A4B
:1015B0002DEE00DBB0EE080B58F0F6FE0C4890ED77
:1015C000001B20EE010B0D4890ED001B20EE01EBFF
:1015D0009DED140BB7EEC00B59F0FEFBB0EE40AA28
:1015E0009DED100BB7EEC00B59F03EFC0CE0000077
:1015F00068BB0508000000000000444070BB0508FF
:101600005808002078BB05082AEE00AA9DED100BB3
:10161000B7EEC00B59F0E0FBF0EE40AA9DED140BC5
:10162000B7EEC00B59F020FC6AEE80AA9DED120BBC
:10163000B7EEC00B59F018FC0AEE80AAB7EECA0A42
:101640000EEE40DB2CEE0DAB9DED120BB7EEC00B9A
:1016500059F0C2FBB7EEC00AFE4890ED001BB0EE99
:10166000002B21EE021B20EE01CB9DED100BB7EEFF
:10167000C00B59F0F9FBB7EEC00A2CEE001B9DED34
:101680000E0BB0EE002B02EE001B2AEE01AB9DED1F
:10169000120BB7EEC00B59F09FFBB7EEC00AED4836
:1016A00090ED001BB0EE082B21EE021B20EE01CBCB
:1016B0009DED100BB7EEC00B59F08EFBB7EEC00AD4
:1016C0002CEE000B8AEE001B3BEE410B9FEDE21B64
:1016D00030EE410B29EE00AB9DED100BB7EEC00BC9
:1016E00059F07AFBB0EE409A9DED140BB7EEC00BAB
:1016F00059F0BAFB29EE009A9DED120BB7EEC00B24
:1017000059F0B2FBF0EE409A9DED140BB7EEC00B12
:1017100059F062FB69EE809A9DED100BB7EEC00B9D
:1017200059F0A2FB09EE809AB7EEC90AC94890EDBC
:10173000001BB0EE002B21EE021B20EE01BB9DED45
:101740000A0BB0EE001B01EE40BB9DED140BB7EE93
:10175000C00B59F089FBB0EE409A9DED100BB7EE2F
:10176000C00B59F081FB29EE009A9DED120BB7EEEC
:10177000C00B59F079FBF0EE409A9DED140BB7EEDB
:10178000C00B59F029FB69EE809A9DED100BB7EE66
:10179000C00B59F021FB09EEC09AB7EEC99A9DED36
:1017A000120BB7EEC00B59F017FBB7EEC00AA948F1
:1017B00090ED001BB0EE002B21EE021B20EE01CBC2
:1017C0009DED100BB7EEC00B59F04EFBB7EEC00A03
:1017D0002CEE001B9DED0E0BB0EE002B02EE001B5D
:1017E00029EE01CB9DED120BB7EEC00B59F0F4FAC8
:1017F000B0EE409A9DED100BB7EEC00B59F0ECFA2D
:1018000029EE000AB7EEC00A8CEE001B3BEE010B7E
:101810001FED881B30EE010B8DED080BB0EE001BA9
:101820009DED080B58F044F98AEE001B38EE410B91
:101830008DED1E0BB0EE080B58F0B6FD854890ED0F
:10184000001B20EE019B9DED140BB7EEC00B59F071
:101850000BFBB0EE408A9DED100BB7EEC00B59F0BC
:1018600003FB28EE008A9DED140BB7EEC00B59F078
:10187000B3FAF0EE408A9DED100BB7EEC00B59F0B5
:10188000ABFA68EE808A9DED120BB7EEC00B59F0F3
:10189000EBFA08EEC08AB7EEC80A29EE009B9DED70
:1018A000140BB7EEC00B59F097FAB0EE408A9DEDDD
:1018B000100BB7EEC00B59F08FFA28EE008A9DEDA1
:1018C000140BB7EEC00B59F0CFFAF0EE408A9DED45
:1018D000120BB7EEC00B59F0C7FA68EE808A9DED87
:1018E000100BB7EEC00B59F0BFFA08EEC08AB7EE86
:1018F000C81A9DED0C0BB0EE002B20EE020B5848E1
:1019000090ED002BB0EE003B03EE020B514890ED42
:10191000002BB0EE003B22EE032BB0EE40AB02EE0C
:1019200041AB9DED140BB7EEC00B59F055FAB0EE7C
:10193000408A9DED100BB7EEC00B59F095FA28EEDA
:10194000008A9DED100BB7EEC00B59F045FAF0EE92
:10195000408A9DED140BB7EEC00B59F085FA68EE86
:10196000808A9DED120BB7EEC00B59F07DFA08EEA0
:10197000808AB7EEC88A9DED120BB7EEC00B59F006
:101980002BFAB7EEC00A334890ED001BB0EE002BE7
:1019900021EE021B20EE01BB9DED100BB7EEC00B3C
:1019A00059F062FAB7EEC00A2BEE001B9DED0E0B4C
:1019B000B0EE002B02EE001B28EE01BB9DED120BDA
:1019C000B7EEC00B59F008FAB0EE408A9DED100B4F
:1019D000B7EEC00B59F000FA28EE000AB7EEC00AC5
:1019E0008BEE001B3AEE410B29EE009B9DED100B98
:1019F000B7EEC00B59F0F0F9B0EE408A9DED140B34
:101A0000B7EEC00B59F030FA28EE008A9DED140BAA
:101A1000B7EEC00B59F0E0F9F0EE408A9DED120BE5
:101A2000B7EEC00B59F020FA68EE808A9DED100BDE
:101A3000B7EEC00B59F018FA08EE808AB7EEC80A64
:101A4000044890ED002BB0EE001B22EE011B20EEAF
:101A500001AB07E068BB050800000000000079400A
:101A600070BB05089DED0A0BB0EE001B01EE40AB0C
:101A70009DED140BB7EEC00B59F0F6F9B0EE408AAD
:101A80009DED100BB7EEC00B59F0EEF968EE008A31
:101A90009DED140BB7EEC00B59F09EF9B0EE408AE5
:101AA0009DED100BB7EEC00B59F096F928EE008AA9
:101AB0009DED120BB7EEC00B59F0D6F948EE408AF7
:101AC000B7EEE88A9DED120BB7EEC00B59F084F922
:101AD000B7EEC00AFE4890ED001BB0EE002B21EEE1
:101AE000021B20EE01BB9DED100BB7EEC00B59F0B1
:101AF000BBF9B7EEC00A2BEE000B9DED0E1BB0EE4E
:101B0000002B02EE010B28EE00BB9DED120BB7EE91
:101B1000C00B59F061F9B0EE408A9DED100BB7EEA5
:101B2000C00B59F059F928EE000AB7EEC00A8BEE47
:101B3000001B3AEE010B9FEDE71B30EE010B89EE27
:101B400000ABB0EE080B58F02FFCE14890ED001B05
:101B500020EE019B9DED140BB7EEC00B59F03CF944
:101B6000B0EE408A9DED100BB7EEC00B59F07CF93A
:101B700028EE008A9DED100BB7EEC00B59F02CF942
:101B8000F0EE408A9DED140BB7EEC00B59F06CF9E6
:101B900068EE808A9DED120BB7EEC00B59F064F928
:101BA00008EE808AB7EEC80A09EE00ABB0EE000B73
:101BB0002AEE009BB0EE080B58F0F6FBB3EE041BC8
:101BC00020EE010BC24890ED001B20EE01AB9DED15
:101BD000140BB7EEC00B59F047F9B0EE408A9DEDFB
:101BE000100BB7EEC00B59F03FF928EE008A9DEDBF
:101BF000140BB7EEC00B59F0EFF8F0EE408A9DEDF4
:101C0000100BB7EEC00B59F0E7F868EE808A9DED37
:101C1000120BB7EEC00B59F027F908EEC08AB7EEE9
:101C2000C80A2AEE00ABB0EE080B58F0BDFBA8487E
:101C300090ED001B20EE010BA84890ED001B20EE5C
:101C400001BB9DED140BB7EEC00B59F0C5F8B0EE1B
:101C5000408A9DED100BB7EEC00B59F005F928EE48
:101C6000008A9DED100BB7EEC00B59F0B5F8F0EE01
:101C7000408A9DED140BB7EEC00B59F0F5F868EEF5
:101C8000808A9DED120BB7EEC00B59F0EDF808EE0F
:101C9000808AB7EEC80AB0EE4A8B0BEE408BB0EEEE
:101CA000080B58F081FB8A4890ED001B20EE01BB29
:101CB0009DED140BB7EEC00B59F0D6F8B0EE40AA6C
:101CC0009DED100BB7EEC00B59F0CEF82AEE00AA2E
:101CD0009DED140BB7EEC00B59F07EF8F0EE40AA64
:101CE0009DED100BB7EEC00B59F076F86AEE80AAA6
:101CF0009DED120BB7EEC00B59F0B6F80AEEC0AA74
:101D0000B7EECA0A2BEE00AB9DED140BB7EEC00B7D
:101D100059F062F8B0EE40BA9DED100BB7EEC00B73
:101D200059F05AF82BEE00BA9DED140BB7EEC00B2C
:101D300059F09AF8F0EE40BA9DED120BB7EEC00BD9
:101D400059F092F86BEE80BA9DED100BB7EEC00B18
:101D500059F08AF80BEEC0BAB7EECB1A9DED0C0B1A
:101D60005B4890ED002B02EE410B8DED080BB0EEC1
:101D7000001B9DED080B57F09BFEB0EE40CB9DED98
:101D8000100BB7EEC00B59F027F8B0EE40BA9DED3E
:101D9000140BB7EEC00B59F067F82BEE00BA9DEDAF
:101DA000140BB7EEC00B59F017F8F0EE40BA9DEDEA
:101DB000120BB7EEC00B59F057F86BEE80BA9DEDE1
:101DC000100BB7EEC00B59F04FF80BEE80BAB7EE20
:101DD000CB1A9DED0A0B3E4890ED002B02EE410B15
:101DE0008DED080BB0EE001B9DED080B57F060FE6B
:101DF0003CEE00BB9DED120BB7EEC00B58F0ECFFB4
:101E0000B7EEC01A324890ED000B21EE00CB9DEDED
:101E1000100BB7EEC00B59F027F8B7EEC01A9DEDC6
:101E20000E0B0CEE010B8DED080BB0EE001B9DEDC3
:101E3000080B57F03DFE3BEE00BBB0EE001B274801
:101E400090ED000B57F034FE3BEE40BB244890ED84
:101E5000000B8DED080BB0EE001B9DED080B57F04D
:101E600027FE3BEE40CBB0EE001B1E4890ED000B72
:101E700057F01EFEB0EE001B01EE00CBB0EE080BDB
:101E800058F092FAB0EE40DBB0EE080B58F08CFA46
:101E9000B3EE041B20EE010B0D4890ED001B20EE6D
:101EA00001EB9DED140BB7EEC00B58F0DDFFB0EE6B
:101EB00040BA9DED100BB7EEC00B58F0D5FF2BEEDE
:101EC00000BA9DED140BB7EEC00B58F085FF0BE088
:101ED00068BB0508000000000000444070BB050816
:101EE0005808002078BB0508F0EE40BA9DED100BB5
:101EF000B7EEC00B58F070FF6BEE80BA9DED120B81
:101F0000B7EEC00B58F0B0FF0BEEC0BAB7EECB0A7D
:101F10002EEE00EBB0EE080B58F046FAFE4890EDBE
:101F2000001B20EE010BFD4890ED001B20EE01FB95
:101F30009DED140BB7EEC00B58F04EFFB0EE40BA5B
:101F40009DED100BB7EEC00B58F08EFF2BEE00BAD4
:101F50009DED100BB7EEC00B58F03EFFF0EE40BA0F
:101F60009DED140BB7EEC00B58F07EFF6BEE80BA00
:101F70009DED120BB7EEC00B58F076FF0BEE80BA5A
:101F8000B7EECB0A0FEE40EB2DEE0EBB9DED120B24
:101F9000B7EEC00B58F020FFB7EEC00ADE4890ED58
:101FA000001BB0EE002B21EE021B20EE01DB9DEDAD
:101FB000100BB7EEC00B58F057FFB7EEC00A2DEE6E
:101FC000001B9DED0E0BB0EE002B02EE001B2BEE66
:101FD00001BB9DED120BB7EEC00B58F0FDFEB7EE46
:101FE000C00ACD4890ED001BB0EE082B21EE021B7D
:101FF00020EE01DB9DED100BB7EEC00B58F0ECFEB0
:10200000B7EEC00A2DEE000B8BEE001B3CEE410B31
:102010009FEDC31B30EE410B2AEE00BB9DED100B74
:10202000B7EEC00B58F0D8FEB0EE40AA9DED140BF1
:10203000B7EEC00B58F018FF2AEE00AA9DED140B66
:10204000B7EEC00B58F0C8FEF0EE40AA9DED120BA3
:10205000B7EEC00B58F008FF6AEE80AA9DED100B9A
:10206000B7EEC00B58F000FF0AEE80AAB7EECA1A0E
:10207000A94890ED002BB0EE000B22EE000B21EEF4
:1020800000CB9DED0A0BB0EE001B01EE40CB9DEDA9
:10209000140BB7EEC00B58F0E7FEB0EE40AA9DED72
:1020A000100BB7EEC00B58F0DFFE2AEE00AA9DED34
:1020B000140BB7EEC00B58F08FFEF0EE40AA9DED6A
:1020C000100BB7EEC00B58F087FE6AEE80AA9DEDAC
:1020D000120BB7EEC00B58F0C7FE0AEEC0AAB7EE5F
:1020E000CAAA9DED120BB7EEC00B58F075FEB7EE05
:1020F000C00A894890ED001BB0EE002B21EE021BB8
:1021000020EE01DB9DED100BB7EEC00B58F0ACFEDE
:10211000B7EEC00A2DEE001B9DED0E0BB0EE002BAE
:1021200002EE001B2AEE01DB9DED120BB7EEC00B99
:1021300058F052FEB0EE40AA9DED100BB7EEC00B6A
:1021400058F04AFE2AEE000AB7EEC01A8DEE010BD7
:102150003CEE000B1FEDA11B30EE010B8BEE001BC4
:1021600038EE010B29EE008BB0EE001B6A4890EDB3
:10217000000B57F09DFCB0EE081B20EE019B9DED7F
:10218000120BB7EEC00B58F027FEB7EEC00A8DED6C
:10219000080BB0EE001B9DED080B57F089FC29EEF3
:1021A000009B9DED100BB7EEC00B58F015FEB7EE7F
:1021B000C00A8DED080BB0EE001B9DED080B57F02B
:1021C00077FC29EE000B88EE001B9DED1E0B30EE18
:1021D000410B8DED1A0B9DED140BB7EEC00B58F0B3
:1021E000FBFDB0EE408A9DED100BB7EEC00B58F032
:1021F000F3FD28EE008A9DED140BB7EEC00B58F0EE
:1022000033FEF0EE408A9DED120BB7EEC00B58F096
:102210002BFE68EE808A9DED100BB7EEC00B58F0D8
:1022200023FE08EEC08AB7EEC81A9DED0C0B3A48A3
:1022300090ED002B02EE410B8DED080BB0EE001B74
:102240009DED080B57F034FCB0EE409B9DED100B5C
:10225000B7EEC00B58F0C0FDB0EE408A9DED140BF8
:10226000B7EEC00B58F000FE68EE008A9DED140B2F
:10227000B7EEC00B58F0B0FDB0EE408A9DED120BEA
:10228000B7EEC00B58F0F0FD28EE008A9DED100B64
:10229000B7EEC00B58F0E8FD48EE008AB7EEE81A3A
:1022A0009DED0A0B1C4890ED002B02EE410B8DEDCD
:1022B000080BB0EE001B9DED080B57F0F9FB39EE53
:1022C000008B9DED120BB7EEC00B58F085FDB7EEFD
:1022D000C00A114890ED001B20EE019B9DED100BF4
:1022E000B7EEC00B58F0C0FDB7EEC01A9DED0E0B57
:1022F00009EE010B8DED080BB0EE001B9DED080BF8
:1023000057F0D6FB38EE008BB0EE001B034890ED83
:10231000000B57F0CDFB07E068BB050870BB050854
:10232000000000000000794038EE408BFE4890ED40
:10233000000B8DED080BB0EE001B9DED080B57F068
:10234000B7FB38EE409BB0EE001BF84890ED000B59
:1023500057F0AEFBB0EE001B01EE009BB0EE080B99
:1023600058F022F8B0EE40ABB0EE080B58F01CF875
:10237000B3EE041B20EE010BED4890ED001B20EEA8
:1023800001BB9DED140BB7EEC00B58F06DFDB0EE28
:10239000408A9DED100BB7EEC00B58F065FD68EE5E
:1023A000008A9DED140BB7EEC00B58F015FDB0EE92
:1023B000408A9DED100BB7EEC00B58F00DFD28EED6
:1023C000008A9DED120BB7EEC00B58F04DFD48EEA4
:1023D000408AB7EEE80A2BEE00BBB0EE080B57F0D0
:1023E000E3FFD34890ED001B20EE010BD14890EDA8
:1023F000001B20EE01CB9DED140BB7EEC00B58F087
:10240000EBFCB0EE408A9DED100BB7EEC00B58F020
:102410002BFD68EE008A9DED100BB7EEC00B58F057
:10242000DBFCB0EE408A9DED140BB7EEC00B58F00C
:102430001BFD28EE008A9DED120BB7EEC00B58F085
:1024400013FD48EE008AB7EEE80A0CEE40BB2AEE18
:102450000B8B9DED120BB7EEC00B58F0BDFCB7EE29
:10246000C00AB34890ED001BB0EE002B21EE021B1A
:1024700020EE01AB9DED100BB7EEC00B58F0F4FC55
:10248000B7EEC00A2AEE001B9DED0E0BB0EE002B3E
:1024900002EE001B28EE018B9DED120BB7EEC00B78
:1024A00058F09AFCB7EEC00AA14890ED001BB0EEC0
:1024B000082B21EE021B20EE01AB9DED100BB7EEB9
:1024C000C00B58F089FCB7EEC00A2AEE000B88EE6C
:1024D000001B39EE410B1FED6E1B30EE410B9FEDE3
:1024E000961B20EE01AB9DED100BB7EEC00B58F024
:1024F00073FCB0EE408A9DED140BB7EEC00B58F0A4
:10250000B3FC68EE008A9DED140BB7EEC00B58F0DB
:1025100063FCB0EE408A9DED120BB7EEC00B58F095
:10252000A3FC28EE008A9DED100BB7EEC00B58F00F
:102530009BFC48EE008AB7EEE80A7D4890ED001B50
:10254000B0EE002B21EE021B20EE019B9DED0A0B4D
:10255000B0EE001B01EE409B9DED140BB7EEC00BDF
:1025600058F082FCB0EE408A9DED100BB7EEC00B28
:1025700058F07AFC68EE008A9DED140BB7EEC00BA4
:1025800058F02AFCB0EE408A9DED100BB7EEC00B60
:1025900058F022FC28EE008A9DED120BB7EEC00B1E
:1025A00058F062FC48EE408AB7EEE88A9DED120BC7
:1025B000B7EEC00B58F010FCB7EEC00A5C4890EDC7
:1025C000001BB0EE002B21EE021B20EE01BB9DEDA7
:1025D000100BB7EEC00B58F047FCB7EEC00A2BEE5D
:1025E000001B9DED0E0BB0EE002B02EE001B28EE43
:1025F00001BB9DED120BB7EEC00B58F0EDFBB0EE3A
:10260000408A9DED100BB7EEC00B58F0E5FB28EEAD
:10261000000AB7EEC00A8BEE001B39EE010B9FEDEE
:10262000461B30EE010B8AEE009B9DED140BB7EEBE
:10263000C00B58F0D1FBB0EE408A9DED100BB7EE09
:10264000C00B58F0C9FB28EE008A9DED140BB7EEC5
:10265000C00B58F009FCF0EE408A9DED120BB7EE6E
:10266000C00B58F001FC68EE808A9DED100BB7EEB0
:10267000C00B58F0F9FB08EEC08AB7EEC81A9DED02
:102680000C0B2B4890ED002B02EE410B8DED060B51
:10269000B0EE001B9DED060B57F00AFAB0EE40AB12
:1026A0009DED100BB7EEC00B58F096FBB0EE408AD4
:1026B0009DED140BB7EEC00B58F0D6FB28EE008A48
:1026C0009DED140BB7EEC00B58F086FBF0EE408A80
:1026D0009DED120BB7EEC00B58F0C6FB68EE808A7A
:1026E0009DED100BB7EEC00B58F0BEFB08EE808AD4
:1026F000B7EEC81A9DED0A0B0D4890ED002B02EEC7
:10270000410B8DED060BB0EE001B9DED060B57F057
:10271000CFF93AEE008B9DED120BB7EEC00B58F0DF
:102720005BFBB7EEC00A0BE05808002078BB050839
:1027300068BB050870BB05080000000000004440AD
:10274000FE4890ED001B20EE01AB9DED100BB7EEA7
:10275000C00B58F089FBB7EEC01A9DED0E0B0AEEC8
:10276000010B8DED060BB0EE001B9DED060B57F037
:102770009FF938EE008BB0EE001BF14890ED000B96
:1027800057F096F938EE408BEE4890ED000B8DED4A
:10279000060BB0EE001B9DED060B57F089F938EEE5
:1027A00040ABB0EE001BE84890ED000B57F080F90D
:1027B000B0EE001B01EE00ABB0EE080B57F0F4FDDD
:1027C000B0EE40BBB0EE080B57F0EEFDB3EE041BCD
:1027D00020EE010BD94890ED001B20EE01CB9DEDC2
:1027E000140BB7EEC00B58F03FFBB0EE408A9DEDE6
:1027F000100BB7EEC00B58F037FB68EE008A9DED6A
:10280000140BB7EEC00B58F0E7FAB0EE408A9DED1E
:10281000100BB7EEC00B58F0DFFA28EE008A9DEDE2
:10282000120BB7EEC00B58F01FFB48EE408AB7EE14
:10283000E80A2CEE00CBB0EE080B57F0B5FDBF4810
:1028400090ED001B20EE010BBD4890ED001B20EE2B
:1028500001DB9DED140BB7EEC00B58F0BDFAB0EEE6
:10286000408A9DED100BB7EEC00B58F0FDFA28EE34
:10287000008A9DED100BB7EEC00B58F0ADFAF0EEEC
:10288000408A9DED140BB7EEC00B58F0EDFA68EEE0
:10289000808A9DED120BB7EEC00B58F0E5FA08EEFA
:1028A000808AB7EEC80A0DEE40CB2BEE0C8B9DED67
:1028B000120BB7EEC00B58F08FFAB7EEC00A9F4864
:1028C00090ED001BB0EE002B21EE021B20EE01BBB1
:1028D0009DED100BB7EEC00B58F0C6FAB7EEC00A6C
:1028E0002BEE001B9DED0E0BB0EE002B02EE001B3D
:1028F00028EE018B9DED120BB7EEC00B58F06CFA71
:10290000B7EEC00A8D4890ED001BB0EE082B21EE0B
:10291000021B20EE01BB9DED100BB7EEC00B58F073
:102920005BFAB7EEC00A2BEE000B88EE001B3AEE06
:10293000410B9FED861B30EE410B8DED080BB0EE89
:10294000001B9DED080B57F0B3F8B0EE40AB9DEDCA
:10295000100BB7EEC00B58F03FFAB0EE408A9DED79
:10296000140BB7EEC00B58F07FFA28EE008A9DEDED
:10297000120BB7EEC00B58F077FAF0EE408A9DEDDF
:10298000140BB7EEC00B58F027FA68EE808A9DED65
:10299000100BB7EEC00B58F067FA08EE808AB7EE5E
:1029A000C80A664890ED001BB0EE002B21EE021B1A
:1029B00020EE01BB9DED0A0BB0EE001B01EE40BB0B
:1029C0009DED140BB7EEC00B58F04EFAB0EE408AF6
:1029D0009DED100BB7EEC00B58F046FA28EE008ABA
:1029E0009DED120BB7EEC00B58F03EFAF0EE408AA8
:1029F0009DED140BB7EEC00B58F0EEF968EE808A2F
:102A00009DED100BB7EEC00B58F0E6F908EEC08A4A
:102A1000B7EEC88A9DED120BB7EEC00B58F0DCF98B
:102A2000B7EEC00A454890ED001BB0EE002B21EE3A
:102A3000021B20EE01CB9DED100BB7EEC00B58F042
:102A400013FAB7EEC00A2CEE001B9DED0E0BB0EE94
:102A5000002B02EE001B28EE01CB9DED120BB7EE12
:102A6000C00B58F0B9F9B0EE408A9DED100BB7EEEF
:102A7000C00B58F0B1F928EE000AB7EEC00A8CEE90
:102A8000001B3BEE010B1FEDD41B30EE010B8DED57
:102A9000080BB0EE001B9DED080B57F009F88AEE0D
:102AA000001B39EE018BB0EE001B254890ED000BAA
:102AB00056F0FEFF38EE008BB0EE001B224890ED82
:102AC000000B56F0F5FF38EE409BB0EE080B57F0C8
:102AD0006BFCB3EE041B20EE010B184890ED001BBD
:102AE00020EE01AB9DED140BB7EEC00B58F0BCF916
:102AF000B0EE408A9DED100BB7EEC00B58F0B4F964
:102B000028EE008A9DED140BB7EEC00B58F064F967
:102B1000F0EE408A9DED100BB7EEC00B58F05CF95B
:102B200068EE808A9DED120BB7EEC00B58F09CF951
:102B300008EEC08AB7EEC80A0CE0000068BB0508C2
:102B400070BB05085808002078BB0508000000008D
:102B5000000079402AEE00ABB0EE080B57F024FCE1
:102B6000FE4890ED001B20EE010BFD4890ED001B90
:102B700020EE01BB9DED140BB7EEC00B58F02CF905
:102B8000B0EE408A9DED100BB7EEC00B58F06CF91B
:102B900028EE008A9DED100BB7EEC00B58F01CF923
:102BA000F0EE408A9DED140BB7EEC00B58F05CF9C7
:102BB00068EE808A9DED120BB7EEC00B58F054F909
:102BC00008EE808AB7EEC80AB0EE4A8B0BEE408B57
:102BD000B0EE080B57F0E8FBE04890ED001B20EE4C
:102BE00001BB9DED140BB7EEC00B58F03DF9B0EEF4
:102BF00040AA9DED100BB7EEC00B58F035F92AEE48
:102C000000AA9DED140BB7EEC00B58F0E5F8F0EEFE
:102C100040AA9DED100BB7EEC00B58F0DDF86AEE40
:102C200080AA9DED120BB7EEC00B58F01DF90AEE0D
:102C3000C0AAB7EECA0A2BEE00AB9DED140BB7EE9F
:102C4000C00B58F0C9F8B0EE40BA9DED100BB7EECE
:102C5000C00B58F0C1F82BEE00BA9DED140BB7EE87
:102C6000C00B58F001F9F0EE40BA9DED120BB7EE33
:102C7000C00B58F0F9F86BEE80BA9DED100BB7EE73
:102C8000C00B58F0F1F80BEEC0BAB7EECB1A9DEDC1
:102C90000C0BB24890ED002B02EE410B8DED060BB4
:102CA000B0EE001B9DED060B56F002FFB0EE40CBE0
:102CB0009DED100BB7EEC00B58F08EF8B0EE40BA99
:102CC0009DED140BB7EEC00B58F0CEF82BEE00BA0A
:102CD0009DED140BB7EEC00B58F07EF8F0EE40BA45
:102CE0009DED120BB7EEC00B58F0BEF86BEE80BA3C
:102CF0009DED100BB7EEC00B58F0B6F80BEE80BA96
:102D0000B7EECB1A9DED0A0B944890ED002B02EE26
:102D1000410B8DED060BB0EE001B9DED060B56F042
:102D2000C7FE3CEE00BB9DED120BB7EEC00B58F09A
:102D300053F8B7EEC00A894890ED001B20EE01CB96
:102D40009DED100BB7EEC00B58F08EF8B7EEC01A21
:102D50009DED0E0B0CEE010B8DED060BB0EE001B86
:102D60009DED060B56F0A4FE3BEE00BBB0EE001B43
:102D70007B4890ED000B56F09BFE3BEE40BB794844
:102D800090ED000B8DED060BB0EE001B9DED060BDC
:102D900056F08EFE3BEE40CBB0EE001B724890ED3D
:102DA000000B56F085FEB0EE001B01EE00CBB0EE3E
:102DB000080B57F0F9FAB0EE40DBB0EE080B57F015
:102DC000F3FAB3EE041B20EE010B644890ED001BF8
:102DD00020EE01EB9DED140BB7EEC00B58F044F85C
:102DE000B0EE40BA9DED100BB7EEC00B58F03CF8BA
:102DF0002BEE00BA9DED140BB7EEC00B57F0ECFFB5
:102E0000F0EE40BA9DED100BB7EEC00B57F0E4FFAB
:102E10006BEE80BA9DED120BB7EEC00B58F024F8A4
:102E20000BEEC0BAB7EECB0A2EEE00EBB0EE080BFD
:102E300057F0BAFA494890ED001B20EE010B4848C4
:102E400090ED001B20EE01FB9DED140BB7EEC00BC7
:102E500057F0C2FFB0EE40BA9DED100BB7EEC00BBD
:102E600058F002F82BEE00BA9DED100BB7EEC00B38
:102E700057F0B2FFF0EE40BA9DED140BB7EEC00B69
:102E800057F0F2FF6BEE80BA9DED120BB7EEC00B60
:102E900057F0EAFF0BEE80BAB7EECB0A0FEE40EB2D
:102EA0002DEE0EBB9DED120BB7EEC00B57F094FF4D
:102EB000B7EEC00A294890ED001BB0EE002B21EEC2
:102EC000021B20EE01DB9DED100BB7EEC00B57F09F
:102ED000CBFFB7EEC00A2DEE001B9DED0E0BB0EE42
:102EE000002B02EE001B2BEE01BB9DED120BB7EE8B
:102EF000C00B57F071FFB7EEC00A184890ED001BE9
:102F0000B0EE082B21EE021B20EE01DB9DED100B35
:102F1000B7EEC00B57F060FFB7EEC00A2DEE000B06
:102F20008BEE001B3CEE410B1FEDF81B30EE410B0E
:102F30002AEE00BB9DED100BB7EEC00B57F04CFF17
:102F4000B0EE40AA9DED140BB7EEC00B57F08CFF0E
:102F50006AEE00AA9DED140B08E0000068BB0508AE
:102F600070BB05085808002078BB0508B7EEC00BF9
:102F700057F032FFB0EE40AA9DED120BB7EEC00B3A
:102F800057F072FF2AEE00AA9DED100BB7EEC00BB2
:102F900057F06AFF4AEE00AAB7EEEA0AFE4890ED43
:102FA000001BB0EE002B21EE021B20EE01CB9DEDAD
:102FB0000A0BB0EE001B01EE40CB9DED140BB7EEFB
:102FC000C00B57F051FFB0EE40AA9DED100BB7EECD
:102FD000C00B57F049FF6AEE00AA9DED140BB7EE47
:102FE000C00B57F0F9FEB0EE40AA9DED100BB7EE06
:102FF000C00B57F0F1FE2AEE00AA9DED120BB7EEC2
:10300000C00B57F031FF4AEE40AAB7EEEAAA9DED99
:10301000120BB7EEC00B57F0DFFEB7EEC00ADE486A
:1030200090ED001BB0EE002B21EE021B20EE01DB29
:103030009DED100BB7EEC00B57F016FFB7EEC00AB0
:103040002DEE001B9DED0E0BB0EE002B02EE001BD3
:103050002AEE01DB9DED120BB7EEC00B57F0BCFE64
:10306000B0EE40AA9DED100BB7EEC00B57F0B4FECA
:103070002AEE000AB7EEC00A8DEE001B3CEE010BF3
:103080009FEDC61B30EE010B8BEE001B38EE010BE3
:103090008DED080BB0EE001B9DED080B56F008FD02
:1030A000B0EE408BB0EE001BBB4890ED000B56F02D
:1030B000FFFCB0EE081B20EE01AB9DED120BB7EE4E
:1030C000C00B57F089FEB7EEC00A8DED080BB0EECD
:1030D000001B9DED080B56F0EBFC2AEE00AB9DEDBE
:1030E000100BB7EEC00B57F077FEB7EEC00A8DEDB0
:1030F000080BB0EE001B9DED080B56F0D9FC2AEE34
:10310000000B88EE001B39EE010B9FEDA61B30EE85
:10311000010B8DED180BB0EE001B9DED1A0B56F058
:10312000C7FC9DED1C1BB1EE002B21EE022B9DED8B
:10313000181B02EE410B8DED160B9DED160BB5EE37
:10314000C00BF1EE10FA7CDDB6EE001B9DED160B08
:1031500056F0AEFC9DED1A1BB1EE411B31EE401B4B
:103160009DED1C0BB0EE002B20EE020B81EE002B30
:103170008E4880ED022BB0EE080B57F015F9B0EE3B
:10318000408BB0EE080B57F00FF9B3EE041B20EEA6
:10319000010B814890ED001B20EE01AB9DED140B5F
:1031A000B7EEC00B57F060FEB0EE409A9DED100BED
:1031B000B7EEC00B57F058FE29EE009A9DED140BA8
:1031C000B7EEC00B57F008FEF0EE409A9DED100BE5
:1031D000B7EEC00B57F000FE69EE809A9DED120B22
:1031E000B7EEC00B57F040FE09EEC09AB7EEC90A21
:1031F0002AEE00ABB0EE080B57F0D6F8664890ED1B
:10320000001B20EE010B6A4890ED001B20EE01BB75
:103210009DED140BB7EEC00B57F0DEFDB0EE409AFB
:103220009DED100BB7EEC00B57F01EFE29EE009A75
:103230009DED100BB7EEC00B57F0CEFDF0EE409AAF
:1032400000E0FDE39DED140BB7EEC00B57F00CFE54
:1032500069EE809A9DED120BB7EEC00B57F004FE9D
:1032600009EE809AB7EEC90AB0EE4A9B0BEE409B7E
:10327000B0EE080B57F098F8474890ED001B20EE91
:1032800001BB9DED140BB7EEC00B57F0EDFDB0EE9A
:1032900040AA9DED100BB7EEC00B57F0E5FD2AEEEE
:1032A00000AA9DED140BB7EEC00B57F095FDF0EEA4
:1032B00040AA9DED100BB7EEC00B57F08DFD6AEEE6
:1032C00080AA9DED120BB7EEC00B57F0CDFD0AEEB4
:1032D000C0AAB7EECA0A2BEE00AB9DED140BB7EEF9
:1032E000C00B57F079FDB0EE40BA9DED100BB7EE74
:1032F000C00B57F071FD2BEE00BA9DED140BB7EE2D
:10330000C00B57F0B1FDF0EE40BA9DED120BB7EED9
:10331000C00B57F0A9FD6BEE80BA9DED100BB7EE18
:10332000C00B57F0A1FD0BEEC0BAB7EECB1A9DED66
:103330000C0B194890ED002B02EE410B8DED080BA4
:10334000B0EE001B9DED080B56F0B2FBB0EE40CB8B
:103350009DED100BB7EEC00B57F03EFDB0EE40BA3E
:103360009DED140BB7EEC00B57F07EFD6BEE00BA6F
:103370009DED140BB7EEC00B57F02EFDB0EE40BA2A
:103380009DED120BB7EEC00B57F06EFD2BEE00BAA1
:103390009DED100B0EE0000068BB0508000000006A
:1033A000000044400000000000007940400B002075
:1033B00070BB0508B7EEC00B57F056FD4BEE00BAD8
:1033C000B7EEEB1A9DED0A0BFE4890ED002B02EED6
:1033D000410B8DED080BB0EE001B9DED080B56F078
:1033E00067FB3CEE00BB9DED120BB7EEC00B57F038
:1033F000F3FCB7EEC00AF34890ED001B20EE01CBC2
:103400009DED100BB7EEC00B57F02EFDB7EEC01AB6
:103410009DED0E0B0CEE010B8DED080BB0EE001BBD
:103420009DED080B56F044FB3BEE00BBB0EE001BDD
:10343000E54890ED000B56F03BFB3BEE40BBE3480C
:1034400090ED000B8DED080BB0EE001B9DED080B11
:1034500056F02EFB3BEE40CBB0EE001BDC4890ED6F
:10346000000B56F025FBB0EE001B01EE00CBB0EEDA
:10347000080B56F099FFB0EE40DBB0EE080B56F0AB
:1034800093FFB3EE041B20EE010BCE4890ED001B22
:1034900020EE01EB9DED140BB7EEC00B57F0E4FCF2
:1034A000B0EE40BA9DED100BB7EEC00B57F0DCFC50
:1034B0002BEE00BA9DED140BB7EEC00B57F08CFC51
:1034C000F0EE40BA9DED100BB7EEC00B57F084FC48
:1034D0006BEE80BA9DED120BB7EEC00B57F0C4FC3B
:1034E0000BEEC0BAB7EECB0A2EEE00EBB0EE080B37
:1034F00056F05AFFB34890ED001B20EE010BB24886
:1035000090ED001B20EE01FB9DED140BB7EEC00B00
:1035100057F062FCB0EE40BA9DED100BB7EEC00B59
:1035200057F0A2FC2BEE00BA9DED100BB7EEC00BCE
:1035300057F052FCF0EE40BA9DED140BB7EEC00B05
:1035400057F092FC6BEE80BA9DED120BB7EEC00BFC
:1035500057F08AFC0BEE80BAB7EECB0A0FEE40EBC9
:103560002DEE0EBB9DED120BB7EEC00B57F034FCE9
:10357000B7EEC00A934890ED001BB0EE002B21EE91
:10358000021B20EE01DB9DED100BB7EEC00B57F0D8
:103590006BFCB7EEC00A2DEE001B9DED0E0BB0EEDE
:1035A000002B02EE001B2BEE01BB9DED120BB7EEC4
:1035B000C00B57F011FCB7EEC00A824890ED001B1B
:1035C000B0EE082B21EE021B20EE01DB9DED100B6F
:1035D000B7EEC00B57F000FCB7EEC00A2DEE000BA3
:1035E0008BEE001B3CEE410B1FED921B30EE410BAE
:1035F0002AEE00BB9DED100BB7EEC00B57F0ECFBB5
:10360000B0EE40AA9DED140BB7EEC00B57F02CFCAA
:103610006AEE00AA9DED140BB7EEC00B57F0DCFB71
:10362000B0EE40AA9DED120BB7EEC00B57F01CFC9C
:103630002AEE00AA9DED100BB7EEC00B57F014FC5C
:103640004AEE00AAB7EEEA0A5E4890ED002BB0EE13
:10365000001B22EE011B20EE01CB9DED0A0BB0EE0C
:10366000001B01EE40CB9DED140BB7EEC00B57F0E5
:10367000FBFBB0EE40AA9DED100BB7EEC00B57F070
:10368000F3FB6AEE00AA9DED140BB7EEC00B57F0EA
:10369000A3FBB0EE40AA9DED100BB7EEC00B57F0A8
:1036A0009BFB2AEE00AA9DED120BB7EEC00B57F064
:1036B000DBFB4AEE40AAB7EEEAAA9DED120BB7EE8D
:1036C000C00B57F089FBB7EEC00A3E4890ED001BD7
:1036D000B0EE002B21EE021B20EE01DB9DED100B66
:1036E000B7EEC00B57F0C0FBB7EEC00A2DEE001BC3
:1036F0009DED0E0BB0EE002B02EE001B2AEE01DB5F
:103700009DED120BB7EEC00B57F066FBB0EE40AA72
:103710009DED100BB7EEC00B57F05EFB2AEE000AD2
:10372000B7EEC00A8DEE001B3CEE010B1FEDE51B52
:1037300030EE010B8BEE001B39EE010B28EE008BF7
:103740009DED120BB7EEC00B57F046FBB7EEC00A6B
:103750001C4890ED001BB0EE082B21EE021B20EE62
:10376000019B9DED100BB7EEC00B57F035FBB7EE8C
:10377000C00A29EE000B88EE009BB0EE080B56F055
:1037800013FE144890ED021B20EE01ABB0EE080BC7
:1037900056F00AFE0B4890ED001B20EE01BB9DED9C
:1037A000140BB7EEC00B57F05FFBB0EE408A9DEDF7
:1037B000100BB7EEC00B57F057FB28EE008A9DEDBB
:1037C000140B09E068BB050870BB05085808002009
:1037D00078BB0508400B0020B7EEC00B57F0FCFA91
:1037E000F0EE408A9DED100BB7EEC00B57F0F4FAE7
:1037F00068EE808A9DED120BB7EEC00B57F034FBDC
:1038000008EEC08AB7EEC80A2BEE00BB9DED140B84
:10381000B7EEC00B57F0E0FAB0EE408A9DED100B0A
:10382000B7EEC00B57F0D8FA68EE008A9DED140B86
:10383000B7EEC00B57F018FBB0EE408A9DED120BAF
:10384000B7EEC00B57F010FB28EE008A9DED100B71
:10385000B7EEC00B57F008FB48EE408AB7EEE81A07
:103860009DED0C0BB0EE002B20EE020BFE4890ED10
:10387000002BB0EE003B03EE020BFC4890ED002B5A
:10388000B0EE003B22EE032BB0EE40CB02EE41CB7C
:103890009DED140BB7EEC00B57F09EFAB0EE408AC8
:1038A0009DED100BB7EEC00B57F0DEFA28EE008A44
:1038B0009DED100BB7EEC00B57F08EFAF0EE408A7C
:1038C0009DED140BB7EEC00B57F0CEFA68EE808A70
:1038D0009DED120BB7EEC00B57F0C6FA08EE808ACA
:1038E000B7EEC88A9DED120BB7EEC00B57F074FA15
:1038F000B7EEC00ADD4890ED001BB0EE002B21EEC4
:10390000021B20EE01DB9DED100BB7EEC00B57F054
:10391000ABFAB7EEC00A2DEE001B9DED0E0BB0EE1C
:10392000002B02EE001B28EE01DB9DED120BB7EE23
:10393000C00B57F051FAB0EE408A9DED100BB7EE78
:10394000C00B57F049FA28EE000AB7EEC00A8DEE18
:10395000001B3CEE410B2BEE00BB9DED100BB7EEB8
:10396000C00B57F039FAB0EE408A9DED140BB7EE5C
:10397000C00B57F079FA68EE008A9DED140BB7EE94
:10398000C00B57F029FAB0EE408A9DED120BB7EE4E
:10399000C00B57F069FA28EE008A9DED100BB7EEC8
:1039A000C00B57F061FA48EE008AB7EEE80AAF485C
:1039B00090ED001BB0EE002B21EE021B20EE01CBA0
:1039C0009DED0A0BB0EE001B01EE40CB9DED140BFC
:1039D000B7EEC00B57F048FAB0EE408A9DED100BE1
:1039E000B7EEC00B57F040FA28EE008A9DED140B9D
:1039F000B7EEC00B57F0F0F9F0EE408A9DED100BDA
:103A0000B7EEC00B57F0E8F968EE808A9DED120B17
:103A1000B7EEC00B57F028FA08EEC08AB7EEC88A96
:103A20009DED120BB7EEC00B57F0D6F9B7EEC00AFA
:103A30008E4890ED001BB0EE002B21EE021B00E043
:103A4000FEE320EE01DB9DED100BB7EEC00B57F04F
:103A50000BFAB7EEC00A2DEE001B9DED0E0BB0EE7B
:103A6000002B02EE001B28EE01DB9DED120BB7EEE2
:103A7000C00B57F0B1F9B0EE408A9DED100BB7EED8
:103A8000C00B57F0A9F928EE000AB7EEC00A8DEE78
:103A9000001B3CEE010B9FED761B30EE010B8BEE15
:103AA00000CBB0EE080B56F07FFC704890ED001B89
:103AB00020EE01BB9DED140BB7EEC00B57F08CF957
:103AC000B0EE408A9DED100BB7EEC00B57F0CCF96D
:103AD00068EE008A9DED100BB7EEC00B57F07CF935
:103AE000B0EE408A9DED140BB7EEC00B57F0BCF959
:103AF00028EE008A9DED120BB7EEC00B57F0B4F91B
:103B000048EE008AB7EEE80A0BEE00CB2AEE0C8BEB
:103B10009DED120BB7EEC00B57F05EF9B7EEC00A81
:103B2000524890ED001BB0EE082B21EE021B20EE58
:103B300001AB9DED100BB7EEC00B57F04DF9B7EE92
:103B4000C00A2AEE001B88EE010B39EE400B4A48F2
:103B500080ED000B9DED140BB7EEC00B57F03CF958
:103B6000B0EE408A9DED100BB7EEC00B57F034F964
:103B700028EE008A9DED140BB7EEC00B57F074F9D8
:103B8000F0EE408A9DED120BB7EEC00B57F06CF9CA
:103B900068EE808A9DED100BB7EEC00B57F064F90C
:103BA00008EEC08AB7EEC81A9DED0C0BB0EE002BE4
:103BB00020EE020B2C4890ED002BB0EE003B03EE04
:103BC000020B2A4890ED002BB0EE003B22EE032BB7
:103BD000B0EE409B02EE419B9DED140BB7EEC00B87
:103BE00057F0FAF8B0EE408A9DED100BB7EEC00B1F
:103BF00057F03AF928EE008A9DED100BB7EEC00B96
:103C000057F0EAF8F0EE408A9DED140BB7EEC00BCA
:103C100057F02AF968EE808A9DED120BB7EEC00BC3
:103C200057F022F908EE808AB7EEC88A9DED120B94
:103C3000B7EEC00B57F0D0F8B7EEC00A0B4890EDC6
:103C4000001BB0EE002B21EE021B20EE01AB9DED20
:103C5000100BB7EEC00B57F007F9B7EEC00A2AEE0B
:103C6000001B9DED0E0B09E070BB050868BB050845
:103C70000000000000004440400B0020B0EE002B8C
:103C800002EE001B28EE01AB9DED120BB7EEC00B50
:103C900057F0A2F8B0EE408A9DED100BB7EEC00BC6
:103CA00057F09AF828EE000AB7EEC00A8AEE001B19
:103CB00039EE411BFE4890ED020B21EE00AB9DED6D
:103CC000100BB7EEC00B57F087F8B0EE408A9DEDB1
:103CD000140BB7EEC00B57F0C7F828EE008A9DED25
:103CE000140BB7EEC00B57F077F8F0EE408A9DED5D
:103CF000120BB7EEC00B57F0B7F868EE808A9DED57
:103D0000100BB7EEC00B57F0AFF808EE808AB7EE95
:103D1000C80AE84890ED001BB0EE002B21EE021B14
:103D200020EE019B9DED0A0BB0EE001B01EE409BC7
:103D30009DED140BB7EEC00B57F096F8B0EE408A2D
:103D40009DED100BB7EEC00B57F08EF828EE008AF1
:103D50009DED140BB7EEC00B57F03EF8F0EE408A25
:103D60009DED100BB7EEC00B57F036F868EE808A69
:103D70009DED120BB7EEC00B57F076F808EEC08A37
:103D8000B7EEC88A9DED120BB7EEC00B57F024F8C2
:103D9000B7EEC00AC74890ED001BB0EE002B21EE35
:103DA000021B20EE01BB9DED100BB7EEC00B57F0D0
:103DB0005BF8B7EEC00A2BEE001B9DED0E0BB0EECC
:103DC000002B02EE001B28EE01BB9DED120BB7EE9F
:103DD000C00B57F001F8B0EE408A9DED100BB7EE26
:103DE000C00B56F0F9FF28EE000AB7EEC00A8BEEC2
:103DF000001B39EE010B1FED621B30EE010B8AEE4A
:103E0000009B9DED140BB7EEC00B56F0E5FFB0EE36
:103E1000408A9DED100BB7EEC00B56F0DDFF28EE8B
:103E2000008A9DED140BB7EEC00B57F01DF8F0EEB5
:103E3000408A9DED120BB7EEC00B57F015F868EEF7
:103E4000808A9DED100BB7EEC00B57F00DF808EE11
:103E5000C08AB7EEC81A9DED0C0B964890ED002B6A
:103E600002EE410B8DED080BB0EE001B9DED080B33
:103E700055F01EFEB0EE40AB9DED100BB7EEC00B43
:103E800056F0AAFFB0EE408A9DED140BB7EEC00BC2
:103E900056F0EAFF28EE008A9DED140BB7EEC00B3A
:103EA00056F09AFFF0EE408A9DED120BB7EEC00B74
:103EB00056F0DAFF68EE808A9DED100BB7EEC00B6E
:103EC00056F0D2FF08EE808AB7EEC81A9DED0A0BB5
:103ED000784890ED002B02EE410B8DED080BB0EE13
:103EE000001B9DED080B55F0E3FD3AEE008B9DEDB8
:103EF000120BB7EEC00B56F06FFFB7EEC00A6D485D
:103F000090ED001B20EE01AB9DED100BB7EEC00B4A
:103F100056F0AAFFB7EEC01A9DED0E0B0AEE010B8C
:103F20008DED080BB0EE001B9DED080B55F0C0FDAC
:103F300038EE008BB0EE001B5F4890ED000B55F0A3
:103F4000B7FD38EE408B5D4890ED000B8DED080B12
:103F5000B0EE001B9DED080B55F0AAFD38EE40AB0E
:103F6000B0EE001B564890ED000B55F0A1FDB0EEF1
:103F7000001B01EE00ABB0EE080B56F015FAB0EEE8
:103F800040BBB0EE080B56F00FFAB3EE041B20EE68
:103F9000011B484890ED000B21EE00CB9DED140B6A
:103FA000B7EEC00B56F060FFB0EE408A9DED100BEF
:103FB000B7EEC00B56F058FF68EE008A9DED140B6B
:103FC000B7EEC00B56F008FFB0EE408A9DED100B27
:103FD000B7EEC00B56F000FF28EE008A9DED120BE5
:103FE000B7EEC00B56F040FF48EE408AB7EEE80A45
:103FF0002CEE00CBB0EE080B56F0D6F92D4890ED24
:10400000001B20EE010B2C4890ED001B20EE01DB85
:104010009DED140BB7EEC00B56F0DEFEB0EE408AFD
:104020009DED100BB7EEC00B56F01EFF28EE008A78
:104030009DED100BB7EEC00B56F0CEFEF0EE408AB1
:104040009DED140BB7EEC00B56F00EFF68EE808AA4
:104050009DED120BB7EEC00B56F006FF08EE808AFE
:10406000B7EEC80A0DEE40CB2BEE0C8B9DED120B7C
:10407000B7EEC00B56F0B0FEB7EEC00A0D4890ED9B
:10408000001BB0EE002B21EE021B20EE01BB9DEDCC
:10409000100BB7EEC00B56F0E7FEB7EEC00A2BEEE2
:1040A000001B9DED0E0BB0EE002B02EE001B09E095
:1040B000400B002068BB050870BB050858080020AD
:1040C00078BB050828EE018B9DED120BB7EEC00BF7
:1040D00056F082FEB7EEC00AFE4890ED001BB0EE2F
:1040E000082B21EE021B20EE01BB9DED100BB7EE5D
:1040F000C00B56F071FEB7EEC00A2BEE000B88EE37
:10410000001B3AEE410B9FEDF41B30EE41AB9DEDF1
:10411000100BB7EEC00B56F05FFEB0EE408A9DED7F
:10412000140BB7EEC00B56F09FFE68EE008A9DEDB3
:10413000140BB7EEC00B56F04FFEB0EE408A9DED6B
:10414000120BB7EEC00B56F08FFE28EE008A9DEDE5
:10415000100BB7EEC00B56F087FE48EE008AB7EEA4
:10416000E80ADC4890ED001BB0EE002B21EE021BAC
:1041700020EE01BB9DED0A0BB0EE001B01EE40BB33
:104180009DED140BB7EEC00B56F06EFEB0EE408AFC
:104190009DED100BB7EEC00B56F066FE28EE008AC0
:1041A0009DED140BB7EEC00B56F016FEF0EE408AF4
:1041B0009DED100BB7EEC00B56F00EFE68EE808A38
:1041C0009DED120BB7EEC00B56F04EFE08EEC08A06
:1041D000B7EEC88A9DED120BB7EEC00B56F0FCFD92
:1041E000B7EEC00ABB4890ED001BB0EE002B21EEED
:1041F000021B20EE01CB9DED100BB7EEC00B56F06D
:1042000033FEB7EEC00A2CEE001B9DED0E0BB0EE98
:10421000002B02EE001B28EE01CB9DED120BB7EE3A
:10422000C00B56F0D9FDB0EE408A9DED100BB7EEF5
:10423000C00B56F0D1FD28EE000AB7EEC00A00E030
:104240000EE08CEE001B3BEE010B9FEDA51B30EE4C
:10425000010B8AEE001B39EE410BA34880ED040BE5
:10426000A24801212022CDE908104AA96846FCF79E
:1042700060F89D4C46A80FC894ED042B94ED021BEA
:1042800094ED000B12F002FA9DED100BB7EEC00B8F
:1042900056F0A2FDB0EE408A9DED140BB7EEC00BB8
:1042A00056F0E2FD28EE008A9DED140BB7EEC00B30
:1042B00056F092FDF0EE408A9DED120BB7EEC00B6A
:1042C00056F0D2FD68EE808A9DED100BB7EEC00B64
:1042D00056F0CAFD08EE808AB7EEC82A7D4890EDF8
:1042E000000BB0EE081B20EE010B22EE000BB0EE2F
:1042F000001B80EE019BB0EE080B56F055F8754898
:1043000090ED001B20EE01AB9DED140BB7EEC00B42
:1043100056F0AAFDB0EE408A9DED100BB7EEC00B33
:1043200056F0A2FD28EE008A9DED140BB7EEC00BEF
:1043300056F052FDF0EE408A9DED100BB7EEC00B2B
:1043400056F04AFD68EE808A9DED120BB7EEC00B69
:1043500056F08AFD08EEC08AB7EEC80A2AEE000BB6
:10436000B0EE001B80EE012B39EE429B9DED140B4D
:10437000B7EEC00B56F030FDB0EE408A9DED100B4D
:10438000B7EEC00B56F028FD28EE008A9DED140B09
:10439000B7EEC00B56F068FDF0EE408A9DED120BB3
:1043A000B7EEC00B56F060FD68EE808A9DED100BF5
:1043B000B7EEC00B56F058FD08EEC08AB7EEC82A1B
:1043C0004B4890ED000B9DED0C1BB0EE003B13EE47
:1043D000010B404890ED001BB0EE40AB01EE02AB8C
:1043E0009DED140BB7EEC00B56F0F6FCB0EE408A14
:1043F0009DED100BB7EEC00B56F0EEFC28EE008AD8
:104400009DED140BB7EEC00B56F02EFDF0EE408A7A
:104410009DED120BB7EEC00B56F026FD68EE808ABC
:104420009DED100BB7EEC00B56F01EFD08EEC08AD6
:10443000B7EEC82A274890ED000BB0EE081B20EE1F
:10444000010B22EE000BB0EE001B80EE01BBB0EEC4
:10445000080B55F0A9FF1F4890ED001B20EE01CB83
:104460009DED140BB7EEC00B56F0B6FCB0EE408AD3
:104470009DED100BB7EEC00B56F0F6FC28EE008A4F
:104480009DED100BB7EEC00B56F0A6FCF0EE408A87
:104490009DED140BB7EEC00B56F0E6FC68EE808A7B
:1044A0009DED120BB7EEC00B56F0DEFC08EE808AD5
:1044B000B7EEC80A2CEE000BB0EE001B80EE012B0D
:1044C0003BEE42BBB0EE080B55F06EFF9DED0E1BB0
:1044D00010E0000068BB0508000000000000794003
:1044E0000000000000004440400B0020E00A0020D3
:1044F00070BB0508B0EE002B21EE028BFE4890ED5C
:10450000001B00EE418B9DED120BB7EEC00B56F079
:1045100063FCB7EEC00AF94890ED001B20EE01CB1A
:104520009DED100BB7EEC00B56F09EFCB7EEC00A27
:104530000CEE408BB0EE080B55F036FFEF4890EDD7
:10454000001B20EE01CB9DED120BB7EEC00B56F019
:1045500043FCB7EEC00A2CEE00CB9DED100BB7EE7E
:10456000C00B56F039FCB7EEC00A0CEE008B2BEEF8
:10457000088B9DED120BB7EEC00B56F02DFCB7EE7D
:10458000C00ADE4890ED001BB0EE082B21EE021BA6
:1045900020EE01BB9DED100BB7EEC00B56F064FC96
:1045A000B7EEC00A2BEE000BB0EE001B80EE01BB95
:1045B000B0EE080B55F0F8FED04890ED001B20EE51
:1045C00001CB9DED120BB7EEC00B56F005FCB7EE1C
:1045D000C00A2CEE00CB9DED100BB7EEC00B56F0D1
:1045E000FBFBB7EEC00A2CEE000BB0EE001B80EE1A
:1045F000012B3BEE020B88EE001B3AEE01ABB0EE56
:10460000080B55F0D1FEBD4890ED001B20EE01BB1C
:104610009DED140BB7EEC00B56F0DEFBB0EE408AFA
:104620009DED100BB7EEC00B56F01EFC68EE008A35
:104630009DED100BB7EEC00B56F0CEFBB0EE408AEE
:104640009DED140BB7EEC00B56F00EFC28EE008A61
:104650009DED120BB7EEC00B56F006FC48EE008A3B
:10466000B7EEE80A0BEE00AB29EE0A9B9DED100BAE
:10467000B7EEC00B56F0B0FBB0EE408A9DED140BC8
:10468000B7EEC00B56F0F0FB28EE008A9DED140B40
:10469000B7EEC00B56F0A0FBF0EE408A9DED120B7A
:1046A000B7EEC00B56F0E0FB68EE808A9DED100B74
:1046B000B7EEC00B56F0D8FB08EE808AB7EEC81AEA
:1046C0008E4890ED000B21EE00AB9DED0A0BB0EE95
:1046D000001B01EE00AB9DED100BB7EEC00B56F0CA
:1046E0007BFBB0EE408A9DED140BB7EEC00B56F08D
:1046F000BBFB28EE008A9DED140BB7EEC00B56F005
:104700006BFBF0EE408A9DED120BB7EEC00B56F03E
:10471000ABFB68EE808A9DED100BB7EEC00B56F038
:10472000A3FB08EE808AB7EEC80A744890ED001B20
:10473000B0EE082B21EE021B20EE011BB0EE000BA9
:1047400081EE00BBB0EE080B55F02EFE6B4890EDED
:10475000001B20EE01CB9DED140BB7EEC00B56F005
:1047600083FBB0EE408A9DED100BB7EEC00B56F008
:104770007BFB28EE008A9DED140BB7EEC00B56F0C4
:104780002BFBF0EE408A9DED100BB7EEC00B56F000
:1047900023FB68EE808A9DED120BB7EEC00B56F03E
:1047A00063FB08EEC08AB7EEC80A2CEE000BB0EE31
:1047B000001B80EE012B3BEE42BBB0EE080B55F028
:1047C000F3FD9DED0E1BB0EE002B21EE028B4A484F
:1047D00090ED001B00EE418B9DED120BB7EEC00B70
:1047E00056F0FAFAB7EEC00A444890ED001B20EEEE
:1047F00001CB9DED100BB7EEC00B56F035FBB7EEBD
:10480000C00A0CEE408BB0EE080B55F0CDFD3B48D6
:1048100090ED001B20EE01CB9DED120BB7EEC00B0F
:1048200056F0DAFAB7EEC00A2CEE00CB9DED100B75
:10483000B7EEC00B56F0D0FAB7EEC00A0CEE008B04
:104840002BEE088B9DED120BB7EEC00B56F0C4FAA1
:10485000B7EEC00A294890ED001BB0EE082B21EE00
:10486000021B20EE01BB9DED100BB7EEC00B56F006
:10487000FBFAB7EEC00A2BEE000BB0EE001B80EE89
:1048800001BBB0EE080B55F08FFD1C4890ED001BEE
:1048900020EE01CB9DED120BB7EEC00B56F09CFA4B
:1048A000B7EEC00A2CEE00CB9DED100BB7EEC00B9F
:1048B00056F092FAB7EEC00A2CEE000BB0EE001BD9
:1048C00080EE012B3BEE020B88EE001B3AEE01ABB3
:1048D000B0EE080B55F068FD084890ED001B20EE87
:1048E00001BB9DED140BB7EEC00B56F0BDFAB0EE58
:1048F000408A9DED100B03E070BB050868BB0508FE
:10490000B7EEC00B56F0B0FA68EE008A9DED140BBE
:10491000B7EEC00B56F060FAB0EE408A9DED100B7A
:10492000B7EEC00B56F058FA28EE008A9DED120B38
:10493000B7EEC00B56F098FA48EE408AB7EEE80A98
:104940000BEE00AB9FEDFE0B3AEE400B89EE00AB99
:104950009DED140BB7EEC00B56F03EFAB0EE408A58
:104960009DED100BB7EEC00B56F036FA28EE008A1C
:104970009DED140BB7EEC00B56F076FAF0EE408AC0
:104980009DED120BB7EEC00B56F06EFA68EE808A02
:104990009DED100BB7EEC00B56F066FA08EEC08A1C
:1049A000B7EEC81AE84890ED002BB0EE080B22EEE7
:1049B000000B21EE000BB0EE001B80EE012B3AEE57
:1049C000429BB0EE080B55F0EFFCDF4890ED001B6A
:1049D00020EE01AB9DED140BB7EEC00B56F0FCF9C9
:1049E000B0EE408A9DED100BB7EEC00B56F03CFACE
:1049F00028EE008A9DED100BB7EEC00B56F0ECF9D7
:104A0000F0EE408A9DED140BB7EEC00B56F02CFA79
:104A100068EE808A9DED120BB7EEC00B56F024FABB
:104A200008EE808AB7EEC80A2AEE000BB0EE001B33
:104A300080EE012B39EE020B8DED080BB0EE001B62
:104A40009DED080B55F034F8B0EE408B9DED120B48
:104A5000B7EEC00B56F0C0F9B7EEC00ABA4890EDF9
:104A6000001BB0EE082B21EE021B20EE019B9DEDFA
:104A7000100BB7EEC00B56F0F7F9B7EEC00A29EEEF
:104A8000000BB0EE001B80EE019BB0EE080B55F062
:104A90008BFCAD4890ED001B20EE01AB9DED120BA1
:104AA000B7EEC00B56F098F9B7EEC00A2AEE00AB8D
:104AB0009DED100BB7EEC00B56F08EF9B7EEC00AA5
:104AC0002AEE000BB0EE001B80EE012B39EE020B3C
:104AD0008DED080BB0EE001B9DED080B54F0E8FFC8
:104AE00088EE009B9DED140BB7EEC00B56F074F9E9
:104AF000B0EE408A9DED100BB7EEC00B56F06CF98E
:104B000028EE008A9DED140BB7EEC00B56F0ACF901
:104B1000F0EE408A9DED120BB7EEC00B56F0A4F9F3
:104B200068EE808A9DED100BB7EEC00B56F09CF935
:104B300008EEC08AB7EEC82A844890ED000B9DEDC0
:104B40000C1BB0EE003B13EE010B7F4890ED001BF9
:104B5000B0EE40AB01EE02AB9DED140BB7EEC00B17
:104B600056F03AF9B0EE408A9DED100BB7EEC00B4F
:104B700056F032F968EE008A9DED140BB7EEC00BCB
:104B800056F072F9B0EE408A9DED120BB7EEC00BF5
:104B900056F06AF928EE008A9DED100BB7EEC00BB7
:104BA00056F062F948EE408AB7EEE80A664890EDA2
:104BB000001BB0EE082B21EE021B20EE011BB0EE15
:104BC000000B81EE00BBB0EE080B55F0EDFB5E482C
:104BD00090ED001B20EE01CB9DED140BB7EEC00B4A
:104BE00056F0FAF8B0EE408A9DED100BB7EEC00B10
:104BF00056F03AF968EE008A9DED100BB7EEC00B47
:104C000056F0EAF8B0EE408A9DED140BB7EEC00BFB
:104C100056F02AF928EE008A9DED120BB7EEC00B74
:104C200056F022F948EE008AB7EEE80A2CEE000BA7
:104C3000B0EE001B80EE012B3BEE42BBB0EE080B4A
:104C400055F0B2FB9DED0E1BB0EE002B21EE028B5A
:104C50003E4890ED001B00EE418B9DED120BB7EE30
:104C6000C00B56F0B9F8B7EEC00A374890ED001BFC
:104C700020EE01CB9DED100BB7EEC00B56F0F4F813
:104C8000B7EEC00A0CEE408BB0EE080B55F08CFB73
:104C90002D4890ED001B20EE01CB9DED120BB7EEE1
:104CA000C00B56F099F8B7EEC00A2CEE00CB9DED84
:104CB000100BB7EEC00B56F08FF8B7EEC00A0CEE33
:104CC000008B2BEE088B9DED120BB7EEC00B56F050
:104CD00083F8B7EEC00A1C4890ED001BB0EE082B1D
:104CE00021EE021B20EE01BB9DED100BB7EEC00BB9
:104CF00056F0BAF8B7EEC00A2BEE000BB0EE001B70
:104D000080EE01BBB0EE080B55F04EFB0E4890ED67
:104D1000001B20EE01CB9DED120BB7EEC00B56F041
:104D20005BF8B7EEC00A2CEE00CB9DED100BB7EE92
:104D3000C00B56F051F8B7EEC00A2CEE000B07E09E
:104D4000000000000000444068BB050870BB050877
:104D5000B0EE001B80EE012B3BEE020B88EE001B39
:104D60003AEE01ABB0EE080B55F01EFBFE4890ED9D
:104D7000001B20EE01BB9DED140BB7EEC00B56F0EF
:104D80002BF8B0EE408A9DED100BB7EEC00B56F03D
:104D90006BF828EE008A9DED100BB7EEC00B56F0B5
:104DA0001BF8F0EE408A9DED140BB7EEC00B56F0E9
:104DB0005BF868EE808A9DED120BB7EEC00B56F0E3
:104DC00053F808EE808AB7EEC81AB0EE4A0B0BEE25
:104DD000010B8DED080BB0EE001B9DED080B54F0A0
:104DE00067FEB0EE40BB9DED100BB7EEC00B55F06B
:104DF000F3FFB0EE408A9DED140BB7EEC00B56F0FA
:104E000033F828EE008A9DED120BB7EEC00B56F07A
:104E10002BF8F0EE408A9DED140BB7EEC00B55F069
:104E2000DBFF68EE808A9DED100BB7EEC00B56F0ED
:104E30001BF808EE808AB7EEC80ACB4890ED001B3D
:104E400020EE018B9DED0A0BB0EE001B01EE008BF6
:104E5000B0EE080B55F0A8FAC34890ED001B20EE09
:104E600001CB9DED140BB7EEC00B55F0FDFFB0EE7E
:104E700040AA9DED100BB7EEC00B55F0F5FF2AEEE2
:104E800000AA9DED120BB7EEC00B55F0EDFFF0EE52
:104E900040AA9DED140BB7EEC00B55F09DFF6AEED6
:104EA00080AA9DED100BB7EEC00B55F095FF0AEEF2
:104EB000C0AAB7EECA0AB0EE48AB0CEE00AB9DED4F
:104EC000100BB7EEC00B55F087FFB0EE408A9DED9A
:104ED000140BB7EEC00B55F0C7FF28EE008A9DED0E
:104EE000120BB7EEC00B55F0BFFFF0EE408A9DED00
:104EF000140BB7EEC00B55F06FFF68EE808A9DED86
:104F0000100BB7EEC00B55F0AFFF08EE808AB7EE7E
:104F1000C80A954890ED001BB0EE082B21EE021B4D
:104F200020EE010BB0EE001B80EE01CBB0EE080BC3
:104F300055F03AFA8C4890ED001B20EE01DB9DED18
:104F4000140BB7EEC00B55F08FFFB0EE408A9DED0D
:104F5000100BB7EEC00B55F087FF28EE008A9DEDD1
:104F6000120BB7EEC00B55F07FFFF0EE408A9DEDBF
:104F7000140BB7EEC00B55F02FFF68EE808A9DED45
:104F8000100BB7EEC00B55F027FF08EEC08AB7EE46
:104F9000C80A2DEE000BB0EE001B80EE012B3CEE9C
:104FA00042CBB0EE080B55F0FFF99DED0E1BB0EEB5
:104FB000002B21EE028B6D4890ED001B00EE418B23
:104FC0009DED120BB7EEC00B55F006FFB7EEC00A11
:104FD000654890ED001B20EE01DB9DED100BB7EE58
:104FE000C00B55F041FFB7EEC00A0DEE408BB0EE9E
:104FF000080B55F0D9F95C4890ED001B20EE01DB61
:105000009DED120BB7EEC00B55F0E6FEB7EEC00AF1
:105010002DEE00DB9DED100BB7EEC00B55F0DCFE66
:10502000B7EEC00A0DEE008B2CEE088B9DED120B37
:10503000B7EEC00B55F0D0FEB7EEC00A4A4890ED6F
:10504000001BB0EE082B21EE021B20EE01CB9DEDE4
:10505000100BB7EEC00B55F007FFB7EEC00A2CEEF1
:10506000000BB0EE001B80EE01CBB0EE080B55F04C
:105070009BF93D4890ED001B20EE01DB9DED120BEE
:10508000B7EEC00B55F0A8FEB7EEC00A2DEE00DB60
:105090009DED100BB7EEC00B55F09EFEB7EEC00AAB
:1050A0002DEE000BB0EE001B80EE012B3CEE020B50
:1050B00088EE001B3AEE010B1FEDDF1B30EE410BBB
:1050C0008DED080BB0EE001B9DED080B54F0F0FCCD
:1050D0008BEE001B39EE010BB7EE001B30EE010B1F
:1050E0008DED1C0B9DED140BB7EEC00B55F074FE4F
:1050F000B0EE408A9DED100BB7EEC00B55F06CFE84
:1051000028EE008A9DED140BB7EEC00B55F0ACFEF7
:10511000F0EE408A9DED120BB7EEC00B55F0A4FEE9
:1051200068EE808A9DED100BB7EEC00B55F09CFE2B
:1051300008EEC08AB7EEC82A0C4890ED000B9DED32
:105140000C1BB0EE003B13EE010B074890ED001B6B
:10515000B0EE409B01EE029B9DED140BB7EEC00B31
:1051600055F03AFE04E0000068BB050870BB050876
:10517000B0EE408A9DED100BB7EEC00B55F02CFE43
:1051800028EE008A9DED140BB7EEC00B55F06CFEB7
:10519000F0EE408A9DED120BB7EEC00B55F064FEA9
:1051A00068EE808A9DED100BB7EEC00B55F05CFEEB
:1051B00008EEC08AB7EEC82AFE4890ED000BB0EEAC
:1051C000081B20EE010B22EE000BB0EE001B80EE60
:1051D00001ABB0EE080B55F0E7F8F64890ED001B78
:1051E00020EE01BB9DED140BB7EEC00B55F0F4FDA6
:1051F000B0EE408A9DED100BB7EEC00B55F034FEBB
:1052000068EE008A9DED100BB7EEC00B55F0E4FD83
:10521000B0EE408A9DED140BB7EEC00B55F024FEA6
:1052200028EE008A9DED120BB7EEC00B55F01CFE68
:1052300048EE008AB7EEE80A2BEE000BB0EE001B3A
:1052400080EE012B3AEE42ABB0EE080B55F0ACF815
:105250009DED0E1BB0EE002B21EE028BD64890ED9B
:10526000001B00EE418B9DED120BB7EEC00B55F00D
:10527000B3FDB7EEC00ACF4890ED001B20EE01BB96
:105280009DED100BB7EEC00B55F0EEFDB7EEC00A6A
:105290000BEE408BB0EE080B55F086F8C54890ED4C
:1052A000001B20EE01BB9DED120BB7EEC00B55F0BD
:1052B00093FDB7EEC00A2BEE00BB9DED100BB7EED1
:1052C000C00B55F089FDB7EEC00A0BEE008B2AEE3D
:1052D000088B9DED120BB7EEC00B55F07DFDB7EEC0
:1052E000C01AB44890ED000BB0EE082B20EE020B74
:1052F00021EE00AB9DED100BB7EEC00B55F0B4FDE9
:10530000B7EEC00A2AEE000BB0EE001B80EE01AB38
:10531000B0EE080B55F048F8A64890ED001B20EEC3
:1053200001BB9DED120BB7EEC00B55F055FDB7EE6E
:10533000C00A2BEE00BB9DED100BB7EEC00B55F075
:105340004BFDB7EEC00A2BEE000BB0EE001B80EE5B
:10535000012B3AEE020B88EE001B39EE019BB0EEFA
:10536000080B55F021F8934890ED001B20EE01AB9F
:105370009DED140BB7EEC00B55F02EFDB0EE408A3C
:105380009DED100BB7EEC00B55F06EFD28EE008AB8
:105390009DED100BB7EEC00B55F01EFDF0EE408AF0
:1053A0009DED140BB7EEC00B55F05EFD68EE808AE4
:1053B0009DED120BB7EEC00B55F056FD08EE808A3E
:1053C000B7EEC80A0AEE009B9FED7C0B29EE00ABFE
:1053D0009DED100BB7EEC00B55F0FEFCB0EE408A11
:1053E0009DED140BB7EEC00B55F03EFD28EE008A84
:1053F0009DED140BB7EEC00B55F0EEFCF0EE408ABD
:105400009DED120BB7EEC00B55F02EFD68EE808AB5
:105410009DED100BB7EEC00B55F026FD08EE808A0F
:10542000B7EEC81A634890ED000B21EE009B9DED8E
:105430000A0BB0EE001B01EE009B9DED100BB7EECA
:10544000C00B55F0C9FCB0EE408A9DED140BB7EED1
:10545000C00B55F009FD68EE008A9DED140BB7EE08
:10546000C00B55F0B9FCB0EE408A9DED120BB7EEC3
:10547000C00B55F0F9FC28EE008A9DED100BB7EE3D
:10548000C00B55F0F1FC48EE008AB7EEE80A494837
:1054900090ED001BB0EE082B21EE021B20EE010B5D
:1054A000B0EE001B80EE01BBB0EE080B54F07CFFA9
:1054B000404890ED001B20EE01CB9DED140BB7EEA4
:1054C000C00B55F0D1FCB0EE408A9DED100BB7EE4D
:1054D000C00B55F0C9FC68EE008A9DED140BB7EEC9
:1054E000C00B55F079FCB0EE408A9DED100BB7EE85
:1054F000C00B55F071FC28EE008A9DED120BB7EE43
:10550000C00B55F0B1FC48EE408AB7EEE80A2CEE2D
:10551000000BB0EE001B80EE012B3BEE42BBB0EE69
:10552000080B54F041FF9DED0E1BB0EE002B21EE59
:10553000028B214890ED001B00EE418B9DED120B7C
:10554000B7EEC00B55F048FCB7EEC00A194890ED15
:10555000001B20EE01CB9DED100BB7EEC00B55F0FC
:1055600083FCB7EEC00A0CEE408BB0EE080B54F093
:105570001BFF104890ED001B20EE01CB9DED120BA0
:10558000B7EEC00B55F028FCB7EEC00A2CEE00CBEE
:105590009DED100BB7EEC00B55F01EFCB7EEC00A28
:1055A0000CEE008B2BEE088B9DED120BB7EEC00BB3
:1055B00008E0000068BB050870BB0508000000009B
:1055C0000000444055F008FCB7EEC00AFE4890EDDC
:1055D000001BB0EE082B21EE021B20EE01BB9DED5F
:1055E000100BB7EEC00B55F03FFCB7EEC00A2BEE28
:1055F000000BB0EE001B80EE01BBB0EE080B54F0C8
:10560000D3FEF14890ED001B20EE01CB9DED120B77
:10561000B7EEC00B55F0E0FBB7EEC00A2CEE00CBA6
:105620009DED100BB7EEC00B55F0D6FBB7EEC00AE0
:105630002CEE000BB0EE001B80EE012B3BEE020BBC
:1056400088EE001B39EE019BB0EE080B54F0ACFE67
:10565000DD4890ED001B20EE01BB9DED140BB7EE75
:10566000C00B55F001FCB0EE408A9DED100BB7EE7B
:10567000C00B55F0F9FB28EE008A9DED140BB7EE38
:10568000C00B55F0A9FBF0EE408A9DED100BB7EE74
:10569000C00B55F0A1FB68EE808A9DED120BB7EEB2
:1056A000C00B55F0E1FB08EEC08AB7EEC80A0BEE5E
:1056B000009B1FED3E0B39EE401B8AEE010BC348E9
:1056C00090ED001B30EE419B9DED140BB7EEC00B2F
:1056D00055F082FBB0EE408A9DED100BB7EEC00B8B
:1056E00055F07AFB28EE008A9DED140BB7EEC00B47
:1056F00055F0BAFBF0EE408A9DED120BB7EEC00BF1
:1057000055F0B2FB68EE808A9DED100BB7EEC00B32
:1057100055F0AAFB08EEC08AB7EEC82AAB4890ED58
:10572000000B9DED0C1BB0EE003B13EE010BA648E9
:1057300090ED001BB0EE40AB01EE02AB9DED140B03
:10574000B7EEC00B55F048FBB0EE408A9DED100B54
:10575000B7EEC00B55F040FB68EE008A9DED140BD0
:10576000B7EEC00B55F080FBB0EE408A9DED120BFA
:10577000B7EEC00B55F078FB28EE008A9DED100BBC
:10578000B7EEC00B55F070FB48EE408AB7EEE80A62
:105790008D4890ED001BB0EE082B21EE021B20EE91
:1057A000010BB0EE001B80EE01BBB0EE080B54F015
:1057B000FBFD854890ED001B20EE01CB9DED140B09
:1057C000B7EEC00B55F008FBB0EE408A9DED100B14
:1057D000B7EEC00B55F048FB28EE008A9DED100B8C
:1057E000B7EEC00B55F0F8FAF0EE408A9DED140BC1
:1057F000B7EEC00B55F038FB68EE808A9DED120BBA
:10580000B7EEC00B55F030FB08EE808AB7EEC80A41
:105810002CEE000BB0EE001B80EE012B3BEE42BBEA
:10582000B0EE080B54F0C0FD9DED0E1BB0EE002B4A
:1058300021EE028B654890ED001B00EE418B9DED43
:10584000120BB7EEC00B55F0C7FAB7EEC01A5E48A0
:1058500090ED000B21EE00CB9DED100BB7EEC00BD1
:1058600055F002FBB7EEC00A0CEE408BB0EE080B11
:1058700054F09AFD544890ED001B20EE01CB9DEDB5
:10588000120BB7EEC00B55F0A7FAB7EEC00A2CEE1C
:1058900000CB9DED100BB7EEC00B55F09DFAB7EEA7
:1058A000C00A0CEE008B2BEE088B9DED120BB7EEB1
:1058B000C00B55F091FAB7EEC01A434890ED002B9B
:1058C000B0EE080B22EE000B21EE00BB9DED100B9D
:1058D000B7EEC00B55F0C8FAB7EEC00A2BEE000BBE
:1058E000B0EE001B80EE01BBB0EE080B54F05CFD87
:1058F000354890ED001B20EE01CB9DED120BB7EE6D
:10590000C00B55F069FAB7EEC00A2CEE00CB9DED46
:10591000100BB7EEC00B55F05FFAB7EEC00A2CEED5
:10592000000BB0EE001B80EE012B3BEE020B88EE6D
:10593000001B3AEE01ABB0EE080B54F035FD2248E7
:1059400090ED001B20EE01BB9DED140BB7EEC00BDC
:1059500055F042FAB0EE408A9DED100BB7EEC00B49
:1059600055F082FA28EE008A9DED100BB7EEC00BC1
:1059700055F032FAF0EE408A9DED140BB7EEC00BF5
:1059800055F072FA68EE808A9DED120BB7EEC00BEF
:1059900055F06AFA08EE808AB7EEC80A0BEE00AB43
:1059A000B0EE000B2AEE00BB9DED120BB7EEC00B64
:1059B00055F012FAB7EEC00A034890ED001B20EE36
:1059C000018B9DED100B03E068BB050870BB05085B
:1059D000B7EEC00B55F048FAB7EEC00A28EE000B40
:1059E000B0EE002B80EE021B9DED0E0B30EE418BD6
:1059F000B0EE080B54F0D8FCFE4890ED001B20EEF2
:105A000001AB9DED120BB7EEC00B55F0E5F9B7EE0B
:105A1000C00A2AEE00AB9DED100BB7EEC00B55F09F
:105A2000DBF9B7EEC00A2AEE000BB0EE001B80EEE9
:105A3000012B38EE020B8DED080BB0EE001B9DED37
:105A4000080B54F035F8B0EE40AB9DED140BB7EEFB
:105A5000C00B55F0C1F9B0EE408A9DED100BB7EECA
:105A6000C00B55F0B9F928EE008A9DED140BB7EE86
:105A7000C00B55F0F9F9F0EE408A9DED120BB7EE30
:105A8000C00B55F0F1F968EE808A9DED100BB7EE72
:105A9000C00B55F0E9F908EEC08AB7EEC80AD54840
:105AA00090ED001B20EE010BB0EE002B80EE021BF0
:105AB0009DED0C0B31EE00CBB0EE080B54F074FCF6
:105AC000CC4890ED001B20EE01DB9DED140BB7EEF2
:105AD000C00B55F081F9B0EE408A9DED100BB7EE8A
