:020000040800F2
:10000000483A0020AD020008551E0508F1C8010855
:10001000EB1B0508CD0800088180050800000000E2
:10002000000000000000000000000000536605080A
:10003000BB74010800000000F91F0508AD68050841
:10004000C7020008C7020008C7020008C70200086C
:10005000C7020008C7020008C7020008C70200085C
:10006000C7020008C7020008C7020008C70200084C
:10007000C7020008C7020008C7020008C70200083C
:10008000C7020008C7020008C7020008C70200082C
:10009000C7020008C7020008C7020008C70200081C
:1000A000C7020008C7020008C7020008C70200080C
:1000B000C70200083D6A05084D6A0508C702000826
:1000C000C7020008C7020008C7020008C7020008EC
:1000D000C7020008C7020008217F0508098005083B
:1000E0001B750108C702000800000000C7020008D5
:1000F000C70200086D6A0508C7020008C7020008A9
:10010000C7020008C70200085D6A0508C7020008A8
:10011000C7020008C7020008C7020008C70200089B
:10012000C7020008C7020008C7020008C70200088B
:10013000C7020008C7020008C7020008C70200087B
:1001400000000000000000000000000000000000AF
:10015000C7020008C7020008C7020008C70200085B
:10016000C7020008C7020008C7020008C70200084B
:10017000C7020008C7020008C7020008000000000C
:10018000C7020008C7020008C7020008C70200082B
:10019000C7020008C7020008C7020008C70200081B
:1001A000C7020008C7020008C7020008C70200080B
:1001B000C7020008C7020008C7020008C7020008FB
:1001C000C7020008C7020008C7020008C7020008EB
:1001D000C7020008C7020008C7020008C7020008DB
:1001E000C7020008C7020008C7020008C7020008CB
:1001F000C7020008C7020008C7020008C7020008BB
:10020000C7020008C7020008C7020008C7020008AA
:10021000C70200082D6A0508C7020008C7020008C7
:10022000C7020008C7020008C7020008000000005B
:10023000C7020008C702000800000000C70200084B
:10024000C7020008C7020008C7020008C70200086A
:10025000C7020008C7020008C7020008C70200085A
:10026000C7020008C7020008C7020008C70200084A
:10027000C7020008C7020008C7020008000000000B
:10028000C702000800000000C702000800000000CC
:1002900000000000C7020008DFF80CD000F072FA7E
:1002A000004800471DA10508483A0020064880473D
:1002B00006480047FEE7FEE7FEE7FEE7FEE7FEE74B
:1002C000FEE7FEE7FEE7FEE79969050899020008E8
:1002D0002DE9F05F0546002092469B46884606467B
:1002E000814640241BE0284641464746224600F00E
:1002F00069F853465A46C01A914110D31146184620
:10030000224600F050F82D1A67EB01084F462246AE
:100310000120002100F047F817EB00094E41201E94
:10032000A4F10104DFDC484631462A464346BDE8D5
:10033000F09F40EA01039B0703D009E008C9121FA0
:1003400008C0042AFAD203E011F8013B00F8013B8F
:10035000521EF9D27047D2B201E000F8012B491EBB
:10036000FBD270470022F6E710B513460A46044652
:100370001946FFF7F0FF204610BD30B50B46014689
:1003800000202022012409E021FA02F59D4205D334
:1003900003FA02F5491B04FA02F52844151EA2F1DE
:1003A0000102F1DC30BD202A04DB203A00FA02F120
:1003B000002070479140C2F1200320FA03F3194353
:1003C00090407047202A04DB203A21FA02F00021F5
:1003D000704721FA02F3D040C2F120029140084355
:1003E000194670472DE9FE4F804681EA0300C00F91
:1003F0000C46009021F0004123F00045B8EB0200CC
:10040000A94105D24046214690461C460B4602466D
:1004100023F00040104347D0270DC7F30A00C3F371
:100420000A510290401A019040286BDAC3F313007E
:1004300040F4801B0098924620B10023D2EB030ABF
:1004400063EB0B0B01985946C0F140025046FFF791
:10045000AAFF06460D4650465946019A00F0A4F9F7
:1004600010EB08006141002487EA115284EAE77327
:100470001A4340D0009A62B3019A012A4FEA075208
:1004800015DC001B61EB02014FF0004202EA07524B
:10049000CDE90042001C41F5801132462B4600F0A8
:1004A000A4F903B0BDE8F08F40462146F9E7001BF0
:1004B00061EB0201001C41F5801300185B4120181C
:1004C000A2F5001747EB030140EAD570B6196D415C
:1004D00011E06D084FEA360645EAC0754FEA07524B
:1004E000001B61EB0201001C41F5801149084FEA35
:1004F00030000019514132462B4603B0BDE8F04FA1
:1005000000F064B90098012240000023D0EB020201
:1005100063EBE073009821464FEAE074B8EB00000B
:1005200061EB0401E9E783F000435BE781F0004100
:1005300058E72DE9FE4F81EA030404F0004421F05E
:10054000004100944FF0000B23F0004350EA0104F7
:100550005ED052EA03045BD0C3F30A54C1F30A55D8
:100560002C44A4F2F3340194A0FB0254C1F3130110
:1005700041F48011C3F3130343F4801301FB0244DD
:1005800000FB034E840A970A44EA815447EA8357E2
:10059000A4FB076802958D0A05FB07854FEA932C9B
:1005A00004FB0C542705029D4FEA065847EA16370C
:1005B000B5EB08056EEB070C870E920E47EA811724
:1005C00042EA8312A7FB0201B6EB0B0164EB0004C5
:1005D0002B0D43EA0C335E1844EB1C50DA465146AF
:1005E000E7FB0201C5F313044FEA0B3343EA14534C
:1005F0004FEA0432019C43EA0603A4F10C0402947E
:10060000009CCDE900B400F0F0F803B0BDE8F08F35
:1006100000200146F9E72DE9F04D81EA030404F0DA
:10062000004B21F0004514464FF0000A23F0004132
:1006300050EA050220D054EA01021DD0C5F30A5742
:100640000246C5F31303C1F31300C1F30A5640F485
:10065000801543F48013A7EB0608101BD64608F25A
:10066000FD3873EB050002D308F1010801E0921890
:100670005B41B8F1000F03DA00200146BDE8F08DC0
:1006800000204FF48011064684460EE0171B73EBE2
:10069000050705D3121B63EB050306434CEA010C67
:1006A00049084FEA300092185B4150EA0107EDD14A
:1006B00052EA030012D082EA040083EA05010843EB
:1006C00005D0101BAB4106D20122002306E0002218
:1006D0004FF0004302E06FF0010253101AEB0600E6
:1006E0004CEB085110EB0A0041EB0B01BDE8F04D5B
:1006F00000F06CB870B521F0004303430CD0C1F397
:100700000A550024D5EB040564EB0403D617AD1A93
:10071000B34102DB0020014670BD201841EB0251BD
:1007200070BDC1F30A52C1F3130140F2FF3341F42B
:1007300080119A4202DA00200146704740F23343AA
:100740009A42A2F2334202DC5242FFF73BBEFFF76D
:100750002ABE000030B5041E71F1000404DB4FF026
:100760000044404264EB0101141E73F1000405DBF8
:100770001C464FF00043524263EB0403994208BF0A
:10078000904230BD064C074D06E0E06840F00103A2
:1007900094E8070098471034AC42F6D3FFF780FD89
:1007A00044AE050864AE0508202A06DBCB17203AC4
:1007B00041FA02F043EAE07306E041FA02F3D04066
:1007C000C2F12002914008431946704710B5141E2B
:1007D00073F1000408DA401C41F1000192185B41FA
:1007E0001A4301D120F0010010BD2DE9F04D9246D1
:1007F0009B4611B1B1FA81F202E0B0FA80F22032E8
:100800009046FFF7D0FD04460F4640EA0A0041EA51
:100810000B0153465A46084313D0114653EA0100D0
:1008200019D0C8F140025046FFF7CCFD05460E46F0
:10083000504659464246FFF7B6FD084305D0012011
:1008400004E020463946BDE8F08D0020054346EA25
:10085000E0762C4337430A986305E40AA0EB0800CE
:100860000022FD0A44EA47540A3002D5002001461E
:10087000E9E7010510196941DDE9084500196941F9
:10088000BDE8F04DA2E7000010B50446012C0AD1E6
:10089000012281030B4819F0ABF8012208210A4814
:1008A00019F0A6F80DE000224FF48041054819F038
:1008B0009FF800220821044819F09AF8002051F00E
:1008C0001FFA10BD000402580008025800BFFEE7DE
:1008D0000FB410B52DED108BB4B09DED460B8DED22
:1008E000140B9DED480B8DED120B9DED4A0B8DED1C
:1008F000100B9DED4C0B8DED0E0B9DED4E0B8DED0C
:100900000C0B9DED500B8DED0A0B9DED140BB7EE0E
:10091000C00B58F041FFB0EE408A9DED100BB7EED2
:10092000C00B58F039FF28EE008A9DED140BB7EE8E
:10093000C00B58F079FFF0EE408A9DED120BB7EE38
:10094000C00B58F071FF68EE808A9DED100BB7EE7A
:10095000C00B58F069FF08EEC08AB7EEC81A9DEDCB
:100960000C0BB0EE002B20EE020BFE4890ED002B9E
:10097000B0EE003B03EE020BFB4890ED002BB0EE17
:10098000003B22EE032BB0EE409B02EE419B9DED1F
:10099000140BB7EEC00B58F0FFFEB0EE408A9DED91
:1009A000100BB7EEC00B58F03FFF28EE008A9DED0C
:1009B000100BB7EEC00B58F0EFFEF0EE408A9DED45
:1009C000140BB7EEC00B58F02FFF68EE808A9DED38
:1009D000120BB7EEC00B58F027FF08EE808AB7EE77
:1009E000C88A9DED120BB7EEC00B58F0D5FEB7EEDE
:1009F000C00ADD4890ED001BB0EE002B21EE021B7B
:100A000020EE01AB9DED100BB7EEC00B58F00CFFC4
:100A1000B7EEC00A2AEE001B9DED0E0BB0EE002BC8
:100A200002EE001B28EE01AB9DED120BB7EEC00BE2
:100A300058F0B2FEB0EE408A9DED100BB7EEC00B41
:100A400058F0AAFE28EE000AB7EEC00A8AEE001B94
:100A500039EE410B8DED080BB0EE001B9DED080B40
:100A600057F006FDB0EE40AB9DED100BB7EEC00B9E
:100A700058F092FEB0EE408A9DED140BB7EEC00B1D
:100A800058F0D2FE28EE008A9DED120BB7EEC00B97
:100A900058F0CAFEF0EE408A9DED140BB7EEC00B85
:100AA00058F07AFE68EE808A9DED100BB7EEC00B11
:100AB00058F0BAFE08EE808AB7EEC80AAA4890ED50
:100AC000001BB0EE002B21EE021B20EE019B9DEDE2
:100AD0000A0BB0EE001B01EE409B9DED140BB7EE30
:100AE000C00B58F0A1FEB0EE408A9DED100BB7EEA2
:100AF000C00B58F099FE68EE008A9DED120BB7EE20
:100B0000C00B58F091FEB0EE408A9DED140BB7EE8D
:100B1000C00B58F041FE28EE008A9DED100BB7EE99
:100B2000C00B58F039FE48EE408AB7EEE88A9DEDDA
:100B3000120BB7EEC00B58F02FFEB7EEC00A8A4872
:100B400090ED001BB0EE002B21EE021B20EE01BB4E
:100B50009DED100BB7EEC00B58F066FEB7EEC00A65
:100B60002BEE001B9DED0E0BB0EE002B02EE001BDA
:100B700028EE01BB9DED120BB7EEC00B58F00CFE3A
:100B8000B0EE408A9DED100BB7EEC00B58F004FE9E
:100B900028EE000AB7EEC00A8BEE001B39EE010BFF
:100BA0009FED721B30EE010B8DED080BB0EE001BBC
:100BB0009DED080B57F05CFC8AEE009BB0EE080B35
:100BC00058F0D2F8684890ED001B20EE01AB9DED87
:100BD000140BB7EEC00B58F027FEB0EE408A9DED27
:100BE000100BB7EEC00B58F01FFE28EE008A9DEDEB
:100BF000140BB7EEC00B58F0CFFDF0EE408A9DED20
:100C0000100BB7EEC00B58F0C7FD68EE808A9DED63
:100C1000120BB7EEC00B58F007FE08EEC08AB7EE15
:100C2000C80A2AEE00AB9DED140BB7EEC00B58F0CE
:100C3000B3FDB0EE408A9DED100BB7EEC00B58F03F
:100C4000ABFD68EE008A9DED140BB7EEC00B58F0BB
:100C5000EBFDB0EE408A9DED120BB7EEC00B58F0E5
:100C6000E3FD28EE008A9DED100BB7EEC00B58F0A7
:100C7000DBFD48EE408AB7EEE81A9DED0C0BB0EEB6
:100C8000002B20EE020B374890ED002BB0EE003B1E
:100C900003EE020B344890ED002BB0EE003B22EE49
:100CA000032BB0EE40BB02EE41BB9DED140BB7EE43
:100CB000C00B58F071FDB0EE408A9DED100BB7EE01
:100CC000C00B58F0B1FD68EE008A9DED100BB7EE39
:100CD000C00B58F061FDB0EE408A9DED140BB7EEED
:100CE000C00B58F0A1FD28EE008A9DED120BB7EE67
:100CF000C00B58F099FD48EE008AB7EEE88A9DEDEA
:100D0000120BB7EEC00B58F047FDB7EEC00A1648FD
:100D100090ED001BB0EE002B21EE021B20EE01CB6C
:100D20009DED100BB7EEC00B58F07EFDB7EEC00A7C
:100D30002CEE001B9DED0E0BB0EE002B02EE001B07
:100D400028EE01CB9DED120BB7EEC00B58F024FD41
:100D5000B0EE408A9DED100BB7EEC00B58F01CFDB5
:100D600008E0000048A5050840A5050800000000AF
:100D70000000444028EE000AB7EEC00A8CEE001BCB
:100D80003BEE410B2AEE00AB9DED100BB7EEC00B16
:100D900058F002FDB0EE408A9DED140BB7EEC00B8B
:100DA00058F042FD28EE008A9DED140BB7EEC00B03
:100DB00058F0F2FCF0EE408A9DED120BB7EEC00B3E
:100DC00058F032FD68EE808A9DED100BB7EEC00B37
:100DD00058F02AFD08EE808AB7EEC80AFE4890ED6A
:100DE000001BB0EE002B21EE021B20EE01BB9DED9F
:100DF0000A0BB0EE001B01EE40BB9DED140BB7EEED
:100E0000C00B58F011FDB0EE408A9DED100BB7EE0F
:100E1000C00B58F009FD28EE008A9DED140BB7EECB
:100E2000C00B58F0B9FCF0EE408A9DED100BB7EE08
:100E3000C00B58F0B1FC68EE808A9DED120BB7EE46
:100E4000C00B58F0F1FC08EEC08AB7EEC88A9DEDE1
:100E5000120BB7EEC00B58F09FFCB7EEC00ADE488D
:100E600090ED001BB0EE002B21EE021B20EE01CB1B
:100E70009DED100BB7EEC00B58F0D6FCB7EEC00AD4
:100E80002CEE000B9DED0E1BB0EE002B02EE010BC5
:100E900028EE00CB9DED120BB7EEC00B58F07CFC9A
:100EA000B0EE408A9DED100BB7EEC00B58F074FC0D
:100EB00028EE000AB7EEC00A8CEE001B3BEE010BD9
:100EC0001FED561B30EE010B8AEE00BBB0EE080B97
:100ED00057F04AFFC04890ED001B20EE01AB9DED9E
:100EE000140BB7EEC00B58F057FCB0EE408A9DEDE6
:100EF000100BB7EEC00B58F097FC28EE008A9DED62
:100F0000100BB7EEC00B58F047FCF0EE408A9DED99
:100F1000140BB7EEC00B58F087FC68EE808A9DED8D
:100F2000120BB7EEC00B58F07FFC08EE808AB7EECC
:100F3000C81AB0EE4B0B0AEE010B8DED080BB0EEAC
:100F4000001B9DED080B57F093FAB0EE408BB0EE0E
:100F5000001BA14890ED000B57F08AFAB0EE081B79
:100F600020EE01AB9DED120BB7EEC00B58F014FC58
:100F7000B7EEC00A8DED080BB0EE001B9DED080B1F
:100F800057F076FA2AEE00AB9DED100BB7EEC00BD2
:100F900058F002FCB7EEC00A8DED080BB0EE001B56
:100FA0009DED080B57F064FA2AEE000B88EE001B4B
:100FB00039EE010BB7EE001B30EE010B8DED1C0B73
:100FC0009DED140BB7EEC00B58F0E6FBB0EE408A77
:100FD0009DED100BB7EEC00B58F0DEFB28EE008A3B
:100FE0009DED140BB7EEC00B58F01EFCF0EE408ADE
:100FF0009DED120BB7EEC00B58F016FC68EE808A20
:101000009DED100BB7EEC00B58F00EFC08EEC08A39
:10101000B7EEC81A9DED0C0BB0EE002B20EE020BC4
:101020006E4890ED002BB0EE003B03EE020B6A48D9
:1010300090ED002BB0EE003B22EE032BB0EE409B78
:1010400002EE419B9DED140BB7EEC00B58F0A4FBD4
:10105000B0EE408A9DED100BB7EEC00B58F0E4FBEC
:1010600028EE008A9DED100BB7EEC00B58F094FBF4
:10107000F0EE408A9DED140BB7EEC00B58F0D4FB98
:1010800068EE808A9DED120BB7EEC00B58F0CCFBDA
:1010900008EE808AB7EEC88A9DED120BB7EEC00B42
:1010A00058F07AFBB7EEC00A4B4890ED001BB0EE4B
:1010B000002B21EE021B20EE01AB9DED100BB7EED5
:1010C000C00B58F0B1FBB7EEC00A2AEE001B9DED35
:1010D0000E0BB0EE002B02EE001B28EE01AB9DEDD7
:1010E000120BB7EEC00B58F057FBB0EE408A9DEDE7
:1010F000100BB7EEC00B58F04FFB28EE000AB7EE0E
:10110000C00A8AEE001B39EE410B1FEDE81B20EEF2
:10111000019B9DED100BB7EEC00B58F03DFBB0EE00
:10112000408A9DED140BB7EEC00B58F07DFB28EE06
:10113000008A9DED140BB7EEC00B58F02DFBF0EEBE
:10114000408A9DED120BB7EEC00B58F06DFB68EEB8
:10115000808A9DED100BB7EEC00B58F065FB08EED2
:10116000808AB7EEC80A1C4890ED001BB0EE002B39
:1011700021EE021B20EE01AB9DED0A0BB0EE001B31
:1011800001EE40AB9DED140BB7EEC00B58F04CFBDD
:10119000B0EE408A9DED100BB7EEC00B58F044FB4B
:1011A00028EE008A9DED140BB7EEC00B58F0F4FA50
:1011B000F0EE408A9DED100BB7EEC00B58F0ECFA44
:1011C00068EE808A9DED120BB7EEC00B58F02CFB39
:1011D00008EEC08A04E0000040A5050848A50508FF
:1011E000B7EEC88A9DED120BB7EEC00B58F0D4FADB
:1011F000B7EEC00AFE4890ED001BB0EE002B21EECA
:10120000021B20EE01BB9DED100BB7EEC00B58F09A
:101210000BFBB7EEC00A2BEE001B9DED0E0BB0EEE4
:10122000002B02EE001B28EE01BB9DED120BB7EE6A
:10123000C00B58F0B1FAB0EE408A9DED100BB7EE3E
:10124000C00B58F0A9FA28EE000AB7EEC00A8BEEE0
:10125000001B3AEE010B9FEDE71B30EE010B89EE10
:10126000008BE64890ED000BB0EE001B11EE008BFA
:101270009DED140BB7EEC00B58F08EFAB0EE409A0D
:101280009DED100BB7EEC00B58F086FA29EE009AD0
:101290009DED140BB7EEC00B58F0C6FAF0EE409A75
:1012A0009DED120BB7EEC00B58F0BEFA69EE809AB6
:1012B0009DED100BB7EEC00B58F0B6FA09EEC09AD0
:1012C000B7EEC91A9DED0C0BB0EE002B20EE020B11
:1012D000CA4890ED002BB0EE003B03EE020BC44871
:1012E00090ED002BB0EE003B22EE032BB0EE40ABB6
:1012F00002EE41AB9DED140BB7EEC00B58F04CFA6B
:10130000B0EE409A9DED100BB7EEC00B58F08CFA82
:1013100029EE009A9DED100BB7EEC00B58F03CFA89
:10132000F0EE409A9DED140BB7EEC00B58F07CFA2E
:1013300069EE809A9DED120BB7EEC00B58F074FA6F
:1013400009EE809AB7EEC99A9DED120BB7EEC00B6D
:1013500058F022FAB7EEC00AA54890ED001BB0EE97
:10136000002B21EE021B20EE01BB9DED100BB7EE12
:10137000C00B58F059FAB7EEC00A2BEE001B9DEDDA
:101380000E0BB0EE002B02EE001B29EE01BB9DED13
:10139000120BB7EEC00B58F0FFF9B0EE409A9DED7E
:1013A000100BB7EEC00B58F0F7F929EE000AB7EEB4
:1013B000C00A8BEE001B3AEE410BB0EE001B20EE94
:1013C000019B9DED140BB7EEC00B58F0E5F9B0EEA4
:1013D00040AA9DED100BB7EEC00B58F0DDF92AEED8
:1013E00000AA9DED140BB7EEC00B58F01DFAF0EEFD
:1013F00040AA9DED120BB7EEC00B58F015FA6AEE3D
:1014000080AA9DED100BB7EEC00B58F00DFA0AEE56
:10141000C0AAB7EECA1A9DED0C0B754890ED002BD3
:1014200002EE410B8DED080BB0EE001B9DED080B9D
:1014300057F01EF8B0EE40BB9DED100BB7EEC00BA1
:1014400058F0AAF9B0EE40AA9DED140BB7EEC00B10
:1014500058F0EAF92AEE00AA9DED140BB7EEC00B86
:1014600058F09AF9F0EE40AA9DED120BB7EEC00BC2
:1014700058F0DAF96AEE80AA9DED100BB7EEC00BBA
:1014800058F0D2F90AEE80AAB7EECA1A9DED0A0BFF
:10149000574890ED002B02EE410B8DED080BB0EE9E
:1014A000001B9DED080B56F0E3FF3BEE00AB9DEDFE
:1014B000120BB7EEC00B58F06FF9B7EEC00A4C48EC
:1014C00090ED001B20EE01BB9DED100BB7EEC00BA5
:1014D00058F0AAF9B7EEC01A9DED0E0B0BEE010BFA
:1014E0008DED080BB0EE001B9DED080B56F0C0FF14
:1014F0003AEE00ABB0EE001B404890ED000B56F00A
:10150000B7FF3AEE40AB3E4890ED000B8DED080B77
:10151000B0EE001B9DED080B56F0AAFF3AEE40BB63
:10152000B0EE001B374890ED000B56F0A1FFB0EE77
:10153000001B01EE00BBB0EE080B57F015FCB0EE3F
:1015400040CBB0EE080B57F00FFCB3EE041B20EEBF
:10155000010B274890ED001B20EE01DB9DED140BE5
:10156000B7EEC00B58F060F9B0EE40AA9DED100B3D
:10157000B7EEC00B58F058F92AEE00AA9DED140BF7
:10158000B7EEC00B58F008F9F0EE40AA9DED100B35
:10159000B7EEC00B58F000F96AEE80AA9DED120B71
:1015A000B7EEC00B58F040F90AEEC0AAB7EECA0A6F
:1015B0002DEE00DBB0EE080B57F0D6FB0C4890ED9B
:1015C000001B20EE010B0D4890ED001B20EE01EBFF
:1015D0009DED140BB7EEC00B58F0DEF8B0EE40AA4C
:1015E0009DED100BB7EEC00B58F01EF90CE000009B
:1015F00040A50508000000000000444048A505087B
:101600008807002050A505082AEE00AA9DED100BC2
:10161000B7EEC00B58F0C0F8F0EE40AA9DED140BE9
:10162000B7EEC00B58F000F96AEE80AA9DED120BE0
:10163000B7EEC00B58F0F8F80AEE80AAB7EECA0A67
:101640000EEE40DB2CEE0DAB9DED120BB7EEC00B9A
:1016500058F0A2F8B7EEC00AFE4890ED001BB0EEBD
:10166000002B21EE021B20EE01CB9DED100BB7EEFF
:10167000C00B58F0D9F8B7EEC00A2CEE001B9DED58
:101680000E0BB0EE002B02EE001B2AEE01AB9DED1F
:10169000120BB7EEC00B58F07FF8B7EEC00AED485A
:1016A00090ED001BB0EE082B21EE021B20EE01CBCB
:1016B0009DED100BB7EEC00B58F06EF8B7EEC00AF8
:1016C0002CEE000B8AEE001B3BEE410B9FEDE21B64
:1016D00030EE410B29EE00AB9DED100BB7EEC00BC9
:1016E00058F05AF8B0EE409A9DED140BB7EEC00BCF
:1016F00058F09AF829EE009A9DED120BB7EEC00B48
:1017000058F092F8F0EE409A9DED140BB7EEC00B36
:1017100058F042F869EE809A9DED100BB7EEC00BC1
:1017200058F082F809EE809AB7EEC90AC94890EDE0
:10173000001BB0EE002B21EE021B20EE01BB9DED45
:101740000A0BB0EE001B01EE40BB9DED140BB7EE93
:10175000C00B58F069F8B0EE409A9DED100BB7EE53
:10176000C00B58F061F829EE009A9DED120BB7EE10
:10177000C00B58F059F8F0EE409A9DED140BB7EEFF
:10178000C00B58F009F869EE809A9DED100BB7EE8A
:10179000C00B58F001F809EEC09AB7EEC99A9DED5A
:1017A000120BB7EEC00B57F0F7FFB7EEC00AA9480F
:1017B00090ED001BB0EE002B21EE021B20EE01CBC2
:1017C0009DED100BB7EEC00B58F02EF8B7EEC00A27
:1017D0002CEE001B9DED0E0BB0EE002B02EE001B5D
:1017E00029EE01CB9DED120BB7EEC00B57F0D4FFE5
:1017F000B0EE409A9DED100BB7EEC00B57F0CCFF4A
:1018000029EE000AB7EEC00A8CEE001B3BEE010B7E
:101810001FED881B30EE010B8DED080BB0EE001BA9
:101820009DED080B56F024FE8AEE001B38EE410BAE
:101830008DED1E0BB0EE080B57F096FA854890ED33
:10184000001B20EE019B9DED140BB7EEC00B57F073
:10185000EBFFB0EE408A9DED100BB7EEC00B57F0DA
:10186000E3FF28EE008A9DED140BB7EEC00B57F096
:1018700093FFF0EE408A9DED100BB7EEC00B57F0D2
:101880008BFF68EE808A9DED120BB7EEC00B57F010
:10189000CBFF08EEC08AB7EEC80A29EE009B9DED8B
:1018A000140BB7EEC00B57F077FFB0EE408A9DEDFA
:1018B000100BB7EEC00B57F06FFF28EE008A9DEDBE
:1018C000140BB7EEC00B57F0AFFFF0EE408A9DED62
:1018D000120BB7EEC00B57F0A7FF68EE808A9DEDA4
:1018E000100BB7EEC00B57F09FFF08EEC08AB7EEA3
:1018F000C81A9DED0C0BB0EE002B20EE020B5848E1
:1019000090ED002BB0EE003B03EE020B514890ED42
:10191000002BB0EE003B22EE032BB0EE40AB02EE0C
:1019200041AB9DED140BB7EEC00B57F035FFB0EE99
:10193000408A9DED100BB7EEC00B57F075FF28EEF7
:10194000008A9DED100BB7EEC00B57F025FFF0EEAF
:10195000408A9DED140BB7EEC00B57F065FF68EEA3
:10196000808A9DED120BB7EEC00B57F05DFF08EEBD
:10197000808AB7EEC88A9DED120BB7EEC00B57F008
:101980000BFFB7EEC00A334890ED001BB0EE002B02
:1019900021EE021B20EE01BB9DED100BB7EEC00B3C
:1019A00057F042FFB7EEC00A2BEE001B9DED0E0B69
:1019B000B0EE002B02EE001B28EE01BB9DED120BDA
:1019C000B7EEC00B57F0E8FEB0EE408A9DED100B6D
:1019D000B7EEC00B57F0E0FE28EE000AB7EEC00AE3
:1019E0008BEE001B3AEE410B29EE009B9DED100B98
:1019F000B7EEC00B57F0D0FEB0EE408A9DED140B51
:101A0000B7EEC00B57F010FF28EE008A9DED140BC7
:101A1000B7EEC00B57F0C0FEF0EE408A9DED120B02
:101A2000B7EEC00B57F000FF68EE808A9DED100BFB
:101A3000B7EEC00B57F0F8FE08EE808AB7EEC80A82
:101A4000044890ED002BB0EE001B22EE011B20EEAF
:101A500001AB07E040A50508000000000000794048
:101A600048A505089DED0A0BB0EE001B01EE40AB4A
:101A70009DED140BB7EEC00B57F0D6FEB0EE408ACA
:101A80009DED100BB7EEC00B57F0CEFE68EE008A4E
:101A90009DED140BB7EEC00B57F07EFEB0EE408A02
:101AA0009DED100BB7EEC00B57F076FE28EE008AC6
:101AB0009DED120BB7EEC00B57F0B6FE48EE408A14
:101AC000B7EEE88A9DED120BB7EEC00B57F064FE3F
:101AD000B7EEC00AFE4890ED001BB0EE002B21EEE1
:101AE000021B20EE01BB9DED100BB7EEC00B57F0B3
:101AF0009BFEB7EEC00A2BEE000B9DED0E1BB0EE69
:101B0000002B02EE010B28EE00BB9DED120BB7EE91
:101B1000C00B57F041FEB0EE408A9DED100BB7EEC2
:101B2000C00B57F039FE28EE000AB7EEC00A8BEE64
:101B3000001B3AEE010B9FEDE71B30EE010B89EE27
:101B400000ABB0EE080B57F00FF9E14890ED001B29
:101B500020EE019B9DED140BB7EEC00B57F01CFE61
:101B6000B0EE408A9DED100BB7EEC00B57F05CFE57
:101B700028EE008A9DED100BB7EEC00B57F00CFE5F
:101B8000F0EE408A9DED140BB7EEC00B57F04CFE03
:101B900068EE808A9DED120BB7EEC00B57F044FE45
:101BA00008EE808AB7EEC80A09EE00ABB0EE000B73
:101BB0002AEE009BB0EE080B57F0D6F8B3EE041BEC
:101BC00020EE010BC24890ED001B20EE01AB9DED15
:101BD000140BB7EEC00B57F027FEB0EE408A9DED18
:101BE000100BB7EEC00B57F01FFE28EE008A9DEDDC
:101BF000140BB7EEC00B57F0CFFDF0EE408A9DED11
:101C0000100BB7EEC00B57F0C7FD68EE808A9DED54
:101C1000120BB7EEC00B57F007FE08EEC08AB7EE06
:101C2000C80A2AEE00ABB0EE080B57F09DF8A848A2
:101C300090ED001B20EE010BA84890ED001B20EE5C
:101C400001BB9DED140BB7EEC00B57F0A5FDB0EE38
:101C5000408A9DED100BB7EEC00B57F0E5FD28EE66
:101C6000008A9DED100BB7EEC00B57F095FDF0EE1E
:101C7000408A9DED140BB7EEC00B57F0D5FD68EE12
:101C8000808A9DED120BB7EEC00B57F0CDFD08EE2C
:101C9000808AB7EEC80AB0EE4A8B0BEE408BB0EEEE
:101CA000080B57F061F88A4890ED001B20EE01BB4D
:101CB0009DED140BB7EEC00B57F0B6FDB0EE40AA89
:101CC0009DED100BB7EEC00B57F0AEFD2AEE00AA4B
:101CD0009DED140BB7EEC00B57F05EFDF0EE40AA81
:101CE0009DED100BB7EEC00B57F056FD6AEE80AAC3
:101CF0009DED120BB7EEC00B57F096FD0AEEC0AA91
:101D0000B7EECA0A2BEE00AB9DED140BB7EEC00B7D
:101D100057F042FDB0EE40BA9DED100BB7EEC00B90
:101D200057F03AFD2BEE00BA9DED140BB7EEC00B49
:101D300057F07AFDF0EE40BA9DED120BB7EEC00BF6
:101D400057F072FD6BEE80BA9DED100BB7EEC00B35
:101D500057F06AFD0BEEC0BAB7EECB1A9DED0C0B37
:101D60005B4890ED002B02EE410B8DED080BB0EEC1
:101D7000001B9DED080B56F07BFBB0EE40CB9DEDBC
:101D8000100BB7EEC00B57F007FDB0EE40BA9DED5B
:101D9000140BB7EEC00B57F047FD2BEE00BA9DEDCC
:101DA000140BB7EEC00B57F0F7FCF0EE40BA9DED08
:101DB000120BB7EEC00B57F037FD6BEE80BA9DEDFE
:101DC000100BB7EEC00B57F02FFD0BEE80BAB7EE3D
:101DD000CB1A9DED0A0B3E4890ED002B02EE410B15
:101DE0008DED080BB0EE001B9DED080B56F040FB8F
:101DF0003CEE00BB9DED120BB7EEC00B57F0CCFCD8
:101E0000B7EEC01A324890ED000B21EE00CB9DEDED
:101E1000100BB7EEC00B57F007FDB7EEC01A9DEDE3
:101E20000E0B0CEE010B8DED080BB0EE001B9DEDC3
:101E3000080B56F01DFB3BEE00BBB0EE001B274825
:101E400090ED000B56F014FB3BEE40BB244890EDA8
:101E5000000B8DED080BB0EE001B9DED080B56F04E
:101E600007FB3BEE40CBB0EE001B1E4890ED000B95
:101E700056F0FEFAB0EE001B01EE00CBB0EE080B00
:101E800056F072FFB0EE40DBB0EE080B56F06CFF80
:101E9000B3EE041B20EE010B0D4890ED001B20EE6D
:101EA00001EB9DED140BB7EEC00B57F0BDFCB0EE8F
:101EB00040BA9DED100BB7EEC00B57F0B5FC2BEE02
:101EC00000BA9DED140BB7EEC00B57F065FC0BE0AC
:101ED00040A50508000000000000444048A5050892
:101EE0008807002050A50508F0EE40BA9DED100BC4
:101EF000B7EEC00B57F050FC6BEE80BA9DED120BA5
:101F0000B7EEC00B57F090FC0BEEC0BAB7EECB0AA1
:101F10002EEE00EBB0EE080B56F026FFFE4890EDDB
:101F2000001B20EE010BFD4890ED001B20EE01FB95
:101F30009DED140BB7EEC00B57F02EFCB0EE40BA7F
:101F40009DED100BB7EEC00B57F06EFC2BEE00BAF8
:101F50009DED100BB7EEC00B57F01EFCF0EE40BA33
:101F60009DED140BB7EEC00B57F05EFC6BEE80BA24
:101F70009DED120BB7EEC00B57F056FC0BEE80BA7E
:101F8000B7EECB0A0FEE40EB2DEE0EBB9DED120B24
:101F9000B7EEC00B57F000FCB7EEC00ADE4890ED7C
:101FA000001BB0EE002B21EE021B20EE01DB9DEDAD
:101FB000100BB7EEC00B57F037FCB7EEC00A2DEE92
:101FC000001B9DED0E0BB0EE002B02EE001B2BEE66
:101FD00001BB9DED120BB7EEC00B57F0DDFBB7EE6A
:101FE000C00ACD4890ED001BB0EE082B21EE021B7D
:101FF00020EE01DB9DED100BB7EEC00B57F0CCFBD4
:10200000B7EEC00A2DEE000B8BEE001B3CEE410B31
:102010009FEDC31B30EE410B2AEE00BB9DED100B74
:10202000B7EEC00B57F0B8FBB0EE40AA9DED140B15
:10203000B7EEC00B57F0F8FB2AEE00AA9DED140B8B
:10204000B7EEC00B57F0A8FBF0EE40AA9DED120BC7
:10205000B7EEC00B57F0E8FB6AEE80AA9DED100BBF
:10206000B7EEC00B57F0E0FB0AEE80AAB7EECA1A33
:10207000A94890ED002BB0EE000B22EE000B21EEF4
:1020800000CB9DED0A0BB0EE001B01EE40CB9DEDA9
:10209000140BB7EEC00B57F0C7FBB0EE40AA9DED96
:1020A000100BB7EEC00B57F0BFFB2AEE00AA9DED58
:1020B000140BB7EEC00B57F06FFBF0EE40AA9DED8E
:1020C000100BB7EEC00B57F067FB6AEE80AA9DEDD0
:1020D000120BB7EEC00B57F0A7FB0AEEC0AAB7EE83
:1020E000CAAA9DED120BB7EEC00B57F055FBB7EE29
:1020F000C00A894890ED001BB0EE002B21EE021BB8
:1021000020EE01DB9DED100BB7EEC00B57F08CFB02
:10211000B7EEC00A2DEE001B9DED0E0BB0EE002BAE
:1021200002EE001B2AEE01DB9DED120BB7EEC00B99
:1021300057F032FBB0EE40AA9DED100BB7EEC00B8E
:1021400057F02AFB2AEE000AB7EEC01A8DEE010BFB
:102150003CEE000B1FEDA11B30EE010B8BEE001BC4
:1021600038EE010B29EE008BB0EE001B6A4890EDB3
:10217000000B56F07DF9B0EE081B20EE019B9DEDA3
:10218000120BB7EEC00B57F007FBB7EEC00A8DED90
:10219000080BB0EE001B9DED080B56F069F929EE17
:1021A000009B9DED100BB7EEC00B57F0F5FAB7EEA4
:1021B000C00A8DED080BB0EE001B9DED080B56F02C
:1021C00057F929EE000B88EE001B9DED1E0B30EE3B
:1021D000410B8DED1A0B9DED140BB7EEC00B57F0B4
:1021E000DBFAB0EE408A9DED100BB7EEC00B57F056
:1021F000D3FA28EE008A9DED140BB7EEC00B57F012
:1022000013FBF0EE408A9DED120BB7EEC00B57F0BA
:102210000BFB68EE808A9DED100BB7EEC00B57F0FC
:1022200003FB08EEC08AB7EEC81A9DED0C0B3A48C6
:1022300090ED002B02EE410B8DED080BB0EE001B74
:102240009DED080B56F014F9B0EE409B9DED100B80
:10225000B7EEC00B57F0A0FAB0EE408A9DED140B1C
:10226000B7EEC00B57F0E0FA68EE008A9DED140B54
:10227000B7EEC00B57F090FAB0EE408A9DED120B0E
:10228000B7EEC00B57F0D0FA28EE008A9DED100B88
:10229000B7EEC00B57F0C8FA48EE008AB7EEE81A5E
:1022A0009DED0A0B1C4890ED002B02EE410B8DEDCD
:1022B000080BB0EE001B9DED080B56F0D9F839EE77
:1022C000008B9DED120BB7EEC00B57F065FAB7EE21
:1022D000C00A114890ED001B20EE019B9DED100BF4
:1022E000B7EEC00B57F0A0FAB7EEC01A9DED0E0B7B
:1022F00009EE010B8DED080BB0EE001B9DED080BF8
:1023000056F0B6F838EE008BB0EE001B034890EDA7
:10231000000B56F0ADF807E040A5050848A50508F4
:10232000000000000000794038EE408BFE4890ED40
:10233000000B8DED080BB0EE001B9DED080B56F069
:1023400097F838EE409BB0EE001BF84890ED000B7C
:1023500056F08EF8B0EE001B01EE009BB0EE080BBD
:1023600056F002FDB0EE40ABB0EE080B56F0FCFCB0
:10237000B3EE041B20EE010BED4890ED001B20EEA8
:1023800001BB9DED140BB7EEC00B57F04DFAB0EE4C
:10239000408A9DED100BB7EEC00B57F045FA68EE82
:1023A000008A9DED140BB7EEC00B57F0F5F9B0EEB7
:1023B000408A9DED100BB7EEC00B57F0EDF928EEFB
:1023C000008A9DED120BB7EEC00B57F02DFA48EEC8
:1023D000408AB7EEE80A2BEE00BBB0EE080B56F0D1
:1023E000C3FCD34890ED001B20EE010BD14890EDCB
:1023F000001B20EE01CB9DED140BB7EEC00B57F088
:10240000CBF9B0EE408A9DED100BB7EEC00B57F044
:102410000BFA68EE008A9DED100BB7EEC00B57F07B
:10242000BBF9B0EE408A9DED140BB7EEC00B57F030
:10243000FBF928EE008A9DED120BB7EEC00B57F0AA
:10244000F3F948EE008AB7EEE80A0CEE40BB2AEE3C
:102450000B8B9DED120BB7EEC00B57F09DF9B7EE4D
:10246000C00AB34890ED001BB0EE002B21EE021B1A
:1024700020EE01AB9DED100BB7EEC00B57F0D4F979
:10248000B7EEC00A2AEE001B9DED0E0BB0EE002B3E
:1024900002EE001B28EE018B9DED120BB7EEC00B78
:1024A00057F07AF9B7EEC00AA14890ED001BB0EEE4
:1024B000082B21EE021B20EE01AB9DED100BB7EEB9
:1024C000C00B57F069F9B7EEC00A2AEE000B88EE90
:1024D000001B39EE410B1FED6E1B30EE410B9FEDE3
:1024E000961B20EE01AB9DED100BB7EEC00B57F025
:1024F00053F9B0EE408A9DED140BB7EEC00B57F0C8
:1025000093F968EE008A9DED140BB7EEC00B57F0FF
:1025100043F9B0EE408A9DED120BB7EEC00B57F0B9
:1025200083F928EE008A9DED100BB7EEC00B57F033
:102530007BF948EE008AB7EEE80A7D4890ED001B73
:10254000B0EE002B21EE021B20EE019B9DED0A0B4D
:10255000B0EE001B01EE409B9DED140BB7EEC00BDF
:1025600057F062F9B0EE408A9DED100BB7EEC00B4C
:1025700057F05AF968EE008A9DED140BB7EEC00BC8
:1025800057F00AF9B0EE408A9DED100BB7EEC00B84
:1025900057F002F928EE008A9DED120BB7EEC00B42
:1025A00057F042F948EE408AB7EEE88A9DED120BEB
:1025B000B7EEC00B57F0F0F8B7EEC00A5C4890EDEC
:1025C000001BB0EE002B21EE021B20EE01BB9DEDA7
:1025D000100BB7EEC00B57F027F9B7EEC00A2BEE81
:1025E000001B9DED0E0BB0EE002B02EE001B28EE43
:1025F00001BB9DED120BB7EEC00B57F0CDF8B0EE5E
:10260000408A9DED100BB7EEC00B57F0C5F828EED1
:10261000000AB7EEC00A8BEE001B39EE010B9FEDEE
:10262000461B30EE010B8AEE009B9DED140BB7EEBE
:10263000C00B57F0B1F8B0EE408A9DED100BB7EE2D
:10264000C00B57F0A9F828EE008A9DED140BB7EEE9
:10265000C00B57F0E9F8F0EE408A9DED120BB7EE93
:10266000C00B57F0E1F868EE808A9DED100BB7EED5
:10267000C00B57F0D9F808EEC08AB7EEC81A9DED26
:102680000C0B2B4890ED002B02EE410B8DED060B51
:10269000B0EE001B9DED060B55F0EAFEB0EE40AB30
:1026A0009DED100BB7EEC00B57F076F8B0EE408AF8
:1026B0009DED140BB7EEC00B57F0B6F828EE008A6C
:1026C0009DED140BB7EEC00B57F066F8F0EE408AA4
:1026D0009DED120BB7EEC00B57F0A6F868EE808A9E
:1026E0009DED100BB7EEC00B57F09EF808EE808AF8
:1026F000B7EEC81A9DED0A0B0D4890ED002B02EEC7
:10270000410B8DED060BB0EE001B9DED060B55F059
:10271000AFFE3AEE008B9DED120BB7EEC00B57F0FB
:102720003BF8B7EEC00A0BE08807002050A505086B
:1027300040A5050848A50508000000000000444029
:10274000FE4890ED001B20EE01AB9DED100BB7EEA7
:10275000C00B57F069F8B7EEC01A9DED0E0B0AEEEC
:10276000010B8DED060BB0EE001B9DED060B55F039
:102770007FFE38EE008BB0EE001BF14890ED000BB1
:1027800055F076FE38EE408BEE4890ED000B8DED67
:10279000060BB0EE001B9DED060B55F069FE38EE02
:1027A00040ABB0EE001BE84890ED000B55F060FE2A
:1027B000B0EE001B01EE00ABB0EE080B56F0D4FA01
:1027C000B0EE40BBB0EE080B56F0CEFAB3EE041BF1
:1027D00020EE010BD94890ED001B20EE01CB9DEDC2
:1027E000140BB7EEC00B57F01FF8B0EE408A9DED0A
:1027F000100BB7EEC00B57F017F868EE008A9DED8E
:10280000140BB7EEC00B56F0C7FFB0EE408A9DED3B
:10281000100BB7EEC00B56F0BFFF28EE008A9DEDFF
:10282000120BB7EEC00B56F0FFFF48EE408AB7EE32
:10283000E80A2CEE00CBB0EE080B56F095FABF4834
:1028400090ED001B20EE010BBD4890ED001B20EE2B
:1028500001DB9DED140BB7EEC00B56F09DFFB0EE03
:10286000408A9DED100BB7EEC00B56F0DDFF28EE51
:10287000008A9DED100BB7EEC00B56F08DFFF0EE09
:10288000408A9DED140BB7EEC00B56F0CDFF68EEFD
:10289000808A9DED120BB7EEC00B56F0C5FF08EE17
:1028A000808AB7EEC80A0DEE40CB2BEE0C8B9DED67
:1028B000120BB7EEC00B56F06FFFB7EEC00A9F4881
:1028C00090ED001BB0EE002B21EE021B20EE01BBB1
:1028D0009DED100BB7EEC00B56F0A6FFB7EEC00A89
:1028E0002BEE001B9DED0E0BB0EE002B02EE001B3D
:1028F00028EE018B9DED120BB7EEC00B56F04CFF8E
:10290000B7EEC00A8D4890ED001BB0EE082B21EE0B
:10291000021B20EE01BB9DED100BB7EEC00B56F075
:102920003BFFB7EEC00A2BEE000B88EE001B3AEE21
:10293000410B9FED861B30EE410B8DED080BB0EE89
:10294000001B9DED080B55F093FDB0EE40AB9DEDE7
:10295000100BB7EEC00B56F01FFFB0EE408A9DED96
:10296000140BB7EEC00B56F05FFF28EE008A9DED0A
:10297000120BB7EEC00B56F057FFF0EE408A9DEDFC
:10298000140BB7EEC00B56F007FF68EE808A9DED82
:10299000100BB7EEC00B56F047FF08EE808AB7EE7B
:1029A000C80A664890ED001BB0EE002B21EE021B1A
:1029B00020EE01BB9DED0A0BB0EE001B01EE40BB0B
:1029C0009DED140BB7EEC00B56F02EFFB0EE408A13
:1029D0009DED100BB7EEC00B56F026FF28EE008AD7
:1029E0009DED120BB7EEC00B56F01EFFF0EE408AC5
:1029F0009DED140BB7EEC00B56F0CEFE68EE808A4C
:102A00009DED100BB7EEC00B56F0C6FE08EEC08A67
:102A1000B7EEC88A9DED120BB7EEC00B56F0BCFEA8
:102A2000B7EEC00A454890ED001BB0EE002B21EE3A
:102A3000021B20EE01CB9DED100BB7EEC00B56F044
:102A4000F3FEB7EEC00A2CEE001B9DED0E0BB0EEB0
:102A5000002B02EE001B28EE01CB9DED120BB7EE12
:102A6000C00B56F099FEB0EE408A9DED100BB7EE0C
:102A7000C00B56F091FE28EE000AB7EEC00A8CEEAD
:102A8000001B3BEE010B1FEDD41B30EE010B8DED57
:102A9000080BB0EE001B9DED080B55F0E9FC8AEE2B
:102AA000001B39EE018BB0EE001B254890ED000BAA
:102AB00055F0DEFC38EE008BB0EE001B224890EDA6
:102AC000000B55F0D5FC38EE409BB0EE080B56F0ED
:102AD0004BF9B3EE041B20EE010B184890ED001BE0
:102AE00020EE01AB9DED140BB7EEC00B56F09CFE33
:102AF000B0EE408A9DED100BB7EEC00B56F094FE81
:102B000028EE008A9DED140BB7EEC00B56F044FE84
:102B1000F0EE408A9DED100BB7EEC00B56F03CFE78
:102B200068EE808A9DED120BB7EEC00B56F07CFE6E
:102B300008EEC08AB7EEC80A0CE0000040A5050800
:102B400048A505088807002050A5050800000000DA
:102B5000000079402AEE00ABB0EE080B56F004F905
:102B6000FE4890ED001B20EE010BFD4890ED001B90
:102B700020EE01BB9DED140BB7EEC00B56F00CFE22
:102B8000B0EE408A9DED100BB7EEC00B56F04CFE38
:102B900028EE008A9DED100BB7EEC00B56F0FCFD41
:102BA000F0EE408A9DED140BB7EEC00B56F03CFEE4
:102BB00068EE808A9DED120BB7EEC00B56F034FE26
:102BC00008EE808AB7EEC80AB0EE4A8B0BEE408B57
:102BD000B0EE080B56F0C8F8E04890ED001B20EE70
:102BE00001BB9DED140BB7EEC00B56F01DFEB0EE11
:102BF00040AA9DED100BB7EEC00B56F015FE2AEE65
:102C000000AA9DED140BB7EEC00B56F0C5FDF0EE1B
:102C100040AA9DED100BB7EEC00B56F0BDFD6AEE5D
:102C200080AA9DED120BB7EEC00B56F0FDFD0AEE2B
:102C3000C0AAB7EECA0A2BEE00AB9DED140BB7EE9F
:102C4000C00B56F0A9FDB0EE40BA9DED100BB7EEEB
:102C5000C00B56F0A1FD2BEE00BA9DED140BB7EEA4
:102C6000C00B56F0E1FDF0EE40BA9DED120BB7EE51
:102C7000C00B56F0D9FD6BEE80BA9DED100BB7EE90
:102C8000C00B56F0D1FD0BEEC0BAB7EECB1A9DEDDE
:102C90000C0BB24890ED002B02EE410B8DED060BB4
:102CA000B0EE001B9DED060B55F0E2FBB0EE40CB05
:102CB0009DED100BB7EEC00B56F06EFDB0EE40BAB6
:102CC0009DED140BB7EEC00B56F0AEFD2BEE00BA27
:102CD0009DED140BB7EEC00B56F05EFDF0EE40BA62
:102CE0009DED120BB7EEC00B56F09EFD6BEE80BA59
:102CF0009DED100BB7EEC00B56F096FD0BEE80BAB3
:102D0000B7EECB1A9DED0A0B944890ED002B02EE26
:102D1000410B8DED060BB0EE001B9DED060B55F043
:102D2000A7FB3CEE00BB9DED120BB7EEC00B56F0BF
:102D300033FDB7EEC00A894890ED001B20EE01CBB1
:102D40009DED100BB7EEC00B56F06EFDB7EEC01A3E
:102D50009DED0E0B0CEE010B8DED060BB0EE001B86
:102D60009DED060B55F084FB3BEE00BBB0EE001B67
:102D70007B4890ED000B55F07BFB3BEE40BB794868
:102D800090ED000B8DED060BB0EE001B9DED060BDC
:102D900055F06EFB3BEE40CBB0EE001B724890ED61
:102DA000000B55F065FBB0EE001B01EE00CBB0EE62
:102DB000080B55F0D9FFB0EE40DBB0EE080B55F034
:102DC000D3FFB3EE041B20EE010B644890ED001B13
:102DD00020EE01EB9DED140BB7EEC00B56F024FD79
:102DE000B0EE40BA9DED100BB7EEC00B56F01CFDD7
:102DF0002BEE00BA9DED140BB7EEC00B56F0CCFCD9
:102E0000F0EE40BA9DED100BB7EEC00B56F0C4FCCF
:102E10006BEE80BA9DED120BB7EEC00B56F004FDC1
:102E20000BEEC0BAB7EECB0A2EEE00EBB0EE080BFD
:102E300055F09AFF494890ED001B20EE010B4848E1
:102E400090ED001B20EE01FB9DED140BB7EEC00BC7
:102E500056F0A2FCB0EE40BA9DED100BB7EEC00BE1
:102E600056F0E2FC2BEE00BA9DED100BB7EEC00B56
:102E700056F092FCF0EE40BA9DED140BB7EEC00B8D
:102E800056F0D2FC6BEE80BA9DED120BB7EEC00B84
:102E900056F0CAFC0BEE80BAB7EECB0A0FEE40EB51
:102EA0002DEE0EBB9DED120BB7EEC00B56F074FC71
:102EB000B7EEC00A294890ED001BB0EE002B21EEC2
:102EC000021B20EE01DB9DED100BB7EEC00B56F0A0
:102ED000ABFCB7EEC00A2DEE001B9DED0E0BB0EE65
:102EE000002B02EE001B2BEE01BB9DED120BB7EE8B
:102EF000C00B56F051FCB7EEC00A184890ED001B0D
:102F0000B0EE082B21EE021B20EE01DB9DED100B35
:102F1000B7EEC00B56F040FCB7EEC00A2DEE000B2A
:102F20008BEE001B3CEE410B1FEDF81B30EE410B0E
:102F30002AEE00BB9DED100BB7EEC00B56F02CFC3B
:102F4000B0EE40AA9DED140BB7EEC00B56F06CFC32
:102F50006AEE00AA9DED140B08E0000040A50508EC
:102F600048A505088807002050A50508B7EEC00B46
:102F700056F012FCB0EE40AA9DED120BB7EEC00B5E
:102F800056F052FC2AEE00AA9DED100BB7EEC00BD6
:102F900056F04AFC4AEE00AAB7EEEA0AFE4890ED67
:102FA000001BB0EE002B21EE021B20EE01CB9DEDAD
:102FB0000A0BB0EE001B01EE40CB9DED140BB7EEFB
:102FC000C00B56F031FCB0EE40AA9DED100BB7EEF1
:102FD000C00B56F029FC6AEE00AA9DED140BB7EE6B
:102FE000C00B56F0D9FBB0EE40AA9DED100BB7EE2A
:102FF000C00B56F0D1FB2AEE00AA9DED120BB7EEE6
:10300000C00B56F011FC4AEE40AAB7EEEAAA9DEDBD
:10301000120BB7EEC00B56F0BFFBB7EEC00ADE488E
:1030200090ED001BB0EE002B21EE021B20EE01DB29
:103030009DED100BB7EEC00B56F0F6FBB7EEC00AD5
:103040002DEE001B9DED0E0BB0EE002B02EE001BD3
:103050002AEE01DB9DED120BB7EEC00B56F09CFB88
:10306000B0EE40AA9DED100BB7EEC00B56F094FBEE
:103070002AEE000AB7EEC00A8DEE001B3CEE010BF3
:103080009FEDC61B30EE010B8BEE001B38EE010BE3
:103090008DED080BB0EE001B9DED080B55F0E8F927
:1030A000B0EE408BB0EE001BBB4890ED000B55F02E
:1030B000DFF9B0EE081B20EE01AB9DED120BB7EE71
:1030C000C00B56F069FBB7EEC00A8DED080BB0EEF1
:1030D000001B9DED080B55F0CBF92AEE00AB9DEDE2
:1030E000100BB7EEC00B56F057FBB7EEC00A8DEDD4
:1030F000080BB0EE001B9DED080B55F0B9F92AEE58
:10310000000B88EE001B39EE010B9FEDA61B30EE85
:10311000010B8DED180BB0EE001B9DED1A0B55F059
:10312000A7F99DED1C1BB1EE002B21EE022B9DEDAE
:10313000181B02EE410B8DED160B9DED160BB5EE37
:10314000C00BF1EE10FA7CDDB6EE001B9DED160B08
:1031500055F08EF99DED1A1BB1EE411B31EE401B6F
:103160009DED1C0BB0EE002B20EE020B81EE002B30
:103170008E4880ED022BB0EE080B55F0F5FDB0EE59
:10318000408BB0EE080B55F0EFFDB3EE041B20EEC4
:10319000010B814890ED001B20EE01AB9DED140B5F
:1031A000B7EEC00B56F040FBB0EE409A9DED100B11
:1031B000B7EEC00B56F038FB29EE009A9DED140BCC
:1031C000B7EEC00B56F0E8FAF0EE409A9DED100B0A
:1031D000B7EEC00B56F0E0FA69EE809A9DED120B47
:1031E000B7EEC00B56F020FB09EEC09AB7EEC90A45
:1031F0002AEE00ABB0EE080B55F0B6FD664890ED38
:10320000001B20EE010B6A4890ED001B20EE01BB75
:103210009DED140BB7EEC00B56F0BEFAB0EE409A1F
:103220009DED100BB7EEC00B56F0FEFA29EE009A9A
:103230009DED100BB7EEC00B56F0AEFAF0EE409AD3
:1032400000E0FDE39DED140BB7EEC00B56F0ECFA79
:1032500069EE809A9DED120BB7EEC00B56F0E4FAC2
:1032600009EE809AB7EEC90AB0EE4A9B0BEE409B7E
:10327000B0EE080B55F078FD474890ED001B20EEAE
:1032800001BB9DED140BB7EEC00B56F0CDFAB0EEBE
:1032900040AA9DED100BB7EEC00B56F0C5FA2AEE12
:1032A00000AA9DED140BB7EEC00B56F075FAF0EEC8
:1032B00040AA9DED100BB7EEC00B56F06DFA6AEE0A
:1032C00080AA9DED120BB7EEC00B56F0ADFA0AEED8
:1032D000C0AAB7EECA0A2BEE00AB9DED140BB7EEF9
:1032E000C00B56F059FAB0EE40BA9DED100BB7EE98
:1032F000C00B56F051FA2BEE00BA9DED140BB7EE51
:10330000C00B56F091FAF0EE40BA9DED120BB7EEFD
:10331000C00B56F089FA6BEE80BA9DED100BB7EE3C
:10332000C00B56F081FA0BEEC0BAB7EECB1A9DED8A
:103330000C0B194890ED002B02EE410B8DED080BA4
:10334000B0EE001B9DED080B55F092F8B0EE40CBAF
:103350009DED100BB7EEC00B56F01EFAB0EE40BA62
:103360009DED140BB7EEC00B56F05EFA6BEE00BA93
:103370009DED140BB7EEC00B56F00EFAB0EE40BA4E
:103380009DED120BB7EEC00B56F04EFA2BEE00BAC5
:103390009DED100B0EE0000040A5050800000000A8
:1033A000000044400000000000007940700A002046
:1033B00048A50508B7EEC00B56F036FA4BEE00BA3A
:1033C000B7EEEB1A9DED0A0BFE4890ED002B02EED6
:1033D000410B8DED080BB0EE001B9DED080B55F079
:1033E00047F83CEE00BB9DED120BB7EEC00B56F05C
:1033F000D3F9B7EEC00AF34890ED001B20EE01CBE5
:103400009DED100BB7EEC00B56F00EFAB7EEC01ADA
:103410009DED0E0B0CEE010B8DED080BB0EE001BBD
:103420009DED080B55F024F83BEE00BBB0EE001B01
:10343000E54890ED000B55F01BF83BEE40BBE34830
:1034400090ED000B8DED080BB0EE001B9DED080B11
:1034500055F00EF83BEE40CBB0EE001BDC4890ED93
:10346000000B55F005F8B0EE001B01EE00CBB0EEFE
:10347000080B55F079FCB0EE40DBB0EE080B55F0D0
:1034800073FCB3EE041B20EE010BCE4890ED001B45
:1034900020EE01EB9DED140BB7EEC00B56F0C4F916
:1034A000B0EE40BA9DED100BB7EEC00B56F0BCF974
:1034B0002BEE00BA9DED140BB7EEC00B56F06CF975
:1034C000F0EE40BA9DED100BB7EEC00B56F064F96C
:1034D0006BEE80BA9DED120BB7EEC00B56F0A4F95F
:1034E0000BEEC0BAB7EECB0A2EEE00EBB0EE080B37
:1034F00055F03AFCB34890ED001B20EE010BB248AA
:1035000090ED001B20EE01FB9DED140BB7EEC00B00
:1035100056F042F9B0EE40BA9DED100BB7EEC00B7D
:1035200056F082F92BEE00BA9DED100BB7EEC00BF2
:1035300056F032F9F0EE40BA9DED140BB7EEC00B29
:1035400056F072F96BEE80BA9DED120BB7EEC00B20
:1035500056F06AF90BEE80BAB7EECB0A0FEE40EBED
:103560002DEE0EBB9DED120BB7EEC00B56F014F90D
:10357000B7EEC00A934890ED001BB0EE002B21EE91
:10358000021B20EE01DB9DED100BB7EEC00B56F0D9
:103590004BF9B7EEC00A2DEE001B9DED0E0BB0EE01
:1035A000002B02EE001B2BEE01BB9DED120BB7EEC4
:1035B000C00B56F0F1F8B7EEC00A824890ED001B40
:1035C000B0EE082B21EE021B20EE01DB9DED100B6F
:1035D000B7EEC00B56F0E0F8B7EEC00A2DEE000BC8
:1035E0008BEE001B3CEE410B1FED921B30EE410BAE
:1035F0002AEE00BB9DED100BB7EEC00B56F0CCF8D9
:10360000B0EE40AA9DED140BB7EEC00B56F00CF9CE
:103610006AEE00AA9DED140BB7EEC00B56F0BCF895
:10362000B0EE40AA9DED120BB7EEC00B56F0FCF8C1
:103630002AEE00AA9DED100BB7EEC00B56F0F4F881
:103640004AEE00AAB7EEEA0A5E4890ED002BB0EE13
:10365000001B22EE011B20EE01CB9DED0A0BB0EE0C
:10366000001B01EE40CB9DED140BB7EEC00B56F0E6
:10367000DBF8B0EE40AA9DED100BB7EEC00B56F094
:10368000D3F86AEE00AA9DED140BB7EEC00B56F00E
:1036900083F8B0EE40AA9DED100BB7EEC00B56F0CC
:1036A0007BF82AEE00AA9DED120BB7EEC00B56F088
:1036B000BBF84AEE40AAB7EEEAAA9DED120BB7EEB0
:1036C000C00B56F069F8B7EEC00A3E4890ED001BFB
:1036D000B0EE002B21EE021B20EE01DB9DED100B66
:1036E000B7EEC00B56F0A0F8B7EEC00A2DEE001BE7
:1036F0009DED0E0BB0EE002B02EE001B2AEE01DB5F
:103700009DED120BB7EEC00B56F046F8B0EE40AA96
:103710009DED100BB7EEC00B56F03EF82AEE000AF6
:10372000B7EEC00A8DEE001B3CEE010B1FEDE51B52
:1037300030EE010B8BEE001B39EE010B28EE008BF7
:103740009DED120BB7EEC00B56F026F8B7EEC00A8F
:103750001C4890ED001BB0EE082B21EE021B20EE62
:10376000019B9DED100BB7EEC00B56F015F8B7EEB0
:10377000C00A29EE000B88EE009BB0EE080B55F056
:10378000F3FA144890ED021B20EE01ABB0EE080BEB
:1037900055F0EAFA0B4890ED001B20EE01BB9DEDC1
:1037A000140BB7EEC00B56F03FF8B0EE408A9DED1B
:1037B000100BB7EEC00B56F037F828EE008A9DEDDF
:1037C000140B09E040A5050848A505088807002056
:1037D00050A50508700A0020B7EEC00B55F0DCFFBD
:1037E000F0EE408A9DED100BB7EEC00B55F0D4FF04
:1037F00068EE808A9DED120BB7EEC00B56F014F800
:1038000008EEC08AB7EEC80A2BEE00BB9DED140B84
:10381000B7EEC00B55F0C0FFB0EE408A9DED100B27
:10382000B7EEC00B55F0B8FF68EE008A9DED140BA3
:10383000B7EEC00B55F0F8FFB0EE408A9DED120BCD
:10384000B7EEC00B55F0F0FF28EE008A9DED100B8F
:10385000B7EEC00B55F0E8FF48EE408AB7EEE81A25
:103860009DED0C0BB0EE002B20EE020BFE4890ED10
:10387000002BB0EE003B03EE020BFC4890ED002B5A
:10388000B0EE003B22EE032BB0EE40CB02EE41CB7C
:103890009DED140BB7EEC00B55F07EFFB0EE408AE5
:1038A0009DED100BB7EEC00B55F0BEFF28EE008A61
:1038B0009DED100BB7EEC00B55F06EFFF0EE408A99
:1038C0009DED140BB7EEC00B55F0AEFF68EE808A8D
:1038D0009DED120BB7EEC00B55F0A6FF08EE808AE7
:1038E000B7EEC88A9DED120BB7EEC00B55F054FF32
:1038F000B7EEC00ADD4890ED001BB0EE002B21EEC4
:10390000021B20EE01DB9DED100BB7EEC00B55F056
:103910008BFFB7EEC00A2DEE001B9DED0E0BB0EE37
:10392000002B02EE001B28EE01DB9DED120BB7EE23
:10393000C00B55F031FFB0EE408A9DED100BB7EE95
:10394000C00B55F029FF28EE000AB7EEC00A8DEE35
:10395000001B3CEE410B2BEE00BB9DED100BB7EEB8
:10396000C00B55F019FFB0EE408A9DED140BB7EE79
:10397000C00B55F059FF68EE008A9DED140BB7EEB1
:10398000C00B55F009FFB0EE408A9DED120BB7EE6B
:10399000C00B55F049FF28EE008A9DED100BB7EEE5
:1039A000C00B55F041FF48EE008AB7EEE80AAF4879
:1039B00090ED001BB0EE002B21EE021B20EE01CBA0
:1039C0009DED0A0BB0EE001B01EE40CB9DED140BFC
:1039D000B7EEC00B55F028FFB0EE408A9DED100BFE
:1039E000B7EEC00B55F020FF28EE008A9DED140BBA
:1039F000B7EEC00B55F0D0FEF0EE408A9DED100BF7
:103A0000B7EEC00B55F0C8FE68EE808A9DED120B34
:103A1000B7EEC00B55F008FF08EEC08AB7EEC88AB3
:103A20009DED120BB7EEC00B55F0B6FEB7EEC00A17
:103A30008E4890ED001BB0EE002B21EE021B00E043
:103A4000FEE320EE01DB9DED100BB7EEC00B55F051
:103A5000EBFEB7EEC00A2DEE001B9DED0E0BB0EE97
:103A6000002B02EE001B28EE01DB9DED120BB7EEE2
:103A7000C00B55F091FEB0EE408A9DED100BB7EEF5
:103A8000C00B55F089FE28EE000AB7EEC00A8DEE95
:103A9000001B3CEE010B9FED761B30EE010B8BEE15
:103AA00000CBB0EE080B55F05FF9704890ED001BAD
:103AB00020EE01BB9DED140BB7EEC00B55F06CFE74
:103AC000B0EE408A9DED100BB7EEC00B55F0ACFE8A
:103AD00068EE008A9DED100BB7EEC00B55F05CFE52
:103AE000B0EE408A9DED140BB7EEC00B55F09CFE76
:103AF00028EE008A9DED120BB7EEC00B55F094FE38
:103B000048EE008AB7EEE80A0BEE00CB2AEE0C8BEB
:103B10009DED120BB7EEC00B55F03EFEB7EEC00A9E
:103B2000524890ED001BB0EE082B21EE021B20EE58
:103B300001AB9DED100BB7EEC00B55F02DFEB7EEAF
:103B4000C00A2AEE001B88EE010B39EE400B4A48F2
:103B500080ED000B9DED140BB7EEC00B55F01CFE75
:103B6000B0EE408A9DED100BB7EEC00B55F014FE81
:103B700028EE008A9DED140BB7EEC00B55F054FEF5
:103B8000F0EE408A9DED120BB7EEC00B55F04CFEE7
:103B900068EE808A9DED100BB7EEC00B55F044FE29
:103BA00008EEC08AB7EEC81A9DED0C0BB0EE002BE4
:103BB00020EE020B2C4890ED002BB0EE003B03EE04
:103BC000020B2A4890ED002BB0EE003B22EE032BB7
:103BD000B0EE409B02EE419B9DED140BB7EEC00B87
:103BE00055F0DAFDB0EE408A9DED100BB7EEC00B3C
:103BF00055F01AFE28EE008A9DED100BB7EEC00BB3
:103C000055F0CAFDF0EE408A9DED140BB7EEC00BE7
:103C100055F00AFE68EE808A9DED120BB7EEC00BE0
:103C200055F002FE08EE808AB7EEC88A9DED120BB1
:103C3000B7EEC00B55F0B0FDB7EEC00A0B4890EDE3
:103C4000001BB0EE002B21EE021B20EE01AB9DED20
:103C5000100BB7EEC00B55F0E7FDB7EEC00A2AEE29
:103C6000001B9DED0E0B09E048A5050840A50508C1
:103C70000000000000004440700A0020B0EE002B5D
:103C800002EE001B28EE01AB9DED120BB7EEC00B50
:103C900055F082FDB0EE408A9DED100BB7EEC00BE3
:103CA00055F07AFD28EE000AB7EEC00A8AEE001B36
:103CB00039EE411BFE4890ED020B21EE00AB9DED6D
:103CC000100BB7EEC00B55F067FDB0EE408A9DEDCE
:103CD000140BB7EEC00B55F0A7FD28EE008A9DED42
:103CE000140BB7EEC00B55F057FDF0EE408A9DED7A
:103CF000120BB7EEC00B55F097FD68EE808A9DED74
:103D0000100BB7EEC00B55F08FFD08EE808AB7EEB2
:103D1000C80AE84890ED001BB0EE002B21EE021B14
:103D200020EE019B9DED0A0BB0EE001B01EE409BC7
:103D30009DED140BB7EEC00B55F076FDB0EE408A4A
:103D40009DED100BB7EEC00B55F06EFD28EE008A0E
:103D50009DED140BB7EEC00B55F01EFDF0EE408A42
:103D60009DED100BB7EEC00B55F016FD68EE808A86
:103D70009DED120BB7EEC00B55F056FD08EEC08A54
:103D8000B7EEC88A9DED120BB7EEC00B55F004FDDF
:103D9000B7EEC00AC74890ED001BB0EE002B21EE35
:103DA000021B20EE01BB9DED100BB7EEC00B55F0D2
:103DB0003BFDB7EEC00A2BEE001B9DED0E0BB0EEE7
:103DC000002B02EE001B28EE01BB9DED120BB7EE9F
:103DD000C00B55F0E1FCB0EE408A9DED100BB7EE44
:103DE000C00B55F0D9FC28EE000AB7EEC00A8BEEE6
:103DF000001B39EE010B1FED621B30EE010B8AEE4A
:103E0000009B9DED140BB7EEC00B55F0C5FCB0EE5A
:103E1000408A9DED100BB7EEC00B55F0BDFC28EEAF
:103E2000008A9DED140BB7EEC00B55F0FDFCF0EED3
:103E3000408A9DED120BB7EEC00B55F0F5FC68EE15
:103E4000808A9DED100BB7EEC00B55F0EDFC08EE2F
:103E5000C08AB7EEC81A9DED0C0B964890ED002B6A
:103E600002EE410B8DED080BB0EE001B9DED080B33
:103E700054F0FEFAB0EE40AB9DED100BB7EEC00B68
:103E800055F08AFCB0EE408A9DED140BB7EEC00BE6
:103E900055F0CAFC28EE008A9DED140BB7EEC00B5E
:103EA00055F07AFCF0EE408A9DED120BB7EEC00B98
:103EB00055F0BAFC68EE808A9DED100BB7EEC00B92
:103EC00055F0B2FC08EE808AB7EEC81A9DED0A0BD9
:103ED000784890ED002B02EE410B8DED080BB0EE13
:103EE000001B9DED080B54F0C3FA3AEE008B9DEDDC
:103EF000120BB7EEC00B55F04FFCB7EEC00A6D4881
:103F000090ED001B20EE01AB9DED100BB7EEC00B4A
:103F100055F08AFCB7EEC01A9DED0E0B0AEE010BB0
:103F20008DED080BB0EE001B9DED080B54F0A0FAD0
:103F300038EE008BB0EE001B5F4890ED000B54F0A4
:103F400097FA38EE408B5D4890ED000B8DED080B35
:103F5000B0EE001B9DED080B54F08AFA38EE40AB32
:103F6000B0EE001B564890ED000B54F081FAB0EE15
:103F7000001B01EE00ABB0EE080B54F0F5FEB0EE06
:103F800040BBB0EE080B54F0EFFEB3EE041B20EE86
:103F9000011B484890ED000B21EE00CB9DED140B6A
:103FA000B7EEC00B55F040FCB0EE408A9DED100B13
:103FB000B7EEC00B55F038FC68EE008A9DED140B8F
:103FC000B7EEC00B55F0E8FBB0EE408A9DED100B4C
:103FD000B7EEC00B55F0E0FB28EE008A9DED120B0A
:103FE000B7EEC00B55F020FC48EE408AB7EEE80A69
:103FF0002CEE00CBB0EE080B54F0B6FE2D4890ED41
:10400000001B20EE010B2C4890ED001B20EE01DB85
:104010009DED140BB7EEC00B55F0BEFBB0EE408A21
:104020009DED100BB7EEC00B55F0FEFB28EE008A9D
:104030009DED100BB7EEC00B55F0AEFBF0EE408AD5
:104040009DED140BB7EEC00B55F0EEFB68EE808AC9
:104050009DED120BB7EEC00B55F0E6FB08EE808A23
:10406000B7EEC80A0DEE40CB2BEE0C8B9DED120B7C
:10407000B7EEC00B55F090FBB7EEC00A0D4890EDBF
:10408000001BB0EE002B21EE021B20EE01BB9DEDCC
:10409000100BB7EEC00B55F0C7FBB7EEC00A2BEE06
:1040A000001B9DED0E0BB0EE002B02EE001B09E095
:1040B000700A002040A5050848A5050888070020CB
:1040C00050A5050828EE018B9DED120BB7EEC00B35
:1040D00055F062FBB7EEC00AFE4890ED001BB0EE53
:1040E000082B21EE021B20EE01BB9DED100BB7EE5D
:1040F000C00B55F051FBB7EEC00A2BEE000B88EE5B
:10410000001B3AEE410B9FEDF41B30EE41AB9DEDF1
:10411000100BB7EEC00B55F03FFBB0EE408A9DEDA3
:10412000140BB7EEC00B55F07FFB68EE008A9DEDD7
:10413000140BB7EEC00B55F02FFBB0EE408A9DED8F
:10414000120BB7EEC00B55F06FFB28EE008A9DED09
:10415000100BB7EEC00B55F067FB48EE008AB7EEC8
:10416000E80ADC4890ED001BB0EE002B21EE021BAC
:1041700020EE01BB9DED0A0BB0EE001B01EE40BB33
:104180009DED140BB7EEC00B55F04EFBB0EE408A20
:104190009DED100BB7EEC00B55F046FB28EE008AE4
:1041A0009DED140BB7EEC00B55F0F6FAF0EE408A19
:1041B0009DED100BB7EEC00B55F0EEFA68EE808A5D
:1041C0009DED120BB7EEC00B55F02EFB08EEC08A2A
:1041D000B7EEC88A9DED120BB7EEC00B55F0DCFAB6
:1041E000B7EEC00ABB4890ED001BB0EE002B21EEED
:1041F000021B20EE01CB9DED100BB7EEC00B55F06E
:1042000013FBB7EEC00A2CEE001B9DED0E0BB0EEBB
:10421000002B02EE001B28EE01CB9DED120BB7EE3A
:10422000C00B55F0B9FAB0EE408A9DED100BB7EE19
:10423000C00B55F0B1FA28EE000AB7EEC00A00E054
:104240000EE08CEE001B3BEE010B9FEDA51B30EE4C
:10425000010B8AEE001B39EE410BA34880ED040BE5
:10426000A24801212022CDE908104AA96846FCF79E
:1042700060F89D4C46A80FC894ED042B94ED021BEA
:1042800094ED000B12F002FA9DED100BB7EEC00B8F
:1042900055F082FAB0EE408A9DED140BB7EEC00BDC
:1042A00055F0C2FA28EE008A9DED140BB7EEC00B54
:1042B00055F072FAF0EE408A9DED120BB7EEC00B8E
:1042C00055F0B2FA68EE808A9DED100BB7EEC00B88
:1042D00055F0AAFA08EE808AB7EEC82A7D4890ED1C
:1042E000000BB0EE081B20EE010B22EE000BB0EE2F
:1042F000001B80EE019BB0EE080B54F035FD7548B5
:1043000090ED001B20EE01AB9DED140BB7EEC00B42
:1043100055F08AFAB0EE408A9DED100BB7EEC00B57
:1043200055F082FA28EE008A9DED140BB7EEC00B13
:1043300055F032FAF0EE408A9DED100BB7EEC00B4F
:1043400055F02AFA68EE808A9DED120BB7EEC00B8D
:1043500055F06AFA08EEC08AB7EEC80A2AEE000BDA
:10436000B0EE001B80EE012B39EE429B9DED140B4D
:10437000B7EEC00B55F010FAB0EE408A9DED100B71
:10438000B7EEC00B55F008FA28EE008A9DED140B2D
:10439000B7EEC00B55F048FAF0EE408A9DED120BD7
:1043A000B7EEC00B55F040FA68EE808A9DED100B19
:1043B000B7EEC00B55F038FA08EEC08AB7EEC82A3F
:1043C0004B4890ED000B9DED0C1BB0EE003B13EE47
:1043D000010B404890ED001BB0EE40AB01EE02AB8C
:1043E0009DED140BB7EEC00B55F0D6F9B0EE408A38
:1043F0009DED100BB7EEC00B55F0CEF928EE008AFC
:104400009DED140BB7EEC00B55F00EFAF0EE408A9E
:104410009DED120BB7EEC00B55F006FA68EE808AE0
:104420009DED100BB7EEC00B55F0FEF908EEC08AFB
:10443000B7EEC82A274890ED000BB0EE081B20EE1F
:10444000010B22EE000BB0EE001B80EE01BBB0EEC4
:10445000080B54F089FC1F4890ED001B20EE01CBA7
:104460009DED140BB7EEC00B55F096F9B0EE408AF7
:104470009DED100BB7EEC00B55F0D6F928EE008A73
:104480009DED100BB7EEC00B55F086F9F0EE408AAB
:104490009DED140BB7EEC00B55F0C6F968EE808A9F
:1044A0009DED120BB7EEC00B55F0BEF908EE808AF9
:1044B000B7EEC80A2CEE000BB0EE001B80EE012B0D
:1044C0003BEE42BBB0EE080B54F04EFC9DED0E1BD4
:1044D00010E0000040A50508000000000000794041
:1044E0000000000000004440700A0020100A002074
:1044F00048A50508B0EE002B21EE028BFE4890ED9A
:10450000001B00EE418B9DED120BB7EEC00B55F07A
:1045100043F9B7EEC00AF94890ED001B20EE01CB3D
:104520009DED100BB7EEC00B55F07EF9B7EEC00A4B
:104530000CEE408BB0EE080B54F016FCEF4890EDFB
:10454000001B20EE01CB9DED120BB7EEC00B55F01A
:1045500023F9B7EEC00A2CEE00CB9DED100BB7EEA1
:10456000C00B55F019F9B7EEC00A0CEE008B2BEE1C
:10457000088B9DED120BB7EEC00B55F00DF9B7EEA1
:10458000C00ADE4890ED001BB0EE082B21EE021BA6
:1045900020EE01BB9DED100BB7EEC00B55F044F9BA
:1045A000B7EEC00A2BEE000BB0EE001B80EE01BB95
:1045B000B0EE080B54F0D8FBD04890ED001B20EE75
:1045C00001CB9DED120BB7EEC00B55F0E5F8B7EE41
:1045D000C00A2CEE00CB9DED100BB7EEC00B55F0D2
:1045E000DBF8B7EEC00A2CEE000BB0EE001B80EE3D
:1045F000012B3BEE020B88EE001B3AEE01ABB0EE56
:10460000080B54F0B1FBBD4890ED001B20EE01BB40
:104610009DED140BB7EEC00B55F0BEF8B0EE408A1E
:104620009DED100BB7EEC00B55F0FEF868EE008A5A
:104630009DED100BB7EEC00B55F0AEF8B0EE408A12
:104640009DED140BB7EEC00B55F0EEF828EE008A86
:104650009DED120BB7EEC00B55F0E6F848EE008A60
:10466000B7EEE80A0BEE00AB29EE0A9B9DED100BAE
:10467000B7EEC00B55F090F8B0EE408A9DED140BEC
:10468000B7EEC00B55F0D0F828EE008A9DED140B64
:10469000B7EEC00B55F080F8F0EE408A9DED120B9E
:1046A000B7EEC00B55F0C0F868EE808A9DED100B98
:1046B000B7EEC00B55F0B8F808EE808AB7EEC81A0E
:1046C0008E4890ED000B21EE00AB9DED0A0BB0EE95
:1046D000001B01EE00AB9DED100BB7EEC00B55F0CB
:1046E0005BF8B0EE408A9DED140BB7EEC00B55F0B1
:1046F0009BF828EE008A9DED140BB7EEC00B55F029
:104700004BF8F0EE408A9DED120BB7EEC00B55F062
:104710008BF868EE808A9DED100BB7EEC00B55F05C
:1047200083F808EE808AB7EEC80A744890ED001B43
:10473000B0EE082B21EE021B20EE011BB0EE000BA9
:1047400081EE00BBB0EE080B54F00EFB6B4890ED11
:10475000001B20EE01CB9DED140BB7EEC00B55F006
:1047600063F8B0EE408A9DED100BB7EEC00B55F02C
:104770005BF828EE008A9DED140BB7EEC00B55F0E8
:104780000BF8F0EE408A9DED100BB7EEC00B55F024
:1047900003F868EE808A9DED120BB7EEC00B55F062
:1047A00043F808EEC08AB7EEC80A2CEE000BB0EE54
:1047B000001B80EE012B3BEE42BBB0EE080B54F029
:1047C000D3FA9DED0E1BB0EE002B21EE028B4A4872
:1047D00090ED001B00EE418B9DED120BB7EEC00B70
:1047E00054F0DAFFB7EEC00A444890ED001B20EE0B
:1047F00001CB9DED100BB7EEC00B55F015F8B7EEE1
:10480000C00A0CEE408BB0EE080B54F0ADFA3B48FA
:1048100090ED001B20EE01CB9DED120BB7EEC00B0F
:1048200054F0BAFFB7EEC00A2CEE00CB9DED100B92
:10483000B7EEC00B54F0B0FFB7EEC00A0CEE008B21
:104840002BEE088B9DED120BB7EEC00B54F0A4FFBE
:10485000B7EEC00A294890ED001BB0EE082B21EE00
:10486000021B20EE01BB9DED100BB7EEC00B54F008
:10487000DBFFB7EEC00A2BEE000BB0EE001B80EEA4
:1048800001BBB0EE080B54F06FFA1C4890ED001B12
:1048900020EE01CB9DED120BB7EEC00B54F07CFF68
:1048A000B7EEC00A2CEE00CB9DED100BB7EEC00B9F
:1048B00054F072FFB7EEC00A2CEE000BB0EE001BF6
:1048C00080EE012B3BEE020B88EE001B3AEE01ABB3
:1048D000B0EE080B54F048FA084890ED001B20EEAB
:1048E00001BB9DED140BB7EEC00B54F09DFFB0EE75
:1048F000408A9DED100B03E048A5050840A505087A
:10490000B7EEC00B54F090FF68EE008A9DED140BDB
:10491000B7EEC00B54F040FFB0EE408A9DED100B97
:10492000B7EEC00B54F038FF28EE008A9DED120B55
:10493000B7EEC00B54F078FF48EE408AB7EEE80AB5
:104940000BEE00AB9FEDFE0B3AEE400B89EE00AB99
:104950009DED140BB7EEC00B54F01EFFB0EE408A75
:104960009DED100BB7EEC00B54F016FF28EE008A39
:104970009DED140BB7EEC00B54F056FFF0EE408ADD
:104980009DED120BB7EEC00B54F04EFF68EE808A1F
:104990009DED100BB7EEC00B54F046FF08EEC08A39
:1049A000B7EEC81AE84890ED002BB0EE080B22EEE7
:1049B000000B21EE000BB0EE001B80EE012B3AEE57
:1049C000429BB0EE080B54F0CFF9DF4890ED001B8E
:1049D00020EE01AB9DED140BB7EEC00B54F0DCFEE6
:1049E000B0EE408A9DED100BB7EEC00B54F01CFFEB
:1049F00028EE008A9DED100BB7EEC00B54F0CCFEF4
:104A0000F0EE408A9DED140BB7EEC00B54F00CFF96
:104A100068EE808A9DED120BB7EEC00B54F004FFD8
:104A200008EE808AB7EEC80A2AEE000BB0EE001B33
:104A300080EE012B39EE020B8DED080BB0EE001B62
:104A40009DED080B53F014FDB0EE408B9DED120B65
:104A5000B7EEC00B54F0A0FEB7EEC00ABA4890ED16
:104A6000001BB0EE082B21EE021B20EE019B9DEDFA
:104A7000100BB7EEC00B54F0D7FEB7EEC00A29EE0C
:104A8000000BB0EE001B80EE019BB0EE080B54F063
:104A90006BF9AD4890ED001B20EE01AB9DED120BC4
:104AA000B7EEC00B54F078FEB7EEC00A2AEE00ABAA
:104AB0009DED100BB7EEC00B54F06EFEB7EEC00AC2
:104AC0002AEE000BB0EE001B80EE012B39EE020B3C
:104AD0008DED080BB0EE001B9DED080B53F0C8FCEC
:104AE00088EE009B9DED140BB7EEC00B54F054FE06
:104AF000B0EE408A9DED100BB7EEC00B54F04CFEAB
:104B000028EE008A9DED140BB7EEC00B54F08CFE1E
:104B1000F0EE408A9DED120BB7EEC00B54F084FE10
:104B200068EE808A9DED100BB7EEC00B54F07CFE52
:104B300008EEC08AB7EEC82A844890ED000B9DEDC0
:104B40000C1BB0EE003B13EE010B7F4890ED001BF9
:104B5000B0EE40AB01EE02AB9DED140BB7EEC00B17
:104B600054F01AFEB0EE408A9DED100BB7EEC00B6C
:104B700054F012FE68EE008A9DED140BB7EEC00BE8
:104B800054F052FEB0EE408A9DED120BB7EEC00B12
:104B900054F04AFE28EE008A9DED100BB7EEC00BD4
:104BA00054F042FE48EE408AB7EEE80A664890EDBF
:104BB000001BB0EE082B21EE021B20EE011BB0EE15
:104BC000000B81EE00BBB0EE080B54F0CDF85E4850
:104BD00090ED001B20EE01CB9DED140BB7EEC00B4A
:104BE00054F0DAFDB0EE408A9DED100BB7EEC00B2D
:104BF00054F01AFE68EE008A9DED100BB7EEC00B64
:104C000054F0CAFDB0EE408A9DED140BB7EEC00B18
:104C100054F00AFE28EE008A9DED120BB7EEC00B91
:104C200054F002FE48EE008AB7EEE80A2CEE000BC4
:104C3000B0EE001B80EE012B3BEE42BBB0EE080B4A
:104C400054F092F89DED0E1BB0EE002B21EE028B7E
:104C50003E4890ED001B00EE418B9DED120BB7EE30
:104C6000C00B54F099FDB7EEC00A374890ED001B19
:104C700020EE01CB9DED100BB7EEC00B54F0D4FD30
:104C8000B7EEC00A0CEE408BB0EE080B54F06CF897
:104C90002D4890ED001B20EE01CB9DED120BB7EEE1
:104CA000C00B54F079FDB7EEC00A2CEE00CB9DEDA1
:104CB000100BB7EEC00B54F06FFDB7EEC00A0CEE50
:104CC000008B2BEE088B9DED120BB7EEC00B54F052
:104CD00063FDB7EEC00A1C4890ED001BB0EE082B38
:104CE00021EE021B20EE01BB9DED100BB7EEC00BB9
:104CF00054F09AFDB7EEC00A2BEE000BB0EE001B8D
:104D000080EE01BBB0EE080B54F02EF80E4890ED8B
:104D1000001B20EE01CB9DED120BB7EEC00B54F043
:104D20003BFDB7EEC00A2CEE00CB9DED100BB7EEAD
:104D3000C00B54F031FDB7EEC00A2CEE000B07E0BB
:104D4000000000000000444040A5050848A50508F3
:104D5000B0EE001B80EE012B3BEE020B88EE001B39
:104D60003AEE01ABB0EE080B53F0FEFFFE4890EDBB
:104D7000001B20EE01BB9DED140BB7EEC00B54F0F1
:104D80000BFDB0EE408A9DED100BB7EEC00B54F05A
:104D90004BFD28EE008A9DED100BB7EEC00B54F0D2
:104DA000FBFCF0EE408A9DED140BB7EEC00B54F007
:104DB0003BFD68EE808A9DED120BB7EEC00B54F000
:104DC00033FD08EE808AB7EEC81AB0EE4A0B0BEE40
:104DD000010B8DED080BB0EE001B9DED080B53F0A1
:104DE00047FBB0EE40BB9DED100BB7EEC00B54F08F
:104DF000D3FCB0EE408A9DED140BB7EEC00B54F01F
:104E000013FD28EE008A9DED120BB7EEC00B54F097
:104E10000BFDF0EE408A9DED140BB7EEC00B54F085
:104E2000BBFC68EE808A9DED100BB7EEC00B54F012
:104E3000FBFC08EE808AB7EEC80ACB4890ED001B59
:104E400020EE018B9DED0A0BB0EE001B01EE008BF6
:104E5000B0EE080B53F088FFC34890ED001B20EE26
:104E600001CB9DED140BB7EEC00B54F0DDFCB0EEA2
:104E700040AA9DED100BB7EEC00B54F0D5FC2AEE06
:104E800000AA9DED120BB7EEC00B54F0CDFCF0EE76
:104E900040AA9DED140BB7EEC00B54F07DFC6AEEFA
:104EA00080AA9DED100BB7EEC00B54F075FC0AEE16
:104EB000C0AAB7EECA0AB0EE48AB0CEE00AB9DED4F
:104EC000100BB7EEC00B54F067FCB0EE408A9DEDBE
:104ED000140BB7EEC00B54F0A7FC28EE008A9DED32
:104EE000120BB7EEC00B54F09FFCF0EE408A9DED24
:104EF000140BB7EEC00B54F04FFC68EE808A9DEDAA
:104F0000100BB7EEC00B54F08FFC08EE808AB7EEA2
:104F1000C80A954890ED001BB0EE082B21EE021B4D
:104F200020EE010BB0EE001B80EE01CBB0EE080BC3
:104F300053F01AFF8C4890ED001B20EE01DB9DED35
:104F4000140BB7EEC00B54F06FFCB0EE408A9DED31
:104F5000100BB7EEC00B54F067FC28EE008A9DEDF5
:104F6000120BB7EEC00B54F05FFCF0EE408A9DEDE3
:104F7000140BB7EEC00B54F00FFC68EE808A9DED69
:104F8000100BB7EEC00B54F007FC08EEC08AB7EE6A
:104F9000C80A2DEE000BB0EE001B80EE012B3CEE9C
:104FA00042CBB0EE080B53F0DFFE9DED0E1BB0EED2
:104FB000002B21EE028B6D4890ED001B00EE418B23
:104FC0009DED120BB7EEC00B54F0E6FBB7EEC00A36
:104FD000654890ED001B20EE01DB9DED100BB7EE58
:104FE000C00B54F021FCB7EEC00A0DEE408BB0EEC2
:104FF000080B53F0B9FE5C4890ED001B20EE01DB7E
:105000009DED120BB7EEC00B54F0C6FBB7EEC00A15
:105010002DEE00DB9DED100BB7EEC00B54F0BCFB8A
:10502000B7EEC00A0DEE008B2CEE088B9DED120B37
:10503000B7EEC00B54F0B0FBB7EEC00A4A4890ED93
:10504000001BB0EE082B21EE021B20EE01CB9DEDE4
:10505000100BB7EEC00B54F0E7FBB7EEC00A2CEE16
:10506000000BB0EE001B80EE01CBB0EE080B53F04E
:105070007BFE3D4890ED001B20EE01DB9DED120B09
:10508000B7EEC00B54F088FBB7EEC00A2DEE00DB84
:105090009DED100BB7EEC00B54F07EFBB7EEC00ACF
:1050A0002DEE000BB0EE001B80EE012B3CEE020B50
:1050B00088EE001B3AEE010B1FEDDF1B30EE410BBB
:1050C0008DED080BB0EE001B9DED080B53F0D0F9F1
:1050D0008BEE001B39EE010BB7EE001B30EE010B1F
:1050E0008DED1C0B9DED140BB7EEC00B54F054FB73
:1050F000B0EE408A9DED100BB7EEC00B54F04CFBA8
:1051000028EE008A9DED140BB7EEC00B54F08CFB1B
:10511000F0EE408A9DED120BB7EEC00B54F084FB0D
:1051200068EE808A9DED100BB7EEC00B54F07CFB4F
:1051300008EEC08AB7EEC82A0C4890ED000B9DED32
:105140000C1BB0EE003B13EE010B074890ED001B6B
:10515000B0EE409B01EE029B9DED140BB7EEC00B31
:1051600054F01AFB04E0000040A5050848A5050816
:10517000B0EE408A9DED100BB7EEC00B54F00CFB67
:1051800028EE008A9DED140BB7EEC00B54F04CFBDB
:10519000F0EE408A9DED120BB7EEC00B54F044FBCD
:1051A00068EE808A9DED100BB7EEC00B54F03CFB0F
:1051B00008EEC08AB7EEC82AFE4890ED000BB0EEAC
:1051C000081B20EE010B22EE000BB0EE001B80EE60
:1051D00001ABB0EE080B53F0C7FDF64890ED001B95
:1051E00020EE01BB9DED140BB7EEC00B54F0D4FACA
:1051F000B0EE408A9DED100BB7EEC00B54F014FBDF
:1052000068EE008A9DED100BB7EEC00B54F0C4FAA7
:10521000B0EE408A9DED140BB7EEC00B54F004FBCA
:1052200028EE008A9DED120BB7EEC00B54F0FCFA8D
:1052300048EE008AB7EEE80A2BEE000BB0EE001B3A
:1052400080EE012B3AEE42ABB0EE080B53F08CFD32
:105250009DED0E1BB0EE002B21EE028BD64890ED9B
:10526000001B00EE418B9DED120BB7EEC00B54F00E
:1052700093FAB7EEC00ACF4890ED001B20EE01BBB9
:105280009DED100BB7EEC00B54F0CEFAB7EEC00A8E
:105290000BEE408BB0EE080B53F066FDC54890ED69
:1052A000001B20EE01BB9DED120BB7EEC00B54F0BE
:1052B00073FAB7EEC00A2BEE00BB9DED100BB7EEF4
:1052C000C00B54F069FAB7EEC00A0BEE008B2AEE61
:1052D000088B9DED120BB7EEC00B54F05DFAB7EEE4
:1052E000C01AB44890ED000BB0EE082B20EE020B74
:1052F00021EE00AB9DED100BB7EEC00B54F094FA0D
:10530000B7EEC00A2AEE000BB0EE001B80EE01AB38
:10531000B0EE080B53F028FDA64890ED001B20EEE0
:1053200001BB9DED120BB7EEC00B54F035FAB7EE92
:10533000C00A2BEE00BB9DED100BB7EEC00B54F076
:105340002BFAB7EEC00A2BEE000BB0EE001B80EE7E
:10535000012B3AEE020B88EE001B39EE019BB0EEFA
:10536000080B53F001FD934890ED001B20EE01ABBC
:105370009DED140BB7EEC00B54F00EFAB0EE408A60
:105380009DED100BB7EEC00B54F04EFA28EE008ADC
:105390009DED100BB7EEC00B54F0FEF9F0EE408A15
:1053A0009DED140BB7EEC00B54F03EFA68EE808A08
:1053B0009DED120BB7EEC00B54F036FA08EE808A62
:1053C000B7EEC80A0AEE009B9FED7C0B29EE00ABFE
:1053D0009DED100BB7EEC00B54F0DEF9B0EE408A35
:1053E0009DED140BB7EEC00B54F01EFA28EE008AA8
:1053F0009DED140BB7EEC00B54F0CEF9F0EE408AE1
:105400009DED120BB7EEC00B54F00EFA68EE808AD9
:105410009DED100BB7EEC00B54F006FA08EE808A33
:10542000B7EEC81A634890ED000B21EE009B9DED8E
:105430000A0BB0EE001B01EE009B9DED100BB7EECA
:10544000C00B54F0A9F9B0EE408A9DED140BB7EEF5
:10545000C00B54F0E9F968EE008A9DED140BB7EE2D
:10546000C00B54F099F9B0EE408A9DED120BB7EEE7
:10547000C00B54F0D9F928EE008A9DED100BB7EE61
:10548000C00B54F0D1F948EE008AB7EEE80A49485B
:1054900090ED001BB0EE082B21EE021B20EE010B5D
:1054A000B0EE001B80EE01BBB0EE080B53F05CFCCD
:1054B000404890ED001B20EE01CB9DED140BB7EEA4
:1054C000C00B54F0B1F9B0EE408A9DED100BB7EE71
:1054D000C00B54F0A9F968EE008A9DED140BB7EEED
:1054E000C00B54F059F9B0EE408A9DED100BB7EEA9
:1054F000C00B54F051F928EE008A9DED120BB7EE67
:10550000C00B54F091F948EE408AB7EEE80A2CEE51
:10551000000BB0EE001B80EE012B3BEE42BBB0EE69
:10552000080B53F021FC9DED0E1BB0EE002B21EE7D
:10553000028B214890ED001B00EE418B9DED120B7C
:10554000B7EEC00B54F028F9B7EEC00A194890ED39
:10555000001B20EE01CB9DED100BB7EEC00B54F0FD
:1055600063F9B7EEC00A0CEE408BB0EE080B53F0B7
:10557000FBFB104890ED001B20EE01CB9DED120BC4
:10558000B7EEC00B54F008F9B7EEC00A2CEE00CB12
:105590009DED100BB7EEC00B54F0FEF8B7EEC00A4D
:1055A0000CEE008B2BEE088B9DED120BB7EEC00BB3
:1055B00008E0000040A5050848A505080000000017
:1055C0000000444054F0E8F8B7EEC00AFE4890ED01
:1055D000001BB0EE082B21EE021B20EE01BB9DED5F
:1055E000100BB7EEC00B54F01FF9B7EEC00A2BEE4C
:1055F000000BB0EE001B80EE01BBB0EE080B53F0C9
:10560000B3FBF14890ED001B20EE01CB9DED120B9A
:10561000B7EEC00B54F0C0F8B7EEC00A2CEE00CBCA
:105620009DED100BB7EEC00B54F0B6F8B7EEC00A04
:105630002CEE000BB0EE001B80EE012B3BEE020BBC
:1056400088EE001B39EE019BB0EE080B53F08CFB8B
:10565000DD4890ED001B20EE01BB9DED140BB7EE75
:10566000C00B54F0E1F8B0EE408A9DED100BB7EEA0
:10567000C00B54F0D9F828EE008A9DED140BB7EE5C
:10568000C00B54F089F8F0EE408A9DED100BB7EE98
:10569000C00B54F081F868EE808A9DED120BB7EED6
:1056A000C00B54F0C1F808EEC08AB7EEC80A0BEE82
:1056B000009B1FED3E0B39EE401B8AEE010BC348E9
:1056C00090ED001B30EE419B9DED140BB7EEC00B2F
:1056D00054F062F8B0EE408A9DED100BB7EEC00BAF
:1056E00054F05AF828EE008A9DED140BB7EEC00B6B
:1056F00054F09AF8F0EE408A9DED120BB7EEC00B15
:1057000054F092F868EE808A9DED100BB7EEC00B56
:1057100054F08AF808EEC08AB7EEC82AAB4890ED7C
:10572000000B9DED0C1BB0EE003B13EE010BA648E9
:1057300090ED001BB0EE40AB01EE02AB9DED140B03
:10574000B7EEC00B54F028F8B0EE408A9DED100B78
:10575000B7EEC00B54F020F868EE008A9DED140BF4
:10576000B7EEC00B54F060F8B0EE408A9DED120B1E
:10577000B7EEC00B54F058F828EE008A9DED100BE0
:10578000B7EEC00B54F050F848EE408AB7EEE80A86
:105790008D4890ED001BB0EE082B21EE021B20EE91
:1057A000010BB0EE001B80EE01BBB0EE080B53F016
:1057B000DBFA854890ED001B20EE01CB9DED140B2C
:1057C000B7EEC00B53F0E8FFB0EE408A9DED100B32
:1057D000B7EEC00B54F028F828EE008A9DED100BB0
:1057E000B7EEC00B53F0D8FFF0EE408A9DED140BDE
:1057F000B7EEC00B54F018F868EE808A9DED120BDE
:10580000B7EEC00B54F010F808EE808AB7EEC80A65
:105810002CEE000BB0EE001B80EE012B3BEE42BBEA
:10582000B0EE080B53F0A0FA9DED0E1BB0EE002B6E
:1058300021EE028B654890ED001B00EE418B9DED43
:10584000120BB7EEC00B53F0A7FFB7EEC01A5E48BD
:1058500090ED000B21EE00CB9DED100BB7EEC00BD1
:1058600053F0E2FFB7EEC00A0CEE408BB0EE080B2F
:1058700053F07AFA544890ED001B20EE01CB9DEDD9
:10588000120BB7EEC00B53F087FFB7EEC00A2CEE39
:1058900000CB9DED100BB7EEC00B53F07DFFB7EEC4
:1058A000C00A0CEE008B2BEE088B9DED120BB7EEB1
:1058B000C00B53F071FFB7EEC01A434890ED002BB8
:1058C000B0EE080B22EE000B21EE00BB9DED100B9D
:1058D000B7EEC00B53F0A8FFB7EEC00A2BEE000BDB
:1058E000B0EE001B80EE01BBB0EE080B53F03CFAAB
:1058F000354890ED001B20EE01CB9DED120BB7EE6D
:10590000C00B53F049FFB7EEC00A2CEE00CB9DED63
:10591000100BB7EEC00B53F03FFFB7EEC00A2CEEF2
:10592000000BB0EE001B80EE012B3BEE020B88EE6D
:10593000001B3AEE01ABB0EE080B53F015FA22480B
:1059400090ED001B20EE01BB9DED140BB7EEC00BDC
:1059500053F022FFB0EE408A9DED100BB7EEC00B66
:1059600053F062FF28EE008A9DED100BB7EEC00BDE
:1059700053F012FFF0EE408A9DED140BB7EEC00B12
:1059800053F052FF68EE808A9DED120BB7EEC00B0C
:1059900053F04AFF08EE808AB7EEC80A0BEE00AB60
:1059A000B0EE000B2AEE00BB9DED120BB7EEC00B64
:1059B00053F0F2FEB7EEC00A034890ED001B20EE54
:1059C000018B9DED100B03E040A5050848A50508D7
:1059D000B7EEC00B53F028FFB7EEC00A28EE000B5D
:1059E000B0EE002B80EE021B9DED0E0B30EE418BD6
:1059F000B0EE080B53F0B8F9FE4890ED001B20EE16
:105A000001AB9DED120BB7EEC00B53F0C5FEB7EE28
:105A1000C00A2AEE00AB9DED100BB7EEC00B53F0A1
:105A2000BBFEB7EEC00A2AEE000BB0EE001B80EE04
:105A3000012B38EE020B8DED080BB0EE001B9DED37
:105A4000080B52F015FDB0EE40AB9DED140BB7EE18
:105A5000C00B53F0A1FEB0EE408A9DED100BB7EEE7
:105A6000C00B53F099FE28EE008A9DED140BB7EEA3
:105A7000C00B53F0D9FEF0EE408A9DED120BB7EE4D
:105A8000C00B53F0D1FE68EE808A9DED100BB7EE8F
:105A9000C00B53F0C9FE08EEC08AB7EEC80AD5485D
:105AA00090ED001B20EE010BB0EE002B80EE021BF0
:105AB0009DED0C0B31EE00CBB0EE080B53F054F91A
:105AC000CC4890ED001B20EE01DB9DED140BB7EEF2
:105AD000C00B53F061FEB0EE408A9DED100BB7EEA7
