:020000040800F2
:10000000483A0020AD020008DD1E050879C9010844
:10001000731C0508CD080008E980050800000000F1
:100020000000000000000000000000007F660508DE
:10003000437501080000000081200508D968050803
:10004000C7020008C7020008C7020008C70200086C
:10005000C7020008C7020008C7020008C70200085C
:10006000C7020008C7020008C7020008C70200084C
:10007000C7020008C7020008C7020008C70200083C
:10008000C7020008C7020008C7020008C70200082C
:10009000C7020008C7020008C7020008C70200081C
:1000A000C7020008C7020008C7020008C70200080C
:1000B000C7020008696A0508796A0508C7020008CE
:1000C000C7020008C7020008C7020008C7020008EC
:1000D000C7020008C70200084D7F050871800508A7
:1000E000A3750108C702000800000000C70200084D
:1000F000C7020008996A0508C7020008C70200087D
:10010000C7020008C7020008896A0508C70200087C
:10011000C7020008C7020008C7020008C70200089B
:10012000C7020008C7020008C7020008C70200088B
:10013000C7020008C7020008C7020008C70200087B
:1001400000000000000000000000000000000000AF
:10015000C7020008C7020008C7020008C70200085B
:10016000C7020008C7020008C7020008C70200084B
:10017000C7020008C7020008C7020008000000000C
:10018000C7020008C7020008C7020008C70200082B
:10019000C7020008C7020008C7020008C70200081B
:1001A000C7020008C7020008C7020008C70200080B
:1001B000C7020008C7020008C7020008C7020008FB
:1001C000C7020008C7020008C7020008C7020008EB
:1001D000C7020008C7020008C7020008C7020008DB
:1001E000C7020008C7020008C7020008C7020008CB
:1001F000C7020008C7020008C7020008C7020008BB
:10020000C7020008C7020008C7020008C7020008AA
:10021000C7020008596A0508C7020008C70200089B
:10022000C7020008C7020008C7020008000000005B
:10023000C7020008C702000800000000C70200084B
:10024000C7020008C7020008C7020008C70200086A
:10025000C7020008C7020008C7020008C70200085A
:10026000C7020008C7020008C7020008C70200084A
:10027000C7020008C7020008C7020008000000000B
:10028000C702000800000000C702000800000000CC
:1002900000000000C7020008DFF80CD000F072FA7E
:1002A0000048004785A10508483A002006488047D5
:1002B00006480047FEE7FEE7FEE7FEE7FEE7FEE74B
:1002C000FEE7FEE7FEE7FEE7C569050899020008BC
:1002D0002DE9F05F0546002092469B46884606467B
:1002E000814640241BE0284641464746224600F00E
:1002F00069F853465A46C01A914110D31146184620
:10030000224600F050F82D1A67EB01084F462246AE
:100310000120002100F047F817EB00094E41201E94
:10032000A4F10104DFDC484631462A464346BDE8D5
:10033000F09F40EA01039B0703D009E008C9121FA0
:1003400008C0042AFAD203E011F8013B00F8013B8F
:10035000521EF9D27047D2B201E000F8012B491EBB
:10036000FBD270470022F6E710B513460A46044652
:100370001946FFF7F0FF204610BD30B50B46014689
:1003800000202022012409E021FA02F59D4205D334
:1003900003FA02F5491B04FA02F52844151EA2F1DE
:1003A0000102F1DC30BD202A04DB203A00FA02F120
:1003B000002070479140C2F1200320FA03F3194353
:1003C00090407047202A04DB203A21FA02F00021F5
:1003D000704721FA02F3D040C2F120029140084355
:1003E000194670472DE9FE4F804681EA0300C00F91
:1003F0000C46009021F0004123F00045B8EB0200CC
:10040000A94105D24046214690461C460B4602466D
:1004100023F00040104347D0270DC7F30A00C3F371
:100420000A510290401A019040286BDAC3F313007E
:1004300040F4801B0098924620B10023D2EB030ABF
:1004400063EB0B0B01985946C0F140025046FFF791
:10045000AAFF06460D4650465946019A00F0A4F9F7
:1004600010EB08006141002487EA115284EAE77327
:100470001A4340D0009A62B3019A012A4FEA075208
:1004800015DC001B61EB02014FF0004202EA07524B
:10049000CDE90042001C41F5801132462B4600F0A8
:1004A000A4F903B0BDE8F08F40462146F9E7001BF0
:1004B00061EB0201001C41F5801300185B4120181C
:1004C000A2F5001747EB030140EAD570B6196D415C
:1004D00011E06D084FEA360645EAC0754FEA07524B
:1004E000001B61EB0201001C41F5801149084FEA35
:1004F00030000019514132462B4603B0BDE8F04FA1
:1005000000F064B90098012240000023D0EB020201
:1005100063EBE073009821464FEAE074B8EB00000B
:1005200061EB0401E9E783F000435BE781F0004100
:1005300058E72DE9FE4F81EA030404F0004421F05E
:10054000004100944FF0000B23F0004350EA0104F7
:100550005ED052EA03045BD0C3F30A54C1F30A55D8
:100560002C44A4F2F3340194A0FB0254C1F3130110
:1005700041F48011C3F3130343F4801301FB0244DD
:1005800000FB034E840A970A44EA815447EA8357E2
:10059000A4FB076802958D0A05FB07854FEA932C9B
:1005A00004FB0C542705029D4FEA065847EA16370C
:1005B000B5EB08056EEB070C870E920E47EA811724
:1005C00042EA8312A7FB0201B6EB0B0164EB0004C5
:1005D0002B0D43EA0C335E1844EB1C50DA465146AF
:1005E000E7FB0201C5F313044FEA0B3343EA14534C
:1005F0004FEA0432019C43EA0603A4F10C0402947E
:10060000009CCDE900B400F0F0F803B0BDE8F08F35
:1006100000200146F9E72DE9F04D81EA030404F0DA
:10062000004B21F0004514464FF0000A23F0004132
:1006300050EA050220D054EA01021DD0C5F30A5742
:100640000246C5F31303C1F31300C1F30A5640F485
:10065000801543F48013A7EB0608101BD64608F25A
:10066000FD3873EB050002D308F1010801E0921890
:100670005B41B8F1000F03DA00200146BDE8F08DC0
:1006800000204FF48011064684460EE0171B73EBE2
:10069000050705D3121B63EB050306434CEA010C67
:1006A00049084FEA300092185B4150EA0107EDD14A
:1006B00052EA030012D082EA040083EA05010843EB
:1006C00005D0101BAB4106D20122002306E0002218
:1006D0004FF0004302E06FF0010253101AEB0600E6
:1006E0004CEB085110EB0A0041EB0B01BDE8F04D5B
:1006F00000F06CB870B521F0004303430CD0C1F397
:100700000A550024D5EB040564EB0403D617AD1A93
:10071000B34102DB0020014670BD201841EB0251BD
:1007200070BDC1F30A52C1F3130140F2FF3341F42B
:1007300080119A4202DA00200146704740F23343AA
:100740009A42A2F2334202DC5242FFF73BBEFFF76D
:100750002ABE000030B5041E71F1000404DB4FF026
:100760000044404264EB0101141E73F1000405DBF8
:100770001C464FF00043524263EB0403994208BF0A
:10078000904230BD064C074D06E0E06840F00103A2
:1007900094E8070098471034AC42F6D3FFF780FD89
:1007A000B8AD0508D8AD0508202A06DBCB17203ADE
:1007B00041FA02F043EAE07306E041FA02F3D04066
:1007C000C2F12002914008431946704710B5141E2B
:1007D00073F1000408DA401C41F1000192185B41FA
:1007E0001A4301D120F0010010BD2DE9F04D9246D1
:1007F0009B4611B1B1FA81F202E0B0FA80F22032E8
:100800009046FFF7D0FD04460F4640EA0A0041EA51
:100810000B0153465A46084313D0114653EA0100D0
:1008200019D0C8F140025046FFF7CCFD05460E46F0
:10083000504659464246FFF7B6FD084305D0012011
:1008400004E020463946BDE8F08D0020054346EA25
:10085000E0762C4337430A986305E40AA0EB0800CE
:100860000022FD0A44EA47540A3002D5002001461E
:10087000E9E7010510196941DDE9084500196941F9
:10088000BDE8F04DA2E7000010B50446012C0AD1E6
:10089000012281030B4819F0EFF8012208210A48D0
:1008A00019F0EAF80DE000224FF48041054819F0F4
:1008B000E3F800220821044819F0DEF8002051F086
:1008C00063FA10BD000402580008025800BFFEE79A
:1008D0000FB410B52DED108BB4B09DED460B8DED22
:1008E000140B9DED480B8DED120B9DED4A0B8DED1C
:1008F000100B9DED4C0B8DED0E0B9DED4E0B8DED0C
:100900000C0B9DED500B8DED0A0B9DED140BB7EE0E
:10091000C00B58F075FFB0EE408A9DED100BB7EE9E
:10092000C00B58F06DFF28EE008A9DED140BB7EE5A
:10093000C00B58F0ADFFF0EE408A9DED120BB7EE04
:10094000C00B58F0A5FF68EE808A9DED100BB7EE46
:10095000C00B58F09DFF08EEC08AB7EEC81A9DED97
:100960000C0BB0EE002B20EE020BFE4890ED002B9E
:10097000B0EE003B03EE020BFB4890ED002BB0EE17
:10098000003B22EE032BB0EE409B02EE419B9DED1F
:10099000140BB7EEC00B58F033FFB0EE408A9DED5C
:1009A000100BB7EEC00B58F073FF28EE008A9DEDD8
:1009B000100BB7EEC00B58F023FFF0EE408A9DED10
:1009C000140BB7EEC00B58F063FF68EE808A9DED04
:1009D000120BB7EEC00B58F05BFF08EE808AB7EE43
:1009E000C88A9DED120BB7EEC00B58F009FFB7EEA9
:1009F000C00ADD4890ED001BB0EE002B21EE021B7B
:100A000020EE01AB9DED100BB7EEC00B58F040FF90
:100A1000B7EEC00A2AEE001B9DED0E0BB0EE002BC8
:100A200002EE001B28EE01AB9DED120BB7EEC00BE2
:100A300058F0E6FEB0EE408A9DED100BB7EEC00B0D
:100A400058F0DEFE28EE000AB7EEC00A8AEE001B60
:100A500039EE410B8DED080BB0EE001B9DED080B40
:100A600057F03AFDB0EE40AB9DED100BB7EEC00B6A
:100A700058F0C6FEB0EE408A9DED140BB7EEC00BE9
:100A800058F006FF28EE008A9DED120BB7EEC00B62
:100A900058F0FEFEF0EE408A9DED140BB7EEC00B51
:100AA00058F0AEFE68EE808A9DED100BB7EEC00BDD
:100AB00058F0EEFE08EE808AB7EEC80AAA4890ED1C
:100AC000001BB0EE002B21EE021B20EE019B9DEDE2
:100AD0000A0BB0EE001B01EE409B9DED140BB7EE30
:100AE000C00B58F0D5FEB0EE408A9DED100BB7EE6E
:100AF000C00B58F0CDFE68EE008A9DED120BB7EEEC
:100B0000C00B58F0C5FEB0EE408A9DED140BB7EE59
:100B1000C00B58F075FE28EE008A9DED100BB7EE65
:100B2000C00B58F06DFE48EE408AB7EEE88A9DEDA6
:100B3000120BB7EEC00B58F063FEB7EEC00A8A483E
:100B400090ED001BB0EE002B21EE021B20EE01BB4E
:100B50009DED100BB7EEC00B58F09AFEB7EEC00A31
:100B60002BEE001B9DED0E0BB0EE002B02EE001BDA
:100B700028EE01BB9DED120BB7EEC00B58F040FE06
:100B8000B0EE408A9DED100BB7EEC00B58F038FE6A
:100B900028EE000AB7EEC00A8BEE001B39EE010BFF
:100BA0009FED721B30EE010B8DED080BB0EE001BBC
:100BB0009DED080B57F090FC8AEE009BB0EE080B01
:100BC00058F006F9684890ED001B20EE01AB9DED52
:100BD000140BB7EEC00B58F05BFEB0EE408A9DEDF3
:100BE000100BB7EEC00B58F053FE28EE008A9DEDB7
:100BF000140BB7EEC00B58F003FEF0EE408A9DEDEB
:100C0000100BB7EEC00B58F0FBFD68EE808A9DED2F
:100C1000120BB7EEC00B58F03BFE08EEC08AB7EEE1
:100C2000C80A2AEE00AB9DED140BB7EEC00B58F0CE
:100C3000E7FDB0EE408A9DED100BB7EEC00B58F00B
:100C4000DFFD68EE008A9DED140BB7EEC00B58F087
:100C50001FFEB0EE408A9DED120BB7EEC00B58F0B0
:100C600017FE28EE008A9DED100BB7EEC00B58F072
:100C70000FFE48EE408AB7EEE81A9DED0C0BB0EE81
:100C8000002B20EE020B374890ED002BB0EE003B1E
:100C900003EE020B344890ED002BB0EE003B22EE49
:100CA000032BB0EE40BB02EE41BB9DED140BB7EE43
:100CB000C00B58F0A5FDB0EE408A9DED100BB7EECD
:100CC000C00B58F0E5FD68EE008A9DED100BB7EE05
:100CD000C00B58F095FDB0EE408A9DED140BB7EEB9
:100CE000C00B58F0D5FD28EE008A9DED120BB7EE33
:100CF000C00B58F0CDFD48EE008AB7EEE88A9DEDB6
:100D0000120BB7EEC00B58F07BFDB7EEC00A1648C9
:100D100090ED001BB0EE002B21EE021B20EE01CB6C
:100D20009DED100BB7EEC00B58F0B2FDB7EEC00A48
:100D30002CEE001B9DED0E0BB0EE002B02EE001B07
:100D400028EE01CB9DED120BB7EEC00B58F058FD0D
:100D5000B0EE408A9DED100BB7EEC00B58F050FD81
:100D600008E00000B8A40508B0A4050800000000D1
:100D70000000444028EE000AB7EEC00A8CEE001BCB
:100D80003BEE410B2AEE00AB9DED100BB7EEC00B16
:100D900058F036FDB0EE408A9DED140BB7EEC00B57
:100DA00058F076FD28EE008A9DED140BB7EEC00BCF
:100DB00058F026FDF0EE408A9DED120BB7EEC00B09
:100DC00058F066FD68EE808A9DED100BB7EEC00B03
:100DD00058F05EFD08EE808AB7EEC80AFE4890ED36
:100DE000001BB0EE002B21EE021B20EE01BB9DED9F
:100DF0000A0BB0EE001B01EE40BB9DED140BB7EEED
:100E0000C00B58F045FDB0EE408A9DED100BB7EEDB
:100E1000C00B58F03DFD28EE008A9DED140BB7EE97
:100E2000C00B58F0EDFCF0EE408A9DED100BB7EED4
:100E3000C00B58F0E5FC68EE808A9DED120BB7EE12
:100E4000C00B58F025FD08EEC08AB7EEC88A9DEDAC
:100E5000120BB7EEC00B58F0D3FCB7EEC00ADE4859
:100E600090ED001BB0EE002B21EE021B20EE01CB1B
:100E70009DED100BB7EEC00B58F00AFDB7EEC00A9F
:100E80002CEE000B9DED0E1BB0EE002B02EE010BC5
:100E900028EE00CB9DED120BB7EEC00B58F0B0FC66
:100EA000B0EE408A9DED100BB7EEC00B58F0A8FCD9
:100EB00028EE000AB7EEC00A8CEE001B3BEE010BD9
:100EC0001FED561B30EE010B8AEE00BBB0EE080B97
:100ED00057F07EFFC04890ED001B20EE01AB9DED6A
:100EE000140BB7EEC00B58F08BFCB0EE408A9DEDB2
:100EF000100BB7EEC00B58F0CBFC28EE008A9DED2E
:100F0000100BB7EEC00B58F07BFCF0EE408A9DED65
:100F1000140BB7EEC00B58F0BBFC68EE808A9DED59
:100F2000120BB7EEC00B58F0B3FC08EE808AB7EE98
:100F3000C81AB0EE4B0B0AEE010B8DED080BB0EEAC
:100F4000001B9DED080B57F0C7FAB0EE408BB0EEDA
:100F5000001BA14890ED000B57F0BEFAB0EE081B45
:100F600020EE01AB9DED120BB7EEC00B58F048FC24
:100F7000B7EEC00A8DED080BB0EE001B9DED080B1F
:100F800057F0AAFA2AEE00AB9DED100BB7EEC00B9E
:100F900058F036FCB7EEC00A8DED080BB0EE001B22
:100FA0009DED080B57F098FA2AEE000B88EE001B17
:100FB00039EE010BB7EE001B30EE010B8DED1C0B73
:100FC0009DED140BB7EEC00B58F01AFCB0EE408A42
:100FD0009DED100BB7EEC00B58F012FC28EE008A06
:100FE0009DED140BB7EEC00B58F052FCF0EE408AAA
:100FF0009DED120BB7EEC00B58F04AFC68EE808AEC
:101000009DED100BB7EEC00B58F042FC08EEC08A05
:10101000B7EEC81A9DED0C0BB0EE002B20EE020BC4
:101020006E4890ED002BB0EE003B03EE020B6A48D9
:1010300090ED002BB0EE003B22EE032BB0EE409B78
:1010400002EE419B9DED140BB7EEC00B58F0D8FBA0
:10105000B0EE408A9DED100BB7EEC00B58F018FCB7
:1010600028EE008A9DED100BB7EEC00B58F0C8FBC0
:10107000F0EE408A9DED140BB7EEC00B58F008FC63
:1010800068EE808A9DED120BB7EEC00B58F000FCA5
:1010900008EE808AB7EEC88A9DED120BB7EEC00B42
:1010A00058F0AEFBB7EEC00A4B4890ED001BB0EE17
:1010B000002B21EE021B20EE01AB9DED100BB7EED5
:1010C000C00B58F0E5FBB7EEC00A2AEE001B9DED01
:1010D0000E0BB0EE002B02EE001B28EE01AB9DEDD7
:1010E000120BB7EEC00B58F08BFBB0EE408A9DEDB3
:1010F000100BB7EEC00B58F083FB28EE000AB7EEDA
:10110000C00A8AEE001B39EE410B1FEDE81B20EEF2
:10111000019B9DED100BB7EEC00B58F071FBB0EECC
:10112000408A9DED140BB7EEC00B58F0B1FB28EED2
:10113000008A9DED140BB7EEC00B58F061FBF0EE8A
:10114000408A9DED120BB7EEC00B58F0A1FB68EE84
:10115000808A9DED100BB7EEC00B58F099FB08EE9E
:10116000808AB7EEC80A1C4890ED001BB0EE002B39
:1011700021EE021B20EE01AB9DED0A0BB0EE001B31
:1011800001EE40AB9DED140BB7EEC00B58F080FBA9
:10119000B0EE408A9DED100BB7EEC00B58F078FB17
:1011A00028EE008A9DED140BB7EEC00B58F028FB1B
:1011B000F0EE408A9DED100BB7EEC00B58F020FB0F
:1011C00068EE808A9DED120BB7EEC00B58F060FB05
:1011D00008EEC08A04E00000B0A40508B8A4050821
:1011E000B7EEC88A9DED120BB7EEC00B58F008FBA6
:1011F000B7EEC00AFE4890ED001BB0EE002B21EECA
:10120000021B20EE01BB9DED100BB7EEC00B58F09A
:101210003FFBB7EEC00A2BEE001B9DED0E0BB0EEB0
:10122000002B02EE001B28EE01BB9DED120BB7EE6A
:10123000C00B58F0E5FAB0EE408A9DED100BB7EE0A
:10124000C00B58F0DDFA28EE000AB7EEC00A8BEEAC
:10125000001B3AEE010B9FEDE71B30EE010B89EE10
:10126000008BE64890ED000BB0EE001B11EE008BFA
:101270009DED140BB7EEC00B58F0C2FAB0EE409AD9
:101280009DED100BB7EEC00B58F0BAFA29EE009A9C
:101290009DED140BB7EEC00B58F0FAFAF0EE409A41
:1012A0009DED120BB7EEC00B58F0F2FA69EE809A82
:1012B0009DED100BB7EEC00B58F0EAFA09EEC09A9C
:1012C000B7EEC91A9DED0C0BB0EE002B20EE020B11
:1012D000CA4890ED002BB0EE003B03EE020BC44871
:1012E00090ED002BB0EE003B22EE032BB0EE40ABB6
:1012F00002EE41AB9DED140BB7EEC00B58F080FA37
:10130000B0EE409A9DED100BB7EEC00B58F0C0FA4E
:1013100029EE009A9DED100BB7EEC00B58F070FA55
:10132000F0EE409A9DED140BB7EEC00B58F0B0FAFA
:1013300069EE809A9DED120BB7EEC00B58F0A8FA3B
:1013400009EE809AB7EEC99A9DED120BB7EEC00B6D
:1013500058F056FAB7EEC00AA54890ED001BB0EE63
:10136000002B21EE021B20EE01BB9DED100BB7EE12
:10137000C00B58F08DFAB7EEC00A2BEE001B9DEDA6
:101380000E0BB0EE002B02EE001B29EE01BB9DED13
:10139000120BB7EEC00B58F033FAB0EE409A9DED49
:1013A000100BB7EEC00B58F02BFA29EE000AB7EE7F
:1013B000C00A8BEE001B3AEE410BB0EE001B20EE94
:1013C000019B9DED140BB7EEC00B58F019FAB0EE6F
:1013D00040AA9DED100BB7EEC00B58F011FA2AEEA3
:1013E00000AA9DED140BB7EEC00B58F051FAF0EEC9
:1013F00040AA9DED120BB7EEC00B58F049FA6AEE09
:1014000080AA9DED100BB7EEC00B58F041FA0AEE22
:10141000C0AAB7EECA1A9DED0C0B754890ED002BD3
:1014200002EE410B8DED080BB0EE001B9DED080B9D
:1014300057F052F8B0EE40BB9DED100BB7EEC00B6D
:1014400058F0DEF9B0EE40AA9DED140BB7EEC00BDC
:1014500058F01EFA2AEE00AA9DED140BB7EEC00B51
:1014600058F0CEF9F0EE40AA9DED120BB7EEC00B8E
:1014700058F00EFA6AEE80AA9DED100BB7EEC00B85
:1014800058F006FA0AEE80AAB7EECA1A9DED0A0BCA
:10149000574890ED002B02EE410B8DED080BB0EE9E
:1014A000001B9DED080B57F017F83BEE00AB9DEDD0
:1014B000120BB7EEC00B58F0A3F9B7EEC00A4C48B8
:1014C00090ED001B20EE01BB9DED100BB7EEC00BA5
:1014D00058F0DEF9B7EEC01A9DED0E0B0BEE010BC6
:1014E0008DED080BB0EE001B9DED080B56F0F4FFE0
:1014F0003AEE00ABB0EE001B404890ED000B56F00A
:10150000EBFF3AEE40AB3E4890ED000B8DED080B43
:10151000B0EE001B9DED080B56F0DEFF3AEE40BB2F
:10152000B0EE001B374890ED000B56F0D5FFB0EE43
:10153000001B01EE00BBB0EE080B57F049FCB0EE0B
:1015400040CBB0EE080B57F043FCB3EE041B20EE8B
:10155000010B274890ED001B20EE01DB9DED140BE5
:10156000B7EEC00B58F094F9B0EE40AA9DED100B09
:10157000B7EEC00B58F08CF92AEE00AA9DED140BC3
:10158000B7EEC00B58F03CF9F0EE40AA9DED100B01
:10159000B7EEC00B58F034F96AEE80AA9DED120B3D
:1015A000B7EEC00B58F074F90AEEC0AAB7EECA0A3B
:1015B0002DEE00DBB0EE080B57F00AFC0C4890ED66
:1015C000001B20EE010B0D4890ED001B20EE01EBFF
:1015D0009DED140BB7EEC00B58F012F9B0EE40AA17
:1015E0009DED100BB7EEC00B58F052F90CE0000067
:1015F000B0A405080000000000004440B8A405089D
:1016000088070020C0A405082AEE00AA9DED100B53
:10161000B7EEC00B58F0F4F8F0EE40AA9DED140BB5
:10162000B7EEC00B58F034F96AEE80AA9DED120BAC
:10163000B7EEC00B58F02CF90AEE80AAB7EECA0A32
:101640000EEE40DB2CEE0DAB9DED120BB7EEC00B9A
:1016500058F0D6F8B7EEC00AFE4890ED001BB0EE89
:10166000002B21EE021B20EE01CB9DED100BB7EEFF
:10167000C00B58F00DF9B7EEC00A2CEE001B9DED23
:101680000E0BB0EE002B02EE001B2AEE01AB9DED1F
:10169000120BB7EEC00B58F0B3F8B7EEC00AED4826
:1016A00090ED001BB0EE082B21EE021B20EE01CBCB
:1016B0009DED100BB7EEC00B58F0A2F8B7EEC00AC4
:1016C0002CEE000B8AEE001B3BEE410B9FEDE21B64
:1016D00030EE410B29EE00AB9DED100BB7EEC00BC9
:1016E00058F08EF8B0EE409A9DED140BB7EEC00B9B
:1016F00058F0CEF829EE009A9DED120BB7EEC00B14
:1017000058F0C6F8F0EE409A9DED140BB7EEC00B02
:1017100058F076F869EE809A9DED100BB7EEC00B8D
:1017200058F0B6F809EE809AB7EEC90AC94890EDAC
:10173000001BB0EE002B21EE021B20EE01BB9DED45
:101740000A0BB0EE001B01EE40BB9DED140BB7EE93
:10175000C00B58F09DF8B0EE409A9DED100BB7EE1F
:10176000C00B58F095F829EE009A9DED120BB7EEDC
:10177000C00B58F08DF8F0EE409A9DED140BB7EECB
:10178000C00B58F03DF869EE809A9DED100BB7EE56
:10179000C00B58F035F809EEC09AB7EEC99A9DED26
:1017A000120BB7EEC00B58F02BF8B7EEC00AA948E1
:1017B00090ED001BB0EE002B21EE021B20EE01CBC2
:1017C0009DED100BB7EEC00B58F062F8B7EEC00AF3
:1017D0002CEE001B9DED0E0BB0EE002B02EE001B5D
:1017E00029EE01CB9DED120BB7EEC00B58F008F8B7
:1017F000B0EE409A9DED100BB7EEC00B58F000F81C
:1018000029EE000AB7EEC00A8CEE001B3BEE010B7E
:101810001FED881B30EE010B8DED080BB0EE001BA9
:101820009DED080B56F058FE8AEE001B38EE410B7A
:101830008DED1E0BB0EE080B57F0CAFA854890EDFF
:10184000001B20EE019B9DED140BB7EEC00B58F072
:101850001FF8B0EE408A9DED100BB7EEC00B58F0AC
:1018600017F828EE008A9DED140BB7EEC00B57F069
:10187000C7FFF0EE408A9DED100BB7EEC00B57F09E
:10188000BFFF68EE808A9DED120BB7EEC00B57F0DC
:10189000FFFF08EEC08AB7EEC80A29EE009B9DED57
:1018A000140BB7EEC00B57F0ABFFB0EE408A9DEDC6
:1018B000100BB7EEC00B57F0A3FF28EE008A9DED8A
:1018C000140BB7EEC00B57F0E3FFF0EE408A9DED2E
:1018D000120BB7EEC00B57F0DBFF68EE808A9DED70
:1018E000100BB7EEC00B57F0D3FF08EEC08AB7EE6F
:1018F000C81A9DED0C0BB0EE002B20EE020B5848E1
:1019000090ED002BB0EE003B03EE020B514890ED42
:10191000002BB0EE003B22EE032BB0EE40AB02EE0C
:1019200041AB9DED140BB7EEC00B57F069FFB0EE65
:10193000408A9DED100BB7EEC00B57F0A9FF28EEC3
:10194000008A9DED100BB7EEC00B57F059FFF0EE7B
:10195000408A9DED140BB7EEC00B57F099FF68EE6F
:10196000808A9DED120BB7EEC00B57F091FF08EE89
:10197000808AB7EEC88A9DED120BB7EEC00B57F008
:101980003FFFB7EEC00A334890ED001BB0EE002BCE
:1019900021EE021B20EE01BB9DED100BB7EEC00B3C
:1019A00057F076FFB7EEC00A2BEE001B9DED0E0B35
:1019B000B0EE002B02EE001B28EE01BB9DED120BDA
:1019C000B7EEC00B57F01CFFB0EE408A9DED100B38
:1019D000B7EEC00B57F014FF28EE000AB7EEC00AAE
:1019E0008BEE001B3AEE410B29EE009B9DED100B98
:1019F000B7EEC00B57F004FFB0EE408A9DED140B1C
:101A0000B7EEC00B57F044FF28EE008A9DED140B93
:101A1000B7EEC00B57F0F4FEF0EE408A9DED120BCE
:101A2000B7EEC00B57F034FF68EE808A9DED100BC7
:101A3000B7EEC00B57F02CFF08EE808AB7EEC80A4D
:101A4000044890ED002BB0EE001B22EE011B20EEAF
:101A500001AB07E0B0A405080000000000007940D9
:101A6000B8A405089DED0A0BB0EE001B01EE40ABDB
:101A70009DED140BB7EEC00B57F00AFFB0EE408A95
:101A80009DED100BB7EEC00B57F002FF68EE008A19
:101A90009DED140BB7EEC00B57F0B2FEB0EE408ACE
:101AA0009DED100BB7EEC00B57F0AAFE28EE008A92
:101AB0009DED120BB7EEC00B57F0EAFE48EE408AE0
:101AC000B7EEE88A9DED120BB7EEC00B57F098FE0B
:101AD000B7EEC00AFE4890ED001BB0EE002B21EEE1
:101AE000021B20EE01BB9DED100BB7EEC00B57F0B3
:101AF000CFFEB7EEC00A2BEE000B9DED0E1BB0EE35
:101B0000002B02EE010B28EE00BB9DED120BB7EE91
:101B1000C00B57F075FEB0EE408A9DED100BB7EE8E
:101B2000C00B57F06DFE28EE000AB7EEC00A8BEE30
:101B3000001B3AEE010B9FEDE71B30EE010B89EE27
:101B400000ABB0EE080B57F043F9E14890ED001BF5
:101B500020EE019B9DED140BB7EEC00B57F050FE2D
:101B6000B0EE408A9DED100BB7EEC00B57F090FE23
:101B700028EE008A9DED100BB7EEC00B57F040FE2B
:101B8000F0EE408A9DED140BB7EEC00B57F080FECF
:101B900068EE808A9DED120BB7EEC00B57F078FE11
:101BA00008EE808AB7EEC80A09EE00ABB0EE000B73
:101BB0002AEE009BB0EE080B57F00AF9B3EE041BB7
:101BC00020EE010BC24890ED001B20EE01AB9DED15
:101BD000140BB7EEC00B57F05BFEB0EE408A9DEDE4
:101BE000100BB7EEC00B57F053FE28EE008A9DEDA8
:101BF000140BB7EEC00B57F003FEF0EE408A9DEDDC
:101C0000100BB7EEC00B57F0FBFD68EE808A9DED20
:101C1000120BB7EEC00B57F03BFE08EEC08AB7EED2
:101C2000C80A2AEE00ABB0EE080B57F0D1F8A8486E
:101C300090ED001B20EE010BA84890ED001B20EE5C
:101C400001BB9DED140BB7EEC00B57F0D9FDB0EE04
:101C5000408A9DED100BB7EEC00B57F019FE28EE31
:101C6000008A9DED100BB7EEC00B57F0C9FDF0EEEA
:101C7000408A9DED140BB7EEC00B57F009FE68EEDD
:101C8000808A9DED120BB7EEC00B57F001FE08EEF7
:101C9000808AB7EEC80AB0EE4A8B0BEE408BB0EEEE
:101CA000080B57F095F88A4890ED001B20EE01BB19
:101CB0009DED140BB7EEC00B57F0EAFDB0EE40AA55
:101CC0009DED100BB7EEC00B57F0E2FD2AEE00AA17
:101CD0009DED140BB7EEC00B57F092FDF0EE40AA4D
:101CE0009DED100BB7EEC00B57F08AFD6AEE80AA8F
:101CF0009DED120BB7EEC00B57F0CAFD0AEEC0AA5D
:101D0000B7EECA0A2BEE00AB9DED140BB7EEC00B7D
:101D100057F076FDB0EE40BA9DED100BB7EEC00B5C
:101D200057F06EFD2BEE00BA9DED140BB7EEC00B15
:101D300057F0AEFDF0EE40BA9DED120BB7EEC00BC2
:101D400057F0A6FD6BEE80BA9DED100BB7EEC00B01
:101D500057F09EFD0BEEC0BAB7EECB1A9DED0C0B03
:101D60005B4890ED002B02EE410B8DED080BB0EEC1
:101D7000001B9DED080B56F0AFFBB0EE40CB9DED88
:101D8000100BB7EEC00B57F03BFDB0EE40BA9DED27
:101D9000140BB7EEC00B57F07BFD2BEE00BA9DED98
:101DA000140BB7EEC00B57F02BFDF0EE40BA9DEDD3
:101DB000120BB7EEC00B57F06BFD6BEE80BA9DEDCA
:101DC000100BB7EEC00B57F063FD0BEE80BAB7EE09
:101DD000CB1A9DED0A0B3E4890ED002B02EE410B15
:101DE0008DED080BB0EE001B9DED080B56F074FB5B
:101DF0003CEE00BB9DED120BB7EEC00B57F000FDA3
:101E0000B7EEC01A324890ED000B21EE00CB9DEDED
:101E1000100BB7EEC00B57F03BFDB7EEC01A9DEDAF
:101E20000E0B0CEE010B8DED080BB0EE001B9DEDC3
:101E3000080B56F051FB3BEE00BBB0EE001B2748F1
:101E400090ED000B56F048FB3BEE40BB244890ED74
:101E5000000B8DED080BB0EE001B9DED080B56F04E
:101E60003BFB3BEE40CBB0EE001B1E4890ED000B61
:101E700056F032FBB0EE001B01EE00CBB0EE080BCB
:101E800056F0A6FFB0EE40DBB0EE080B56F0A0FF18
:101E9000B3EE041B20EE010B0D4890ED001B20EE6D
:101EA00001EB9DED140BB7EEC00B57F0F1FCB0EE5B
:101EB00040BA9DED100BB7EEC00B57F0E9FC2BEECE
:101EC00000BA9DED140BB7EEC00B57F099FC0BE078
:101ED000B0A405080000000000004440B8A40508B4
:101EE00088070020C0A40508F0EE40BA9DED100B55
:101EF000B7EEC00B57F084FC6BEE80BA9DED120B71
:101F0000B7EEC00B57F0C4FC0BEEC0BAB7EECB0A6D
:101F10002EEE00EBB0EE080B56F05AFFFE4890EDA7
:101F2000001B20EE010BFD4890ED001B20EE01FB95
:101F30009DED140BB7EEC00B57F062FCB0EE40BA4B
:101F40009DED100BB7EEC00B57F0A2FC2BEE00BAC4
:101F50009DED100BB7EEC00B57F052FCF0EE40BAFF
:101F60009DED140BB7EEC00B57F092FC6BEE80BAF0
:101F70009DED120BB7EEC00B57F08AFC0BEE80BA4A
:101F8000B7EECB0A0FEE40EB2DEE0EBB9DED120B24
:101F9000B7EEC00B57F034FCB7EEC00ADE4890ED48
:101FA000001BB0EE002B21EE021B20EE01DB9DEDAD
:101FB000100BB7EEC00B57F06BFCB7EEC00A2DEE5E
:101FC000001B9DED0E0BB0EE002B02EE001B2BEE66
:101FD00001BB9DED120BB7EEC00B57F011FCB7EE35
:101FE000C00ACD4890ED001BB0EE082B21EE021B7D
:101FF00020EE01DB9DED100BB7EEC00B57F000FC9F
:10200000B7EEC00A2DEE000B8BEE001B3CEE410B31
:102010009FEDC31B30EE410B2AEE00BB9DED100B74
:10202000B7EEC00B57F0ECFBB0EE40AA9DED140BE1
:10203000B7EEC00B57F02CFC2AEE00AA9DED140B56
:10204000B7EEC00B57F0DCFBF0EE40AA9DED120B93
:10205000B7EEC00B57F01CFC6AEE80AA9DED100B8A
:10206000B7EEC00B57F014FC0AEE80AAB7EECA1AFE
:10207000A94890ED002BB0EE000B22EE000B21EEF4
:1020800000CB9DED0A0BB0EE001B01EE40CB9DEDA9
:10209000140BB7EEC00B57F0FBFBB0EE40AA9DED62
:1020A000100BB7EEC00B57F0F3FB2AEE00AA9DED24
:1020B000140BB7EEC00B57F0A3FBF0EE40AA9DED5A
:1020C000100BB7EEC00B57F09BFB6AEE80AA9DED9C
:1020D000120BB7EEC00B57F0DBFB0AEEC0AAB7EE4F
:1020E000CAAA9DED120BB7EEC00B57F089FBB7EEF5
:1020F000C00A894890ED001BB0EE002B21EE021BB8
:1021000020EE01DB9DED100BB7EEC00B57F0C0FBCE
:10211000B7EEC00A2DEE001B9DED0E0BB0EE002BAE
:1021200002EE001B2AEE01DB9DED120BB7EEC00B99
:1021300057F066FBB0EE40AA9DED100BB7EEC00B5A
:1021400057F05EFB2AEE000AB7EEC01A8DEE010BC7
:102150003CEE000B1FEDA11B30EE010B8BEE001BC4
:1021600038EE010B29EE008BB0EE001B6A4890EDB3
:10217000000B56F0B1F9B0EE081B20EE019B9DED6F
:10218000120BB7EEC00B57F03BFBB7EEC00A8DED5C
:10219000080BB0EE001B9DED080B56F09DF929EEE3
:1021A000009B9DED100BB7EEC00B57F029FBB7EE6F
:1021B000C00A8DED080BB0EE001B9DED080B56F02C
:1021C0008BF929EE000B88EE001B9DED1E0B30EE07
:1021D000410B8DED1A0B9DED140BB7EEC00B57F0B4
:1021E0000FFBB0EE408A9DED100BB7EEC00B57F021
:1021F00007FB28EE008A9DED140BB7EEC00B57F0DD
:1022000047FBF0EE408A9DED120BB7EEC00B57F086
:102210003FFB68EE808A9DED100BB7EEC00B57F0C8
:1022200037FB08EEC08AB7EEC81A9DED0C0B3A4892
:1022300090ED002B02EE410B8DED080BB0EE001B74
:102240009DED080B56F048F9B0EE409B9DED100B4C
:10225000B7EEC00B57F0D4FAB0EE408A9DED140BE8
:10226000B7EEC00B57F014FB68EE008A9DED140B1F
:10227000B7EEC00B57F0C4FAB0EE408A9DED120BDA
:10228000B7EEC00B57F004FB28EE008A9DED100B53
:10229000B7EEC00B57F0FCFA48EE008AB7EEE81A2A
:1022A0009DED0A0B1C4890ED002B02EE410B8DEDCD
:1022B000080BB0EE001B9DED080B56F00DF939EE42
:1022C000008B9DED120BB7EEC00B57F099FAB7EEED
:1022D000C00A114890ED001B20EE019B9DED100BF4
:1022E000B7EEC00B57F0D4FAB7EEC01A9DED0E0B47
:1022F00009EE010B8DED080BB0EE001B9DED080BF8
:1023000056F0EAF838EE008BB0EE001B034890ED73
:10231000000B56F0E1F807E0B0A40508B8A40508E2
:10232000000000000000794038EE408BFE4890ED40
:10233000000B8DED080BB0EE001B9DED080B56F069
:10234000CBF838EE409BB0EE001BF84890ED000B48
:1023500056F0C2F8B0EE001B01EE009BB0EE080B89
:1023600056F036FDB0EE40ABB0EE080B56F030FD47
:10237000B3EE041B20EE010BED4890ED001B20EEA8
:1023800001BB9DED140BB7EEC00B57F081FAB0EE18
:10239000408A9DED100BB7EEC00B57F079FA68EE4E
:1023A000008A9DED140BB7EEC00B57F029FAB0EE82
:1023B000408A9DED100BB7EEC00B57F021FA28EEC6
:1023C000008A9DED120BB7EEC00B57F061FA48EE94
:1023D000408AB7EEE80A2BEE00BBB0EE080B56F0D1
:1023E000F7FCD34890ED001B20EE010BD14890ED97
:1023F000001B20EE01CB9DED140BB7EEC00B57F088
:10240000FFF9B0EE408A9DED100BB7EEC00B57F010
:102410003FFA68EE008A9DED100BB7EEC00B57F047
:10242000EFF9B0EE408A9DED140BB7EEC00B57F0FC
:102430002FFA28EE008A9DED120BB7EEC00B57F075
:1024400027FA48EE008AB7EEE80A0CEE40BB2AEE07
:102450000B8B9DED120BB7EEC00B57F0D1F9B7EE19
:10246000C00AB34890ED001BB0EE002B21EE021B1A
:1024700020EE01AB9DED100BB7EEC00B57F008FA44
:10248000B7EEC00A2AEE001B9DED0E0BB0EE002B3E
:1024900002EE001B28EE018B9DED120BB7EEC00B78
:1024A00057F0AEF9B7EEC00AA14890ED001BB0EEB0
:1024B000082B21EE021B20EE01AB9DED100BB7EEB9
:1024C000C00B57F09DF9B7EEC00A2AEE000B88EE5C
:1024D000001B39EE410B1FED6E1B30EE410B9FEDE3
:1024E000961B20EE01AB9DED100BB7EEC00B57F025
:1024F00087F9B0EE408A9DED140BB7EEC00B57F094
:10250000C7F968EE008A9DED140BB7EEC00B57F0CB
:1025100077F9B0EE408A9DED120BB7EEC00B57F085
:10252000B7F928EE008A9DED100BB7EEC00B57F0FF
:10253000AFF948EE008AB7EEE80A7D4890ED001B3F
:10254000B0EE002B21EE021B20EE019B9DED0A0B4D
:10255000B0EE001B01EE409B9DED140BB7EEC00BDF
:1025600057F096F9B0EE408A9DED100BB7EEC00B18
:1025700057F08EF968EE008A9DED140BB7EEC00B94
:1025800057F03EF9B0EE408A9DED100BB7EEC00B50
:1025900057F036F928EE008A9DED120BB7EEC00B0E
:1025A00057F076F948EE408AB7EEE88A9DED120BB7
:1025B000B7EEC00B57F024F9B7EEC00A5C4890EDB7
:1025C000001BB0EE002B21EE021B20EE01BB9DEDA7
:1025D000100BB7EEC00B57F05BF9B7EEC00A2BEE4D
:1025E000001B9DED0E0BB0EE002B02EE001B28EE43
:1025F00001BB9DED120BB7EEC00B57F001F9B0EE29
:10260000408A9DED100BB7EEC00B57F0F9F828EE9D
:10261000000AB7EEC00A8BEE001B39EE010B9FEDEE
:10262000461B30EE010B8AEE009B9DED140BB7EEBE
:10263000C00B57F0E5F8B0EE408A9DED100BB7EEF9
:10264000C00B57F0DDF828EE008A9DED140BB7EEB5
:10265000C00B57F01DF9F0EE408A9DED120BB7EE5E
:10266000C00B57F015F968EE808A9DED100BB7EEA0
:10267000C00B57F00DF908EEC08AB7EEC81A9DEDF1
:102680000C0B2B4890ED002B02EE410B8DED060B51
:10269000B0EE001B9DED060B55F01EFFB0EE40ABFB
:1026A0009DED100BB7EEC00B57F0AAF8B0EE408AC4
:1026B0009DED140BB7EEC00B57F0EAF828EE008A38
:1026C0009DED140BB7EEC00B57F09AF8F0EE408A70
:1026D0009DED120BB7EEC00B57F0DAF868EE808A6A
:1026E0009DED100BB7EEC00B57F0D2F808EE808AC4
:1026F000B7EEC81A9DED0A0B0D4890ED002B02EEC7
:10270000410B8DED060BB0EE001B9DED060B55F059
:10271000E3FE3AEE008B9DED120BB7EEC00B57F0C7
:102720006FF8B7EEC00A0BE088070020C0A40508C8
:10273000B0A40508B8A4050800000000000044404B
:10274000FE4890ED001B20EE01AB9DED100BB7EEA7
:10275000C00B57F09DF8B7EEC01A9DED0E0B0AEEB8
:10276000010B8DED060BB0EE001B9DED060B55F039
:10277000B3FE38EE008BB0EE001BF14890ED000B7D
:1027800055F0AAFE38EE408BEE4890ED000B8DED33
:10279000060BB0EE001B9DED060B55F09DFE38EECE
:1027A00040ABB0EE001BE84890ED000B55F094FEF6
:1027B000B0EE001B01EE00ABB0EE080B56F008FBCC
:1027C000B0EE40BBB0EE080B56F002FBB3EE041BBC
:1027D00020EE010BD94890ED001B20EE01CB9DEDC2
:1027E000140BB7EEC00B57F053F8B0EE408A9DEDD6
:1027F000100BB7EEC00B57F04BF868EE008A9DED5A
:10280000140BB7EEC00B56F0FBFFB0EE408A9DED07
:10281000100BB7EEC00B56F0F3FF28EE008A9DEDCB
:10282000120BB7EEC00B57F033F848EE408AB7EE04
:10283000E80A2CEE00CBB0EE080B56F0C9FABF4800
:1028400090ED001B20EE010BBD4890ED001B20EE2B
:1028500001DB9DED140BB7EEC00B56F0D1FFB0EECF
:10286000408A9DED100BB7EEC00B57F011F828EE23
:10287000008A9DED100BB7EEC00B56F0C1FFF0EED5
:10288000408A9DED140BB7EEC00B57F001F868EECF
:10289000808A9DED120BB7EEC00B56F0F9FF08EEE3
:1028A000808AB7EEC80A0DEE40CB2BEE0C8B9DED67
:1028B000120BB7EEC00B56F0A3FFB7EEC00A9F484D
:1028C00090ED001BB0EE002B21EE021B20EE01BBB1
:1028D0009DED100BB7EEC00B56F0DAFFB7EEC00A55
:1028E0002BEE001B9DED0E0BB0EE002B02EE001B3D
:1028F00028EE018B9DED120BB7EEC00B56F080FF5A
:10290000B7EEC00A8D4890ED001BB0EE082B21EE0B
:10291000021B20EE01BB9DED100BB7EEC00B56F075
:102920006FFFB7EEC00A2BEE000B88EE001B3AEEED
:10293000410B9FED861B30EE410B8DED080BB0EE89
:10294000001B9DED080B55F0C7FDB0EE40AB9DEDB3
:10295000100BB7EEC00B56F053FFB0EE408A9DED62
:10296000140BB7EEC00B56F093FF28EE008A9DEDD6
:10297000120BB7EEC00B56F08BFFF0EE408A9DEDC8
:10298000140BB7EEC00B56F03BFF68EE808A9DED4E
:10299000100BB7EEC00B56F07BFF08EE808AB7EE47
:1029A000C80A664890ED001BB0EE002B21EE021B1A
:1029B00020EE01BB9DED0A0BB0EE001B01EE40BB0B
:1029C0009DED140BB7EEC00B56F062FFB0EE408ADF
:1029D0009DED100BB7EEC00B56F05AFF28EE008AA3
:1029E0009DED120BB7EEC00B56F052FFF0EE408A91
:1029F0009DED140BB7EEC00B56F002FF68EE808A17
:102A00009DED100BB7EEC00B56F0FAFE08EEC08A33
:102A1000B7EEC88A9DED120BB7EEC00B56F0F0FE74
:102A2000B7EEC00A454890ED001BB0EE002B21EE3A
:102A3000021B20EE01CB9DED100BB7EEC00B56F044
:102A400027FFB7EEC00A2CEE001B9DED0E0BB0EE7B
:102A5000002B02EE001B28EE01CB9DED120BB7EE12
:102A6000C00B56F0CDFEB0EE408A9DED100BB7EED8
:102A7000C00B56F0C5FE28EE000AB7EEC00A8CEE79
:102A8000001B3BEE010B1FEDD41B30EE010B8DED57
:102A9000080BB0EE001B9DED080B55F01DFD8AEEF6
:102AA000001B39EE018BB0EE001B254890ED000BAA
:102AB00055F012FD38EE008BB0EE001B224890ED71
:102AC000000B55F009FD38EE409BB0EE080B56F0B8
:102AD0007FF9B3EE041B20EE010B184890ED001BAC
:102AE00020EE01AB9DED140BB7EEC00B56F0D0FEFF
:102AF000B0EE408A9DED100BB7EEC00B56F0C8FE4D
:102B000028EE008A9DED140BB7EEC00B56F078FE50
:102B1000F0EE408A9DED100BB7EEC00B56F070FE44
:102B200068EE808A9DED120BB7EEC00B56F0B0FE3A
:102B300008EEC08AB7EEC80A0CE00000B0A4050891
:102B4000B8A4050888070020C0A4050800000000FC
:102B5000000079402AEE00ABB0EE080B56F038F9D1
:102B6000FE4890ED001B20EE010BFD4890ED001B90
:102B700020EE01BB9DED140BB7EEC00B56F040FEEE
:102B8000B0EE408A9DED100BB7EEC00B56F080FE04
:102B900028EE008A9DED100BB7EEC00B56F030FE0C
:102BA000F0EE408A9DED140BB7EEC00B56F070FEB0
:102BB00068EE808A9DED120BB7EEC00B56F068FEF2
:102BC00008EE808AB7EEC80AB0EE4A8B0BEE408B57
:102BD000B0EE080B56F0FCF8E04890ED001B20EE3C
:102BE00001BB9DED140BB7EEC00B56F051FEB0EEDD
:102BF00040AA9DED100BB7EEC00B56F049FE2AEE31
:102C000000AA9DED140BB7EEC00B56F0F9FDF0EEE7
:102C100040AA9DED100BB7EEC00B56F0F1FD6AEE29
:102C200080AA9DED120BB7EEC00B56F031FE0AEEF6
:102C3000C0AAB7EECA0A2BEE00AB9DED140BB7EE9F
:102C4000C00B56F0DDFDB0EE40BA9DED100BB7EEB7
:102C5000C00B56F0D5FD2BEE00BA9DED140BB7EE70
:102C6000C00B56F015FEF0EE40BA9DED120BB7EE1C
:102C7000C00B56F00DFE6BEE80BA9DED100BB7EE5B
:102C8000C00B56F005FE0BEEC0BAB7EECB1A9DEDA9
:102C90000C0BB24890ED002B02EE410B8DED060BB4
:102CA000B0EE001B9DED060B55F016FCB0EE40CBD0
:102CB0009DED100BB7EEC00B56F0A2FDB0EE40BA82
:102CC0009DED140BB7EEC00B56F0E2FD2BEE00BAF3
:102CD0009DED140BB7EEC00B56F092FDF0EE40BA2E
:102CE0009DED120BB7EEC00B56F0D2FD6BEE80BA25
:102CF0009DED100BB7EEC00B56F0CAFD0BEE80BA7F
:102D0000B7EECB1A9DED0A0B944890ED002B02EE26
:102D1000410B8DED060BB0EE001B9DED060B55F043
:102D2000DBFB3CEE00BB9DED120BB7EEC00B56F08B
:102D300067FDB7EEC00A894890ED001B20EE01CB7D
:102D40009DED100BB7EEC00B56F0A2FDB7EEC01A0A
:102D50009DED0E0B0CEE010B8DED060BB0EE001B86
:102D60009DED060B55F0B8FB3BEE00BBB0EE001B33
:102D70007B4890ED000B55F0AFFB3BEE40BB794834
:102D800090ED000B8DED060BB0EE001B9DED060BDC
:102D900055F0A2FB3BEE40CBB0EE001B724890ED2D
:102DA000000B55F099FBB0EE001B01EE00CBB0EE2E
:102DB000080B56F00DF8B0EE40DBB0EE080B56F005
:102DC00007F8B3EE041B20EE010B644890ED001BE6
:102DD00020EE01EB9DED140BB7EEC00B56F058FD45
:102DE000B0EE40BA9DED100BB7EEC00B56F050FDA3
:102DF0002BEE00BA9DED140BB7EEC00B56F000FDA4
:102E0000F0EE40BA9DED100BB7EEC00B56F0F8FC9B
:102E10006BEE80BA9DED120BB7EEC00B56F038FD8D
:102E20000BEEC0BAB7EECB0A2EEE00EBB0EE080BFD
:102E300055F0CEFF494890ED001B20EE010B4848AD
:102E400090ED001B20EE01FB9DED140BB7EEC00BC7
:102E500056F0D6FCB0EE40BA9DED100BB7EEC00BAD
:102E600056F016FD2BEE00BA9DED100BB7EEC00B21
:102E700056F0C6FCF0EE40BA9DED140BB7EEC00B59
:102E800056F006FD6BEE80BA9DED120BB7EEC00B4F
:102E900056F0FEFC0BEE80BAB7EECB0A0FEE40EB1D
:102EA0002DEE0EBB9DED120BB7EEC00B56F0A8FC3D
:102EB000B7EEC00A294890ED001BB0EE002B21EEC2
:102EC000021B20EE01DB9DED100BB7EEC00B56F0A0
:102ED000DFFCB7EEC00A2DEE001B9DED0E0BB0EE31
:102EE000002B02EE001B2BEE01BB9DED120BB7EE8B
:102EF000C00B56F085FCB7EEC00A184890ED001BD9
:102F0000B0EE082B21EE021B20EE01DB9DED100B35
:102F1000B7EEC00B56F074FCB7EEC00A2DEE000BF6
:102F20008BEE001B3CEE410B1FEDF81B30EE410B0E
:102F30002AEE00BB9DED100BB7EEC00B56F060FC07
:102F4000B0EE40AA9DED140BB7EEC00B56F0A0FCFE
:102F50006AEE00AA9DED140B08E00000B0A405087D
:102F6000B8A4050888070020C0A40508B7EEC00B68
:102F700056F046FCB0EE40AA9DED120BB7EEC00B2A
:102F800056F086FC2AEE00AA9DED100BB7EEC00BA2
:102F900056F07EFC4AEE00AAB7EEEA0AFE4890ED33
:102FA000001BB0EE002B21EE021B20EE01CB9DEDAD
:102FB0000A0BB0EE001B01EE40CB9DED140BB7EEFB
:102FC000C00B56F065FCB0EE40AA9DED100BB7EEBD
:102FD000C00B56F05DFC6AEE00AA9DED140BB7EE37
:102FE000C00B56F00DFCB0EE40AA9DED100BB7EEF5
:102FF000C00B56F005FC2AEE00AA9DED120BB7EEB1
:10300000C00B56F045FC4AEE40AAB7EEEAAA9DED89
:10301000120BB7EEC00B56F0F3FBB7EEC00ADE485A
:1030200090ED001BB0EE002B21EE021B20EE01DB29
:103030009DED100BB7EEC00B56F02AFCB7EEC00AA0
:103040002DEE001B9DED0E0BB0EE002B02EE001BD3
:103050002AEE01DB9DED120BB7EEC00B56F0D0FB54
:10306000B0EE40AA9DED100BB7EEC00B56F0C8FBBA
:103070002AEE000AB7EEC00A8DEE001B3CEE010BF3
:103080009FEDC61B30EE010B8BEE001B38EE010BE3
:103090008DED080BB0EE001B9DED080B55F01CFAF2
:1030A000B0EE408BB0EE001BBB4890ED000B55F02E
:1030B00013FAB0EE081B20EE01AB9DED120BB7EE3C
:1030C000C00B56F09DFBB7EEC00A8DED080BB0EEBD
:1030D000001B9DED080B55F0FFF92AEE00AB9DEDAE
:1030E000100BB7EEC00B56F08BFBB7EEC00A8DEDA0
:1030F000080BB0EE001B9DED080B55F0EDF92AEE24
:10310000000B88EE001B39EE010B9FEDA61B30EE85
:10311000010B8DED180BB0EE001B9DED1A0B55F059
:10312000DBF99DED1C1BB1EE002B21EE022B9DED7A
:10313000181B02EE410B8DED160B9DED160BB5EE37
:10314000C00BF1EE10FA7CDDB6EE001B9DED160B08
:1031500055F0C2F99DED1A1BB1EE411B31EE401B3B
:103160009DED1C0BB0EE002B20EE020B81EE002B30
:103170008E4880ED022BB0EE080B55F029FEB0EE24
:10318000408BB0EE080B55F023FEB3EE041B20EE8F
:10319000010B814890ED001B20EE01AB9DED140B5F
:1031A000B7EEC00B56F074FBB0EE409A9DED100BDD
:1031B000B7EEC00B56F06CFB29EE009A9DED140B98
:1031C000B7EEC00B56F01CFBF0EE409A9DED100BD5
:1031D000B7EEC00B56F014FB69EE809A9DED120B12
:1031E000B7EEC00B56F054FB09EEC09AB7EEC90A11
:1031F0002AEE00ABB0EE080B55F0EAFD664890ED04
:10320000001B20EE010B6A4890ED001B20EE01BB75
:103210009DED140BB7EEC00B56F0F2FAB0EE409AEB
:103220009DED100BB7EEC00B56F032FB29EE009A65
:103230009DED100BB7EEC00B56F0E2FAF0EE409A9F
:1032400000E0FDE39DED140BB7EEC00B56F020FB44
:1032500069EE809A9DED120BB7EEC00B56F018FB8D
:1032600009EE809AB7EEC90AB0EE4A9B0BEE409B7E
:10327000B0EE080B55F0ACFD474890ED001B20EE7A
:1032800001BB9DED140BB7EEC00B56F001FBB0EE89
:1032900040AA9DED100BB7EEC00B56F0F9FA2AEEDE
:1032A00000AA9DED140BB7EEC00B56F0A9FAF0EE94
:1032B00040AA9DED100BB7EEC00B56F0A1FA6AEED6
:1032C00080AA9DED120BB7EEC00B56F0E1FA0AEEA4
:1032D000C0AAB7EECA0A2BEE00AB9DED140BB7EEF9
:1032E000C00B56F08DFAB0EE40BA9DED100BB7EE64
:1032F000C00B56F085FA2BEE00BA9DED140BB7EE1D
:10330000C00B56F0C5FAF0EE40BA9DED120BB7EEC9
:10331000C00B56F0BDFA6BEE80BA9DED100BB7EE08
:10332000C00B56F0B5FA0BEEC0BAB7EECB1A9DED56
:103330000C0B194890ED002B02EE410B8DED080BA4
:10334000B0EE001B9DED080B55F0C6F8B0EE40CB7B
:103350009DED100BB7EEC00B56F052FAB0EE40BA2E
:103360009DED140BB7EEC00B56F092FA6BEE00BA5F
:103370009DED140BB7EEC00B56F042FAB0EE40BA1A
:103380009DED120BB7EEC00B56F082FA2BEE00BA91
:103390009DED100B0EE00000B0A405080000000039
:1033A000000044400000000000007940700A002046
:1033B000B8A40508B7EEC00B56F06AFA4BEE00BA97
:1033C000B7EEEB1A9DED0A0BFE4890ED002B02EED6
:1033D000410B8DED080BB0EE001B9DED080B55F079
:1033E0007BF83CEE00BB9DED120BB7EEC00B56F028
:1033F00007FAB7EEC00AF34890ED001B20EE01CBB0
:103400009DED100BB7EEC00B56F042FAB7EEC01AA6
:103410009DED0E0B0CEE010B8DED080BB0EE001BBD
:103420009DED080B55F058F83BEE00BBB0EE001BCD
:10343000E54890ED000B55F04FF83BEE40BBE348FC
:1034400090ED000B8DED080BB0EE001B9DED080B11
:1034500055F042F83BEE40CBB0EE001BDC4890ED5F
:10346000000B55F039F8B0EE001B01EE00CBB0EECA
:10347000080B55F0ADFCB0EE40DBB0EE080B55F09C
:10348000A7FCB3EE041B20EE010BCE4890ED001B11
:1034900020EE01EB9DED140BB7EEC00B56F0F8F9E2
:1034A000B0EE40BA9DED100BB7EEC00B56F0F0F940
:1034B0002BEE00BA9DED140BB7EEC00B56F0A0F941
:1034C000F0EE40BA9DED100BB7EEC00B56F098F938
:1034D0006BEE80BA9DED120BB7EEC00B56F0D8F92B
:1034E0000BEEC0BAB7EECB0A2EEE00EBB0EE080B37
:1034F00055F06EFCB34890ED001B20EE010BB24876
:1035000090ED001B20EE01FB9DED140BB7EEC00B00
:1035100056F076F9B0EE40BA9DED100BB7EEC00B49
:1035200056F0B6F92BEE00BA9DED100BB7EEC00BBE
:1035300056F066F9F0EE40BA9DED140BB7EEC00BF5
:1035400056F0A6F96BEE80BA9DED120BB7EEC00BEC
:1035500056F09EF90BEE80BAB7EECB0A0FEE40EBB9
:103560002DEE0EBB9DED120BB7EEC00B56F048F9D9
:10357000B7EEC00A934890ED001BB0EE002B21EE91
:10358000021B20EE01DB9DED100BB7EEC00B56F0D9
:103590007FF9B7EEC00A2DEE001B9DED0E0BB0EECD
:1035A000002B02EE001B2BEE01BB9DED120BB7EEC4
:1035B000C00B56F025F9B7EEC00A824890ED001B0B
:1035C000B0EE082B21EE021B20EE01DB9DED100B6F
:1035D000B7EEC00B56F014F9B7EEC00A2DEE000B93
:1035E0008BEE001B3CEE410B1FED921B30EE410BAE
:1035F0002AEE00BB9DED100BB7EEC00B56F000F9A4
:10360000B0EE40AA9DED140BB7EEC00B56F040F99A
:103610006AEE00AA9DED140BB7EEC00B56F0F0F861
:10362000B0EE40AA9DED120BB7EEC00B56F030F98C
:103630002AEE00AA9DED100BB7EEC00B56F028F94C
:103640004AEE00AAB7EEEA0A5E4890ED002BB0EE13
:10365000001B22EE011B20EE01CB9DED0A0BB0EE0C
:10366000001B01EE40CB9DED140BB7EEC00B56F0E6
:103670000FF9B0EE40AA9DED100BB7EEC00B56F05F
:1036800007F96AEE00AA9DED140BB7EEC00B56F0D9
:10369000B7F8B0EE40AA9DED100BB7EEC00B56F098
:1036A000AFF82AEE00AA9DED120BB7EEC00B56F054
:1036B000EFF84AEE40AAB7EEEAAA9DED120BB7EE7C
:1036C000C00B56F09DF8B7EEC00A3E4890ED001BC7
:1036D000B0EE002B21EE021B20EE01DB9DED100B66
:1036E000B7EEC00B56F0D4F8B7EEC00A2DEE001BB3
:1036F0009DED0E0BB0EE002B02EE001B2AEE01DB5F
:103700009DED120BB7EEC00B56F07AF8B0EE40AA62
:103710009DED100BB7EEC00B56F072F82AEE000AC2
:10372000B7EEC00A8DEE001B3CEE010B1FEDE51B52
:1037300030EE010B8BEE001B39EE010B28EE008BF7
:103740009DED120BB7EEC00B56F05AF8B7EEC00A5B
:103750001C4890ED001BB0EE082B21EE021B20EE62
:10376000019B9DED100BB7EEC00B56F049F8B7EE7C
:10377000C00A29EE000B88EE009BB0EE080B55F056
:1037800027FB144890ED021B20EE01ABB0EE080BB6
:1037900055F01EFB0B4890ED001B20EE01BB9DED8C
:1037A000140BB7EEC00B56F073F8B0EE408A9DEDE7
:1037B000100BB7EEC00B56F06BF828EE008A9DEDAB
:1037C000140B09E0B0A40508B8A405088807002078
:1037D000C0A40508700A0020B7EEC00B56F010F820
:1037E000F0EE408A9DED100BB7EEC00B56F008F8D6
:1037F00068EE808A9DED120BB7EEC00B56F048F8CC
:1038000008EEC08AB7EEC80A2BEE00BB9DED140B84
:10381000B7EEC00B55F0F4FFB0EE408A9DED100BF3
:10382000B7EEC00B55F0ECFF68EE008A9DED140B6F
:10383000B7EEC00B56F02CF8B0EE408A9DED120B9F
:10384000B7EEC00B56F024F828EE008A9DED100B61
:10385000B7EEC00B56F01CF848EE408AB7EEE81AF7
:103860009DED0C0BB0EE002B20EE020BFE4890ED10
:10387000002BB0EE003B03EE020BFC4890ED002B5A
:10388000B0EE003B22EE032BB0EE40CB02EE41CB7C
:103890009DED140BB7EEC00B55F0B2FFB0EE408AB1
:1038A0009DED100BB7EEC00B55F0F2FF28EE008A2D
:1038B0009DED100BB7EEC00B55F0A2FFF0EE408A65
:1038C0009DED140BB7EEC00B55F0E2FF68EE808A59
:1038D0009DED120BB7EEC00B55F0DAFF08EE808AB3
:1038E000B7EEC88A9DED120BB7EEC00B55F088FFFE
:1038F000B7EEC00ADD4890ED001BB0EE002B21EEC4
:10390000021B20EE01DB9DED100BB7EEC00B55F056
:10391000BFFFB7EEC00A2DEE001B9DED0E0BB0EE03
:10392000002B02EE001B28EE01DB9DED120BB7EE23
:10393000C00B55F065FFB0EE408A9DED100BB7EE61
:10394000C00B55F05DFF28EE000AB7EEC00A8DEE01
:10395000001B3CEE410B2BEE00BB9DED100BB7EEB8
:10396000C00B55F04DFFB0EE408A9DED140BB7EE45
:10397000C00B55F08DFF68EE008A9DED140BB7EE7D
:10398000C00B55F03DFFB0EE408A9DED120BB7EE37
:10399000C00B55F07DFF28EE008A9DED100BB7EEB1
:1039A000C00B55F075FF48EE008AB7EEE80AAF4845
:1039B00090ED001BB0EE002B21EE021B20EE01CBA0
:1039C0009DED0A0BB0EE001B01EE40CB9DED140BFC
:1039D000B7EEC00B55F05CFFB0EE408A9DED100BCA
:1039E000B7EEC00B55F054FF28EE008A9DED140B86
:1039F000B7EEC00B55F004FFF0EE408A9DED100BC2
:103A0000B7EEC00B55F0FCFE68EE808A9DED120B00
:103A1000B7EEC00B55F03CFF08EEC08AB7EEC88A7F
:103A20009DED120BB7EEC00B55F0EAFEB7EEC00AE3
:103A30008E4890ED001BB0EE002B21EE021B00E043
:103A4000FEE320EE01DB9DED100BB7EEC00B55F051
:103A50001FFFB7EEC00A2DEE001B9DED0E0BB0EE62
:103A6000002B02EE001B28EE01DB9DED120BB7EEE2
:103A7000C00B55F0C5FEB0EE408A9DED100BB7EEC1
:103A8000C00B55F0BDFE28EE000AB7EEC00A8DEE61
:103A9000001B3CEE010B9FED761B30EE010B8BEE15
:103AA00000CBB0EE080B55F093F9704890ED001B79
:103AB00020EE01BB9DED140BB7EEC00B55F0A0FE40
:103AC000B0EE408A9DED100BB7EEC00B55F0E0FE56
:103AD00068EE008A9DED100BB7EEC00B55F090FE1E
:103AE000B0EE408A9DED140BB7EEC00B55F0D0FE42
:103AF00028EE008A9DED120BB7EEC00B55F0C8FE04
:103B000048EE008AB7EEE80A0BEE00CB2AEE0C8BEB
:103B10009DED120BB7EEC00B55F072FEB7EEC00A6A
:103B2000524890ED001BB0EE082B21EE021B20EE58
:103B300001AB9DED100BB7EEC00B55F061FEB7EE7B
:103B4000C00A2AEE001B88EE010B39EE400B4A48F2
:103B500080ED000B9DED140BB7EEC00B55F050FE41
:103B6000B0EE408A9DED100BB7EEC00B55F048FE4D
:103B700028EE008A9DED140BB7EEC00B55F088FEC1
:103B8000F0EE408A9DED120BB7EEC00B55F080FEB3
:103B900068EE808A9DED100BB7EEC00B55F078FEF5
:103BA00008EEC08AB7EEC81A9DED0C0BB0EE002BE4
:103BB00020EE020B2C4890ED002BB0EE003B03EE04
:103BC000020B2A4890ED002BB0EE003B22EE032BB7
:103BD000B0EE409B02EE419B9DED140BB7EEC00B87
:103BE00055F00EFEB0EE408A9DED100BB7EEC00B07
:103BF00055F04EFE28EE008A9DED100BB7EEC00B7F
:103C000055F0FEFDF0EE408A9DED140BB7EEC00BB3
:103C100055F03EFE68EE808A9DED120BB7EEC00BAC
:103C200055F036FE08EE808AB7EEC88A9DED120B7D
:103C3000B7EEC00B55F0E4FDB7EEC00A0B4890EDAF
:103C4000001BB0EE002B21EE021B20EE01AB9DED20
:103C5000100BB7EEC00B55F01BFEB7EEC00A2AEEF4
:103C6000001B9DED0E0B09E0B8A40508B0A40508E3
:103C70000000000000004440700A0020B0EE002B5D
:103C800002EE001B28EE01AB9DED120BB7EEC00B50
:103C900055F0B6FDB0EE408A9DED100BB7EEC00BAF
:103CA00055F0AEFD28EE000AB7EEC00A8AEE001B02
:103CB00039EE411BFE4890ED020B21EE00AB9DED6D
:103CC000100BB7EEC00B55F09BFDB0EE408A9DED9A
:103CD000140BB7EEC00B55F0DBFD28EE008A9DED0E
:103CE000140BB7EEC00B55F08BFDF0EE408A9DED46
:103CF000120BB7EEC00B55F0CBFD68EE808A9DED40
:103D0000100BB7EEC00B55F0C3FD08EE808AB7EE7E
:103D1000C80AE84890ED001BB0EE002B21EE021B14
:103D200020EE019B9DED0A0BB0EE001B01EE409BC7
:103D30009DED140BB7EEC00B55F0AAFDB0EE408A16
:103D40009DED100BB7EEC00B55F0A2FD28EE008ADA
:103D50009DED140BB7EEC00B55F052FDF0EE408A0E
:103D60009DED100BB7EEC00B55F04AFD68EE808A52
:103D70009DED120BB7EEC00B55F08AFD08EEC08A20
:103D8000B7EEC88A9DED120BB7EEC00B55F038FDAB
:103D9000B7EEC00AC74890ED001BB0EE002B21EE35
:103DA000021B20EE01BB9DED100BB7EEC00B55F0D2
:103DB0006FFDB7EEC00A2BEE001B9DED0E0BB0EEB3
:103DC000002B02EE001B28EE01BB9DED120BB7EE9F
:103DD000C00B55F015FDB0EE408A9DED100BB7EE0F
:103DE000C00B55F00DFD28EE000AB7EEC00A8BEEB1
:103DF000001B39EE010B1FED621B30EE010B8AEE4A
:103E0000009B9DED140BB7EEC00B55F0F9FCB0EE26
:103E1000408A9DED100BB7EEC00B55F0F1FC28EE7B
:103E2000008A9DED140BB7EEC00B55F031FDF0EE9E
:103E3000408A9DED120BB7EEC00B55F029FD68EEE0
:103E4000808A9DED100BB7EEC00B55F021FD08EEFA
:103E5000C08AB7EEC81A9DED0C0B964890ED002B6A
:103E600002EE410B8DED080BB0EE001B9DED080B33
:103E700054F032FBB0EE40AB9DED100BB7EEC00B33
:103E800055F0BEFCB0EE408A9DED140BB7EEC00BB2
:103E900055F0FEFC28EE008A9DED140BB7EEC00B2A
:103EA00055F0AEFCF0EE408A9DED120BB7EEC00B64
:103EB00055F0EEFC68EE808A9DED100BB7EEC00B5E
:103EC00055F0E6FC08EE808AB7EEC81A9DED0A0BA5
:103ED000784890ED002B02EE410B8DED080BB0EE13
:103EE000001B9DED080B54F0F7FA3AEE008B9DEDA8
:103EF000120BB7EEC00B55F083FCB7EEC00A6D484D
:103F000090ED001B20EE01AB9DED100BB7EEC00B4A
:103F100055F0BEFCB7EEC01A9DED0E0B0AEE010B7C
:103F20008DED080BB0EE001B9DED080B54F0D4FA9C
:103F300038EE008BB0EE001B5F4890ED000B54F0A4
:103F4000CBFA38EE408B5D4890ED000B8DED080B01
:103F5000B0EE001B9DED080B54F0BEFA38EE40ABFE
:103F6000B0EE001B564890ED000B54F0B5FAB0EEE1
:103F7000001B01EE00ABB0EE080B54F029FFB0EED1
:103F800040BBB0EE080B54F023FFB3EE041B20EE51
:103F9000011B484890ED000B21EE00CB9DED140B6A
:103FA000B7EEC00B55F074FCB0EE408A9DED100BDF
:103FB000B7EEC00B55F06CFC68EE008A9DED140B5B
:103FC000B7EEC00B55F01CFCB0EE408A9DED100B17
:103FD000B7EEC00B55F014FC28EE008A9DED120BD5
:103FE000B7EEC00B55F054FC48EE408AB7EEE80A35
:103FF0002CEE00CBB0EE080B54F0EAFE2D4890ED0D
:10400000001B20EE010B2C4890ED001B20EE01DB85
:104010009DED140BB7EEC00B55F0F2FBB0EE408AED
:104020009DED100BB7EEC00B55F032FC28EE008A68
:104030009DED100BB7EEC00B55F0E2FBF0EE408AA1
:104040009DED140BB7EEC00B55F022FC68EE808A94
:104050009DED120BB7EEC00B55F01AFC08EE808AEE
:10406000B7EEC80A0DEE40CB2BEE0C8B9DED120B7C
:10407000B7EEC00B55F0C4FBB7EEC00A0D4890ED8B
:10408000001BB0EE002B21EE021B20EE01BB9DEDCC
:10409000100BB7EEC00B55F0FBFBB7EEC00A2BEED2
:1040A000001B9DED0E0BB0EE002B02EE001B09E095
:1040B000700A0020B0A40508B8A4050888070020ED
:1040C000C0A4050828EE018B9DED120BB7EEC00BC6
:1040D00055F096FBB7EEC00AFE4890ED001BB0EE1F
:1040E000082B21EE021B20EE01BB9DED100BB7EE5D
:1040F000C00B55F085FBB7EEC00A2BEE000B88EE27
:10410000001B3AEE410B9FEDF41B30EE41AB9DEDF1
:10411000100BB7EEC00B55F073FBB0EE408A9DED6F
:10412000140BB7EEC00B55F0B3FB68EE008A9DEDA3
:10413000140BB7EEC00B55F063FBB0EE408A9DED5B
:10414000120BB7EEC00B55F0A3FB28EE008A9DEDD5
:10415000100BB7EEC00B55F09BFB48EE008AB7EE94
:10416000E80ADC4890ED001BB0EE002B21EE021BAC
:1041700020EE01BB9DED0A0BB0EE001B01EE40BB33
:104180009DED140BB7EEC00B55F082FBB0EE408AEC
:104190009DED100BB7EEC00B55F07AFB28EE008AB0
:1041A0009DED140BB7EEC00B55F02AFBF0EE408AE4
:1041B0009DED100BB7EEC00B55F022FB68EE808A28
:1041C0009DED120BB7EEC00B55F062FB08EEC08AF6
:1041D000B7EEC88A9DED120BB7EEC00B55F010FB81
:1041E000B7EEC00ABB4890ED001BB0EE002B21EEED
:1041F000021B20EE01CB9DED100BB7EEC00B55F06E
:1042000047FBB7EEC00A2CEE001B9DED0E0BB0EE87
:10421000002B02EE001B28EE01CB9DED120BB7EE3A
:10422000C00B55F0EDFAB0EE408A9DED100BB7EEE5
:10423000C00B55F0E5FA28EE000AB7EEC00A00E020
:104240000EE08CEE001B3BEE010B9FEDA51B30EE4C
:10425000010B8AEE001B39EE410BA34880ED040BE5
:10426000A24801212022CDE908104AA96846FCF79E
:1042700060F89D4C46A80FC894ED042B94ED021BEA
:1042800094ED000B12F046FA9DED100BB7EEC00B4B
:1042900055F0B6FAB0EE408A9DED140BB7EEC00BA8
:1042A00055F0F6FA28EE008A9DED140BB7EEC00B20
:1042B00055F0A6FAF0EE408A9DED120BB7EEC00B5A
:1042C00055F0E6FA68EE808A9DED100BB7EEC00B54
:1042D00055F0DEFA08EE808AB7EEC82A7D4890EDE8
:1042E000000BB0EE081B20EE010B22EE000BB0EE2F
:1042F000001B80EE019BB0EE080B54F069FD754881
:1043000090ED001B20EE01AB9DED140BB7EEC00B42
:1043100055F0BEFAB0EE408A9DED100BB7EEC00B23
:1043200055F0B6FA28EE008A9DED140BB7EEC00BDF
:1043300055F066FAF0EE408A9DED100BB7EEC00B1B
:1043400055F05EFA68EE808A9DED120BB7EEC00B59
:1043500055F09EFA08EEC08AB7EEC80A2AEE000BA6
:10436000B0EE001B80EE012B39EE429B9DED140B4D
:10437000B7EEC00B55F044FAB0EE408A9DED100B3D
:10438000B7EEC00B55F03CFA28EE008A9DED140BF9
:10439000B7EEC00B55F07CFAF0EE408A9DED120BA3
:1043A000B7EEC00B55F074FA68EE808A9DED100BE5
:1043B000B7EEC00B55F06CFA08EEC08AB7EEC82A0B
:1043C0004B4890ED000B9DED0C1BB0EE003B13EE47
:1043D000010B404890ED001BB0EE40AB01EE02AB8C
:1043E0009DED140BB7EEC00B55F00AFAB0EE408A03
:1043F0009DED100BB7EEC00B55F002FA28EE008AC7
:104400009DED140BB7EEC00B55F042FAF0EE408A6A
:104410009DED120BB7EEC00B55F03AFA68EE808AAC
:104420009DED100BB7EEC00B55F032FA08EEC08AC6
:10443000B7EEC82A274890ED000BB0EE081B20EE1F
:10444000010B22EE000BB0EE001B80EE01BBB0EEC4
:10445000080B54F0BDFC1F4890ED001B20EE01CB73
:104460009DED140BB7EEC00B55F0CAF9B0EE408AC3
:104470009DED100BB7EEC00B55F00AFA28EE008A3E
:104480009DED100BB7EEC00B55F0BAF9F0EE408A77
:104490009DED140BB7EEC00B55F0FAF968EE808A6B
:1044A0009DED120BB7EEC00B55F0F2F908EE808AC5
:1044B000B7EEC80A2CEE000BB0EE001B80EE012B0D
:1044C0003BEE42BBB0EE080B54F082FC9DED0E1BA0
:1044D00010E00000B0A405080000000000007940D2
:1044E0000000000000004440700A0020100A002074
:1044F000B8A40508B0EE002B21EE028BFE4890ED2B
:10450000001B00EE418B9DED120BB7EEC00B55F07A
:1045100077F9B7EEC00AF94890ED001B20EE01CB09
:104520009DED100BB7EEC00B55F0B2F9B7EEC00A17
:104530000CEE408BB0EE080B54F04AFCEF4890EDC7
:10454000001B20EE01CB9DED120BB7EEC00B55F01A
:1045500057F9B7EEC00A2CEE00CB9DED100BB7EE6D
:10456000C00B55F04DF9B7EEC00A0CEE008B2BEEE8
:10457000088B9DED120BB7EEC00B55F041F9B7EE6D
:10458000C00ADE4890ED001BB0EE082B21EE021BA6
:1045900020EE01BB9DED100BB7EEC00B55F078F986
:1045A000B7EEC00A2BEE000BB0EE001B80EE01BB95
:1045B000B0EE080B54F00CFCD04890ED001B20EE40
:1045C00001CB9DED120BB7EEC00B55F019F9B7EE0C
:1045D000C00A2CEE00CB9DED100BB7EEC00B55F0D2
:1045E0000FF9B7EEC00A2CEE000BB0EE001B80EE08
:1045F000012B3BEE020B88EE001B3AEE01ABB0EE56
:10460000080B54F0E5FBBD4890ED001B20EE01BB0C
:104610009DED140BB7EEC00B55F0F2F8B0EE408AEA
:104620009DED100BB7EEC00B55F032F968EE008A25
:104630009DED100BB7EEC00B55F0E2F8B0EE408ADE
:104640009DED140BB7EEC00B55F022F928EE008A51
:104650009DED120BB7EEC00B55F01AF948EE008A2B
:10466000B7EEE80A0BEE00AB29EE0A9B9DED100BAE
:10467000B7EEC00B55F0C4F8B0EE408A9DED140BB8
:10468000B7EEC00B55F004F928EE008A9DED140B2F
:10469000B7EEC00B55F0B4F8F0EE408A9DED120B6A
:1046A000B7EEC00B55F0F4F868EE808A9DED100B64
:1046B000B7EEC00B55F0ECF808EE808AB7EEC81ADA
:1046C0008E4890ED000B21EE00AB9DED0A0BB0EE95
:1046D000001B01EE00AB9DED100BB7EEC00B55F0CB
:1046E0008FF8B0EE408A9DED140BB7EEC00B55F07D
:1046F000CFF828EE008A9DED140BB7EEC00B55F0F5
:104700007FF8F0EE408A9DED120BB7EEC00B55F02E
:10471000BFF868EE808A9DED100BB7EEC00B55F028
:10472000B7F808EE808AB7EEC80A744890ED001B0F
:10473000B0EE082B21EE021B20EE011BB0EE000BA9
:1047400081EE00BBB0EE080B54F042FB6B4890EDDD
:10475000001B20EE01CB9DED140BB7EEC00B55F006
:1047600097F8B0EE408A9DED100BB7EEC00B55F0F8
:104770008FF828EE008A9DED140BB7EEC00B55F0B4
:104780003FF8F0EE408A9DED100BB7EEC00B55F0F0
:1047900037F868EE808A9DED120BB7EEC00B55F02E
:1047A00077F808EEC08AB7EEC80A2CEE000BB0EE20
:1047B000001B80EE012B3BEE42BBB0EE080B54F029
:1047C00007FB9DED0E1BB0EE002B21EE028B4A483D
:1047D00090ED001B00EE418B9DED120BB7EEC00B70
:1047E00055F00EF8B7EEC00A444890ED001B20EEDD
:1047F00001CB9DED100BB7EEC00B55F049F8B7EEAD
:10480000C00A0CEE408BB0EE080B54F0E1FA3B48C6
:1048100090ED001B20EE01CB9DED120BB7EEC00B0F
:1048200054F0EEFFB7EEC00A2CEE00CB9DED100B5E
:10483000B7EEC00B54F0E4FFB7EEC00A0CEE008BED
:104840002BEE088B9DED120BB7EEC00B54F0D8FF8A
:10485000B7EEC00A294890ED001BB0EE082B21EE00
:10486000021B20EE01BB9DED100BB7EEC00B55F007
:104870000FF8B7EEC00A2BEE000BB0EE001B80EE77
:1048800001BBB0EE080B54F0A3FA1C4890ED001BDE
:1048900020EE01CB9DED120BB7EEC00B54F0B0FF34
:1048A000B7EEC00A2CEE00CB9DED100BB7EEC00B9F
:1048B00054F0A6FFB7EEC00A2CEE000BB0EE001BC2
:1048C00080EE012B3BEE020B88EE001B3AEE01ABB3
:1048D000B0EE080B54F07CFA084890ED001B20EE77
:1048E00001BB9DED140BB7EEC00B54F0D1FFB0EE41
:1048F000408A9DED100B03E0B8A40508B0A405089C
:10490000B7EEC00B54F0C4FF68EE008A9DED140BA7
:10491000B7EEC00B54F074FFB0EE408A9DED100B63
:10492000B7EEC00B54F06CFF28EE008A9DED120B21
:10493000B7EEC00B54F0ACFF48EE408AB7EEE80A81
:104940000BEE00AB9FEDFE0B3AEE400B89EE00AB99
:104950009DED140BB7EEC00B54F052FFB0EE408A41
:104960009DED100BB7EEC00B54F04AFF28EE008A05
:104970009DED140BB7EEC00B54F08AFFF0EE408AA9
:104980009DED120BB7EEC00B54F082FF68EE808AEB
:104990009DED100BB7EEC00B54F07AFF08EEC08A05
:1049A000B7EEC81AE84890ED002BB0EE080B22EEE7
:1049B000000B21EE000BB0EE001B80EE012B3AEE57
:1049C000429BB0EE080B54F003FADF4890ED001B59
:1049D00020EE01AB9DED140BB7EEC00B54F010FFB1
:1049E000B0EE408A9DED100BB7EEC00B54F050FFB7
:1049F00028EE008A9DED100BB7EEC00B54F000FFBF
:104A0000F0EE408A9DED140BB7EEC00B54F040FF62
:104A100068EE808A9DED120BB7EEC00B54F038FFA4
:104A200008EE808AB7EEC80A2AEE000BB0EE001B33
:104A300080EE012B39EE020B8DED080BB0EE001B62
:104A40009DED080B53F048FDB0EE408B9DED120B31
:104A5000B7EEC00B54F0D4FEB7EEC00ABA4890EDE2
:104A6000001BB0EE082B21EE021B20EE019B9DEDFA
:104A7000100BB7EEC00B54F00BFFB7EEC00A29EED7
:104A8000000BB0EE001B80EE019BB0EE080B54F063
:104A90009FF9AD4890ED001B20EE01AB9DED120B90
:104AA000B7EEC00B54F0ACFEB7EEC00A2AEE00AB76
:104AB0009DED100BB7EEC00B54F0A2FEB7EEC00A8E
:104AC0002AEE000BB0EE001B80EE012B39EE020B3C
:104AD0008DED080BB0EE001B9DED080B53F0FCFCB8
:104AE00088EE009B9DED140BB7EEC00B54F088FED2
:104AF000B0EE408A9DED100BB7EEC00B54F080FE77
:104B000028EE008A9DED140BB7EEC00B54F0C0FEEA
:104B1000F0EE408A9DED120BB7EEC00B54F0B8FEDC
:104B200068EE808A9DED100BB7EEC00B54F0B0FE1E
:104B300008EEC08AB7EEC82A844890ED000B9DEDC0
:104B40000C1BB0EE003B13EE010B7F4890ED001BF9
:104B5000B0EE40AB01EE02AB9DED140BB7EEC00B17
:104B600054F04EFEB0EE408A9DED100BB7EEC00B38
:104B700054F046FE68EE008A9DED140BB7EEC00BB4
:104B800054F086FEB0EE408A9DED120BB7EEC00BDE
:104B900054F07EFE28EE008A9DED100BB7EEC00BA0
:104BA00054F076FE48EE408AB7EEE80A664890ED8B
:104BB000001BB0EE082B21EE021B20EE011BB0EE15
:104BC000000B81EE00BBB0EE080B54F001F95E481B
:104BD00090ED001B20EE01CB9DED140BB7EEC00B4A
:104BE00054F00EFEB0EE408A9DED100BB7EEC00BF8
:104BF00054F04EFE68EE008A9DED100BB7EEC00B30
:104C000054F0FEFDB0EE408A9DED140BB7EEC00BE4
:104C100054F03EFE28EE008A9DED120BB7EEC00B5D
:104C200054F036FE48EE008AB7EEE80A2CEE000B90
:104C3000B0EE001B80EE012B3BEE42BBB0EE080B4A
:104C400054F0C6F89DED0E1BB0EE002B21EE028B4A
:104C50003E4890ED001B00EE418B9DED120BB7EE30
:104C6000C00B54F0CDFDB7EEC00A374890ED001BE5
:104C700020EE01CB9DED100BB7EEC00B54F008FEFB
:104C8000B7EEC00A0CEE408BB0EE080B54F0A0F863
:104C90002D4890ED001B20EE01CB9DED120BB7EEE1
:104CA000C00B54F0ADFDB7EEC00A2CEE00CB9DED6D
:104CB000100BB7EEC00B54F0A3FDB7EEC00A0CEE1C
:104CC000008B2BEE088B9DED120BB7EEC00B54F052
:104CD00097FDB7EEC00A1C4890ED001BB0EE082B04
:104CE00021EE021B20EE01BB9DED100BB7EEC00BB9
:104CF00054F0CEFDB7EEC00A2BEE000BB0EE001B59
:104D000080EE01BBB0EE080B54F062F80E4890ED57
:104D1000001B20EE01CB9DED120BB7EEC00B54F043
:104D20006FFDB7EEC00A2CEE00CB9DED100BB7EE79
:104D3000C00B54F065FDB7EEC00A2CEE000B07E087
:104D40000000000000004440B0A40508B8A4050815
:104D5000B0EE001B80EE012B3BEE020B88EE001B39
:104D60003AEE01ABB0EE080B54F032F8FE4890ED8D
:104D7000001B20EE01BB9DED140BB7EEC00B54F0F1
:104D80003FFDB0EE408A9DED100BB7EEC00B54F026
:104D90007FFD28EE008A9DED100BB7EEC00B54F09E
:104DA0002FFDF0EE408A9DED140BB7EEC00B54F0D2
:104DB0006FFD68EE808A9DED120BB7EEC00B54F0CC
:104DC00067FD08EE808AB7EEC81AB0EE4A0B0BEE0C
:104DD000010B8DED080BB0EE001B9DED080B53F0A1
:104DE0007BFBB0EE40BB9DED100BB7EEC00B54F05B
:104DF00007FDB0EE408A9DED140BB7EEC00B54F0EA
:104E000047FD28EE008A9DED120BB7EEC00B54F063
:104E10003FFDF0EE408A9DED140BB7EEC00B54F051
:104E2000EFFC68EE808A9DED100BB7EEC00B54F0DE
:104E30002FFD08EE808AB7EEC80ACB4890ED001B24
:104E400020EE018B9DED0A0BB0EE001B01EE008BF6
:104E5000B0EE080B53F0BCFFC34890ED001B20EEF2
:104E600001CB9DED140BB7EEC00B54F011FDB0EE6D
:104E700040AA9DED100BB7EEC00B54F009FD2AEED1
:104E800000AA9DED120BB7EEC00B54F001FDF0EE41
:104E900040AA9DED140BB7EEC00B54F0B1FC6AEEC6
:104EA00080AA9DED100BB7EEC00B54F0A9FC0AEEE2
:104EB000C0AAB7EECA0AB0EE48AB0CEE00AB9DED4F
:104EC000100BB7EEC00B54F09BFCB0EE408A9DED8A
:104ED000140BB7EEC00B54F0DBFC28EE008A9DEDFE
:104EE000120BB7EEC00B54F0D3FCF0EE408A9DEDF0
:104EF000140BB7EEC00B54F083FC68EE808A9DED76
:104F0000100BB7EEC00B54F0C3FC08EE808AB7EE6E
:104F1000C80A954890ED001BB0EE082B21EE021B4D
:104F200020EE010BB0EE001B80EE01CBB0EE080BC3
:104F300053F04EFF8C4890ED001B20EE01DB9DED01
:104F4000140BB7EEC00B54F0A3FCB0EE408A9DEDFD
:104F5000100BB7EEC00B54F09BFC28EE008A9DEDC1
:104F6000120BB7EEC00B54F093FCF0EE408A9DEDAF
:104F7000140BB7EEC00B54F043FC68EE808A9DED35
:104F8000100BB7EEC00B54F03BFC08EEC08AB7EE36
:104F9000C80A2DEE000BB0EE001B80EE012B3CEE9C
:104FA00042CBB0EE080B53F013FF9DED0E1BB0EE9D
:104FB000002B21EE028B6D4890ED001B00EE418B23
:104FC0009DED120BB7EEC00B54F01AFCB7EEC00A01
:104FD000654890ED001B20EE01DB9DED100BB7EE58
:104FE000C00B54F055FCB7EEC00A0DEE408BB0EE8E
:104FF000080B53F0EDFE5C4890ED001B20EE01DB4A
:105000009DED120BB7EEC00B54F0FAFBB7EEC00AE1
:105010002DEE00DB9DED100BB7EEC00B54F0F0FB56
:10502000B7EEC00A0DEE008B2CEE088B9DED120B37
:10503000B7EEC00B54F0E4FBB7EEC00A4A4890ED5F
:10504000001BB0EE082B21EE021B20EE01CB9DEDE4
:10505000100BB7EEC00B54F01BFCB7EEC00A2CEEE1
:10506000000BB0EE001B80EE01CBB0EE080B53F04E
:10507000AFFE3D4890ED001B20EE01DB9DED120BD5
:10508000B7EEC00B54F0BCFBB7EEC00A2DEE00DB50
:105090009DED100BB7EEC00B54F0B2FBB7EEC00A9B
:1050A0002DEE000BB0EE001B80EE012B3CEE020B50
:1050B00088EE001B3AEE010B1FEDDF1B30EE410BBB
:1050C0008DED080BB0EE001B9DED080B53F004FABC
:1050D0008BEE001B39EE010BB7EE001B30EE010B1F
:1050E0008DED1C0B9DED140BB7EEC00B54F088FB3F
:1050F000B0EE408A9DED100BB7EEC00B54F080FB74
:1051000028EE008A9DED140BB7EEC00B54F0C0FBE7
:10511000F0EE408A9DED120BB7EEC00B54F0B8FBD9
:1051200068EE808A9DED100BB7EEC00B54F0B0FB1B
:1051300008EEC08AB7EEC82A0C4890ED000B9DED32
:105140000C1BB0EE003B13EE010B074890ED001B6B
:10515000B0EE409B01EE029B9DED140BB7EEC00B31
:1051600054F04EFB04E00000B0A40508B8A4050804
:10517000B0EE408A9DED100BB7EEC00B54F040FB33
:1051800028EE008A9DED140BB7EEC00B54F080FBA7
:10519000F0EE408A9DED120BB7EEC00B54F078FB99
:1051A00068EE808A9DED100BB7EEC00B54F070FBDB
:1051B00008EEC08AB7EEC82AFE4890ED000BB0EEAC
:1051C000081B20EE010B22EE000BB0EE001B80EE60
:1051D00001ABB0EE080B53F0FBFDF64890ED001B61
:1051E00020EE01BB9DED140BB7EEC00B54F008FB95
:1051F000B0EE408A9DED100BB7EEC00B54F048FBAB
:1052000068EE008A9DED100BB7EEC00B54F0F8FA73
:10521000B0EE408A9DED140BB7EEC00B54F038FB96
:1052200028EE008A9DED120BB7EEC00B54F030FB58
:1052300048EE008AB7EEE80A2BEE000BB0EE001B3A
:1052400080EE012B3AEE42ABB0EE080B53F0C0FDFE
:105250009DED0E1BB0EE002B21EE028BD64890ED9B
:10526000001B00EE418B9DED120BB7EEC00B54F00E
:10527000C7FAB7EEC00ACF4890ED001B20EE01BB85
:105280009DED100BB7EEC00B54F002FBB7EEC00A59
:105290000BEE408BB0EE080B53F09AFDC54890ED35
:1052A000001B20EE01BB9DED120BB7EEC00B54F0BE
:1052B000A7FAB7EEC00A2BEE00BB9DED100BB7EEC0
:1052C000C00B54F09DFAB7EEC00A0BEE008B2AEE2D
:1052D000088B9DED120BB7EEC00B54F091FAB7EEB0
:1052E000C01AB44890ED000BB0EE082B20EE020B74
:1052F00021EE00AB9DED100BB7EEC00B54F0C8FAD9
:10530000B7EEC00A2AEE000BB0EE001B80EE01AB38
:10531000B0EE080B53F05CFDA64890ED001B20EEAC
:1053200001BB9DED120BB7EEC00B54F069FAB7EE5E
:10533000C00A2BEE00BB9DED100BB7EEC00B54F076
:105340005FFAB7EEC00A2BEE000BB0EE001B80EE4A
:10535000012B3AEE020B88EE001B39EE019BB0EEFA
:10536000080B53F035FD934890ED001B20EE01AB88
:105370009DED140BB7EEC00B54F042FAB0EE408A2C
:105380009DED100BB7EEC00B54F082FA28EE008AA8
:105390009DED100BB7EEC00B54F032FAF0EE408AE0
:1053A0009DED140BB7EEC00B54F072FA68EE808AD4
:1053B0009DED120BB7EEC00B54F06AFA08EE808A2E
:1053C000B7EEC80A0AEE009B9FED7C0B29EE00ABFE
:1053D0009DED100BB7EEC00B54F012FAB0EE408A00
:1053E0009DED140BB7EEC00B54F052FA28EE008A74
:1053F0009DED140BB7EEC00B54F002FAF0EE408AAC
:105400009DED120BB7EEC00B54F042FA68EE808AA5
:105410009DED100BB7EEC00B54F03AFA08EE808AFF
:10542000B7EEC81A634890ED000B21EE009B9DED8E
:105430000A0BB0EE001B01EE009B9DED100BB7EECA
:10544000C00B54F0DDF9B0EE408A9DED140BB7EEC1
:10545000C00B54F01DFA68EE008A9DED140BB7EEF8
:10546000C00B54F0CDF9B0EE408A9DED120BB7EEB3
:10547000C00B54F00DFA28EE008A9DED100BB7EE2C
:10548000C00B54F005FA48EE008AB7EEE80A494826
:1054900090ED001BB0EE082B21EE021B20EE010B5D
:1054A000B0EE001B80EE01BBB0EE080B53F090FC99
:1054B000404890ED001B20EE01CB9DED140BB7EEA4
:1054C000C00B54F0E5F9B0EE408A9DED100BB7EE3D
:1054D000C00B54F0DDF968EE008A9DED140BB7EEB9
:1054E000C00B54F08DF9B0EE408A9DED100BB7EE75
:1054F000C00B54F085F928EE008A9DED120BB7EE33
:10550000C00B54F0C5F948EE408AB7EEE80A2CEE1D
:10551000000BB0EE001B80EE012B3BEE42BBB0EE69
:10552000080B53F055FC9DED0E1BB0EE002B21EE49
:10553000028B214890ED001B00EE418B9DED120B7C
:10554000B7EEC00B54F05CF9B7EEC00A194890ED05
:10555000001B20EE01CB9DED100BB7EEC00B54F0FD
:1055600097F9B7EEC00A0CEE408BB0EE080B53F083
:105570002FFC104890ED001B20EE01CB9DED120B8F
:10558000B7EEC00B54F03CF9B7EEC00A2CEE00CBDE
:105590009DED100BB7EEC00B54F032F9B7EEC00A18
:1055A0000CEE008B2BEE088B9DED120BB7EEC00BB3
:1055B00008E00000B0A40508B8A405080000000039
:1055C0000000444054F01CF9B7EEC00AFE4890EDCC
:1055D000001BB0EE082B21EE021B20EE01BB9DED5F
:1055E000100BB7EEC00B54F053F9B7EEC00A2BEE18
:1055F000000BB0EE001B80EE01BBB0EE080B53F0C9
:10560000E7FBF14890ED001B20EE01CB9DED120B66
:10561000B7EEC00B54F0F4F8B7EEC00A2CEE00CB96
:105620009DED100BB7EEC00B54F0EAF8B7EEC00AD0
:105630002CEE000BB0EE001B80EE012B3BEE020BBC
:1056400088EE001B39EE019BB0EE080B53F0C0FB57
:10565000DD4890ED001B20EE01BB9DED140BB7EE75
:10566000C00B54F015F9B0EE408A9DED100BB7EE6B
:10567000C00B54F00DF928EE008A9DED140BB7EE27
:10568000C00B54F0BDF8F0EE408A9DED100BB7EE64
:10569000C00B54F0B5F868EE808A9DED120BB7EEA2
:1056A000C00B54F0F5F808EEC08AB7EEC80A0BEE4E
:1056B000009B1FED3E0B39EE401B8AEE010BC348E9
:1056C00090ED001B30EE419B9DED140BB7EEC00B2F
:1056D00054F096F8B0EE408A9DED100BB7EEC00B7B
:1056E00054F08EF828EE008A9DED140BB7EEC00B37
:1056F00054F0CEF8F0EE408A9DED120BB7EEC00BE1
:1057000054F0C6F868EE808A9DED100BB7EEC00B22
:1057100054F0BEF808EEC08AB7EEC82AAB4890ED48
:10572000000B9DED0C1BB0EE003B13EE010BA648E9
:1057300090ED001BB0EE40AB01EE02AB9DED140B03
:10574000B7EEC00B54F05CF8B0EE408A9DED100B44
:10575000B7EEC00B54F054F868EE008A9DED140BC0
:10576000B7EEC00B54F094F8B0EE408A9DED120BEA
:10577000B7EEC00B54F08CF828EE008A9DED100BAC
:10578000B7EEC00B54F084F848EE408AB7EEE80A52
:105790008D4890ED001BB0EE082B21EE021B20EE91
:1057A000010BB0EE001B80EE01BBB0EE080B53F016
:1057B0000FFB854890ED001B20EE01CB9DED140BF7
:1057C000B7EEC00B54F01CF8B0EE408A9DED100B04
:1057D000B7EEC00B54F05CF828EE008A9DED100B7C
:1057E000B7EEC00B54F00CF8F0EE408A9DED140BB0
:1057F000B7EEC00B54F04CF868EE808A9DED120BAA
:10580000B7EEC00B54F044F808EE808AB7EEC80A31
:105810002CEE000BB0EE001B80EE012B3BEE42BBEA
:10582000B0EE080B53F0D4FA9DED0E1BB0EE002B3A
:1058300021EE028B654890ED001B00EE418B9DED43
:10584000120BB7EEC00B53F0DBFFB7EEC01A5E4889
:1058500090ED000B21EE00CB9DED100BB7EEC00BD1
:1058600054F016F8B7EEC00A0CEE408BB0EE080B01
:1058700053F0AEFA544890ED001B20EE01CB9DEDA5
:10588000120BB7EEC00B53F0BBFFB7EEC00A2CEE05
:1058900000CB9DED100BB7EEC00B53F0B1FFB7EE90
:1058A000C00A0CEE008B2BEE088B9DED120BB7EEB1
:1058B000C00B53F0A5FFB7EEC01A434890ED002B84
:1058C000B0EE080B22EE000B21EE00BB9DED100B9D
:1058D000B7EEC00B53F0DCFFB7EEC00A2BEE000BA7
:1058E000B0EE001B80EE01BBB0EE080B53F070FA77
:1058F000354890ED001B20EE01CB9DED120BB7EE6D
:10590000C00B53F07DFFB7EEC00A2CEE00CB9DED2F
:10591000100BB7EEC00B53F073FFB7EEC00A2CEEBE
:10592000000BB0EE001B80EE012B3BEE020B88EE6D
:10593000001B3AEE01ABB0EE080B53F049FA2248D7
:1059400090ED001B20EE01BB9DED140BB7EEC00BDC
:1059500053F056FFB0EE408A9DED100BB7EEC00B32
:1059600053F096FF28EE008A9DED100BB7EEC00BAA
:1059700053F046FFF0EE408A9DED140BB7EEC00BDE
:1059800053F086FF68EE808A9DED120BB7EEC00BD8
:1059900053F07EFF08EE808AB7EEC80A0BEE00AB2C
:1059A000B0EE000B2AEE00BB9DED120BB7EEC00B64
:1059B00053F026FFB7EEC00A034890ED001B20EE1F
:1059C000018B9DED100B03E0B0A40508B8A40508F9
:1059D000B7EEC00B53F05CFFB7EEC00A28EE000B29
:1059E000B0EE002B80EE021B9DED0E0B30EE418BD6
:1059F000B0EE080B53F0ECF9FE4890ED001B20EEE2
:105A000001AB9DED120BB7EEC00B53F0F9FEB7EEF4
:105A1000C00A2AEE00AB9DED100BB7EEC00B53F0A1
:105A2000EFFEB7EEC00A2AEE000BB0EE001B80EED0
:105A3000012B38EE020B8DED080BB0EE001B9DED37
:105A4000080B52F049FDB0EE40AB9DED140BB7EEE4
:105A5000C00B53F0D5FEB0EE408A9DED100BB7EEB3
:105A6000C00B53F0CDFE28EE008A9DED140BB7EE6F
:105A7000C00B53F00DFFF0EE408A9DED120BB7EE18
:105A8000C00B53F005FF68EE808A9DED100BB7EE5A
:105A9000C00B53F0FDFE08EEC08AB7EEC80AD54829
:105AA00090ED001B20EE010BB0EE002B80EE021BF0
:105AB0009DED0C0B31EE00CBB0EE080B53F088F9E6
:105AC000CC4890ED001B20EE01DB9DED140BB7EEF2
:105AD000C00B53F095FEB0EE408A9DED100BB7EE73
