:020000040800F2
:1000000088050020AD020008693700082B3300087E
:1000100065370008B9030008B94C0008000000006B
:10002000000000000000000000000000CD390008C2
:10003000BD030008000000006B370008CF3900083E
:10004000C7020008C7020008C7020008C70200086C
:10005000C7020008C7020008C7020008C70200085C
:10006000C7020008C7020008C7020008C70200084C
:10007000C7020008C7020008C7020008C70200083C
:10008000C7020008C7020008C7020008C70200082C
:10009000C7020008C7020008C7020008C70200081C
:1000A000C7020008C7020008C7020008C70200080C
:1000B000C7020008513B0008C7020008C702000839
:1000C000C7020008C7020008C7020008C7020008EC
:1000D000C7020008C7020008A94C0008C7020008B0
:1000E000BF030008C702000800000000C7020008A4
:1000F000C7020008613B0008C7020008C7020008E9
:10010000C7020008C7020008C7020008C7020008AB
:10011000C7020008C7020008C7020008C70200089B
:10012000C7020008C7020008C7020008C70200088B
:10013000C7020008C7020008C7020008C70200087B
:1001400000000000000000000000000000000000AF
:10015000C7020008C7020008C7020008C70200085B
:10016000C7020008C7020008C7020008C70200084B
:10017000C7020008C7020008C7020008000000000C
:10018000C7020008C7020008C7020008C70200082B
:10019000C7020008C7020008C7020008C70200081B
:1001A000C7020008C7020008C7020008C70200080B
:1001B000C7020008C7020008C7020008C7020008FB
:1001C000C7020008C7020008C7020008C7020008EB
:1001D000C7020008C7020008C7020008C7020008DB
:1001E000C7020008C7020008C7020008C7020008CB
:1001F000C7020008C7020008C7020008C7020008BB
:10020000C7020008C7020008C7020008C7020008AA
:10021000C7020008C7020008C7020008C70200089A
:10022000C7020008C7020008C7020008000000005B
:10023000C7020008C702000800000000C70200084B
:10024000C7020008C7020008C7020008C70200086A
:10025000C7020008C7020008C7020008C70200085A
:10026000C7020008C7020008C7020008C70200084A
:10027000C7020008C7020008C7020008000000000B
:10028000C702000800000000C702000800000000CC
:1002900000000000C7020008DFF80CD000F07AF878
:1002A00000480047154D0008880500200648804793
:1002B00006480047FEE7FEE7FEE7FEE7FEE7FEE74B
:1002C000FEE7FEE7FEE7FEE7BD3A000899020008F8
:1002D0002DE9F05F0546002092469B46884606467B
:1002E000814640241BE0284641464746224600F00E
:1002F00041F853465A46C01A914110D31146184648
:10030000224600F028F82D1A67EB01084F462246D6
:100310000120002100F01FF817EB00094E41201EBC
:10032000A4F10104DFDC484631462A464346BDE8D5
:10033000F09FD2B201E000F8012B491EFBD27047BA
:100340000022F6E710B513460A4604461946FFF7A1
:10035000F0FF204610BD202A04DB203A00FA02F10B
:10036000002070479140C2F1200320FA03F31943A3
:1003700090407047202A04DB203A21FA02F0002145
:10038000704721FA02F3D040C2F1200291400843A5
:1003900019467047064C074D06E0E06840F001033F
:1003A00094E8070098471034AC42F6D3FFF778FF83
:1003B000084E0008284E000800BFFEE7704710B541
:1003C0004FF4005000F094F810BD704710B504468B
:1003D0000CB9012010BD94F83500022803D080200C
:1003E00060650120F6E734492068884205D3334927
:1003F0002068884201D8012000E00020C0B104201C
:1004000084F835002C49206888420AD32B4920689B
:10041000884206D82068006820F001002168086042
:1004200048E02068006820F001002168086041E091
:100430002068006820F00E00216808601E492068CE
:1004400088420AD31D492068884206D8206800687F
:1004500020F001002168086005E02068006820F0B5
:10046000010021680860206E006820F48070216E11
:10047000086094F85C100120884011490860D4E9B4
:1004800019104860E06E40B1E06E006820F48070A2
:10049000E16E0860D4E91C10486000BF002084F8B9
:1004A000340000BF012084F83500206D10B12046D3
:1004B000216D884700208DE710000240B8040240FB
:1004C0000454025870B5044600F04CF9064625461F
:1004D000681C10B104480078054400BF00F042F9E0
:1004E000801BA842FAD370BD28000020704700008E
:1004F00010B5044604480068204020B1024804605A
:100500002046FFF7F3FF10BD88000058F8B50246FB
:100510000B460021002600240020824D00BFFCE095
:10052000012707FA01F61F6807EA0604B4427CD1E6
:100530005F68022F02D05F68122F1AD14FEAD10CE8
:1005400002F1200757F82C004F074FEAD76C0F270E
:1005500007FA0CF7B8434FEA417C4FEADC6C1F699D
:1005600007FA0CF738434FEAD10C02F1200747F89D
:100570002C0010684FEA410C032707FA0CF7B84328
:100580001F7907F003074FEA410C07FA0CF73843CD
:1005900010605F68012F08D05F68022F05D05F6888
:1005A000112F02D05F68122F17D190684FEA410CCB
:1005B000032707FA0CF7B8434FEA410CDF6807FA44
:1005C0000CF738439060506801278F40B8431F797B
:1005D000C7F300178F4038435060D0684FEA410C92
:1005E000032707FA0CF7B8434FEA410C9F6807FA54
:1005F0000CF73843D0605F6807F08057B7F1805F31
:1006000095D100BF484F3F6847F00207DFF818C197
:10061000CCF8007067463F6807F00207009700BFFC
:1006200000BF424F4FEA910C00E075E057F82C00F4
:100630008F074FEA177C0F2707FA0CF7B8433C4F98
:10064000BA4201D100272DE03A4FBA4201D1012729
:1006500028E0394FBA4201D1022723E0374FBA428E
:1006600001D103271EE0364FBA4201D1042719E019
:10067000344FBA4201D1052714E0334FBA4201D1B9
:1006800006270FE0314FBA4201D107270AE0304F69
:10069000BA4201D1082705E02E4FBA4201D10927FD
:1006A00000E00A274FEA817C4FEA1C7C07FA0CF72E
:1006B00038431E4F4FEA910C47F82C002868A0439E
:1006C0005F6807F48037B7F5803F00D1204328608A
:1006D0006868A0435F6807F40037B7F5003F00D1B2
:1006E000204368604FF0B0473868A0435F6807F464
:1006F0008017B7F5801F00D120434FF0B047386016
:100700007868A0435F6807F40017B7F5001F00D1B1
:1007100020434FF0B0477860491C1029FFF400AF28
:10072000F8BD000080000058F44402580804005846
:10073000000002580004025800080258000C025839
:10074000001002580014025800180258001C0258E9
:1007500000200258002402580AB1018300E04183BE
:10076000704700000148006870470000200000202A
:100770000348006803490978084401490860704744
:10078000200000202800002010B5032000F094F87D
:10079000002000F007F808B1012010BD00F028F893
:1007A0000020FAE770B504460E4800784FF47A71DD
:1007B000B1FBF0F00C490968B1FBF0F5284601F0F7
:1007C00079FE08B1012070BD102C07D2002221460D
:1007D000501E00F033F80548046001E00120F2E704
:1007E0000020F0E7280000202C000020240000203A
:1007F00008B500BF0848006840F0020006490860DC
:100800000846006800F00200009000BF00BF05200D
:1008100000F052F808BD0000F444025801460846B2
:10082000002809DB00F01F0301229A4043099B00C6
:1008300003F1E023C3F8002100BF70472DE9F05F0A
:1008400080460D46164604F039FA074639462A46D0
:10085000334601F00700C0F1070ABAF1040F02D9CC
:100860004FF0040A01E0C0F1070AD14600F1040A82
:10087000BAF1070F02D24FF0000A01E0A0F1030A1B
:10088000D4464FF0010A0AFA09FAAAF1010A0AEA63
:10089000020A0AFA0CFA4FF0010B0BFA0CFBABF14F
:1008A000010B0BEA030B4AEA0B042146404604F015
:1008B0000DFABDE8F09F000000BF00F00702064BF4
:1008C00019684FF6FF031940044B0B4343EA02211A
:1008D000014B196000BF70470CED00E00000FA0505
:1008E00010B501F067F90949096801F470614FF426
:1008F000807292FAA2F2B2FA82F2D140044A515CBA
:10090000C840044908600846006810BD18440258F1
:10091000F84D00082C00002010B501F003F907493C
:10092000096801F07001102292FAA2F2B2FA82F282
:10093000D140034A515CC84010BD00002044025819
:10094000F84D000870B50146002201200023002464
:100950009FED811AB0EE410A9FED7F1AF0EE410A39
:100960007E4D2D6805F003027C4D2D68C5F30530E2
:100970007A4D2D1D2D6805F01003784D14352D6826
:10098000C5F3CC0515FB03F501EE105AB8EE411A7C
:10099000B0EE410A22B1012A4DD0022A7DD169E090
:1009A0006E4D283D2D68C5F340152DB36B4D283D88
:1009B0002D68C5F3C1066A4D25FA06F4B4FBF0F5BF
:1009C00001EE105AF8EE411A9FED661A80EE012AE8
:1009D000624D10352D68C5F3080501EE105AB8EECA
:1009E000411A32EE011AB7EE002A31EE021A21EE58
:1009F000811AF0EE410A1DE0594DB5FBF0F501EE0C
:100A0000105AF8EE411A9FED571A80EE012A534D05
:100A100010352D68C5F3080501EE105AB8EE411ADD
:100A200032EE011AB7EE002A31EE021A21EE811AD7
:100A3000F0EE410A5EE04C4DB5FBF0F501EE105AC8
:100A4000B8EE412A9FED471AC0EE011A434D10350A
:100A50002D68C5F3080501EE105AB8EE411A31EEC3
:100A6000811AF7EE001A31EE211A22EE011AF0EE89
:100A7000410A3FE03D4DB5FBF0F501EE105AF8EEAE
:100A8000411A9FED381A80EE012A344D10352D6839
:100A9000C5F3080501EE105A00E00CE0B8EE411A6B
:100AA00032EE011AB7EE002A31EE021A21EE811A57
:100AB000F0EE410A1EE02C4DB5FBF0F501EE105AA8
:100AC000B8EE412A9FED271AC0EE011A234D1035CA
:100AD0002D68C5F3080501EE105AB8EE411A31EE43
:100AE000811AF7EE001A31EE211A22EE011AF0EE09
:100AF000410A00BF00BF194D10352D68C5F34625CA
:100B00006D1C01EE105AB8EE411AC0EE811ABCEE0F
:100B1000E11A81ED001A114D10352D68C5F3064517
:100B20006D1C01EE105AB8EE411AC0EE811ABCEEEF
:100B3000E11A81ED011A094D10352D68C5F30665DE
:100B40006D1C01EE105AB8EE411AC0EE811ABCEECF
:100B5000E11A81ED021A70BD00000000284402581D
:100B60000090D0030000004600093D0000127A000A
:100B700070B5014600220120002300249FED811A58
:100B8000B0EE410A9FED7F1AF0EE410A7E4D2D68CE
:100B900005F003027C4D2D68C5F305507A4D2D1DDF
:100BA0002D6805F48073784D1C352D68C5F3CC0590
:100BB00015FB03F501EE105AB8EE411AB0EE410AEA
:100BC00022B1012A4DD0022A7DD169E06E4D283D27
:100BD0002D68C5F340152DB36B4D283D2D68C5F329
:100BE000C1066A4D25FA06F4B4FBF0F501EE105A81
:100BF000F8EE411A9FED661A80EE012A624D183513
:100C00002D68C5F3080501EE105AB8EE411A32EE10
:100C1000011AB7EE002A31EE021A21EE811AF0EE27
:100C2000410A1DE0594DB5FBF0F501EE105AF8EE02
:100C3000411A9FED571A80EE012A534D18352D6841
:100C4000C5F3080501EE105AB8EE411A32EE011A4A
:100C5000B7EE002A31EE021A21EE811AF0EE410AB7
:100C60005EE04C4DB5FBF0F501EE105AB8EE412AAE
:100C70009FED471AC0EE011A434D18352D68C5F394
:100C8000080501EE105AB8EE411A31EE811AF7EE5E
:100C9000001A31EE211A22EE011AF0EE410A3FE06D
:100CA0003D4DB5FBF0F501EE105AF8EE411A9FEDFF
:100CB000381A80EE012A344D18352D68C5F3080521
:100CC00001EE105A00E00CE0B8EE411A32EE011AC3
:100CD000B7EE002A31EE021A21EE811AF0EE410A37
:100CE0001EE02C4DB5FBF0F501EE105AB8EE412A8E
:100CF0009FED271AC0EE011A234D18352D68C5F354
:100D0000080501EE105AB8EE411A31EE811AF7EEDD
:100D1000001A31EE211A22EE011AF0EE410A00BF4C
:100D200000BF194D18352D68C5F346256D1C01EE21
:100D3000105AB8EE411AC0EE811ABCEEE11A81EDEC
:100D4000001A114D18352D68C5F306456D1C01EECE
:100D5000105AB8EE411AC0EE811ABCEEE11A81EDCC
:100D6000011A094D18352D68C5F306656D1C01EE95
:100D7000105AB8EE411AC0EE811ABCEEE11A81EDAC
:100D8000021A70BD00000000284402580090D003F1
:100D90000000004600093D0000127A002DE9F041F4
:100DA000044600250026206800F00060B0F1006FC6
:100DB00030D1606E48B1B0F5801F0DD0B0F5001F86
:100DC00010D0B0F5401F15D113E0F948006840F489
:100DD0000030F74908600FE00221201D02F0C6FC38
:100DE000054609E0022104F1240002F057FD054602
:100DF00002E001E0012500BF00BF55B9EC482430F6
:100E0000006820F44010616E0843E949243108600D
:100E100000E02E43208800F48070B0F5807F2DD153
:100E2000606D05281AD2DFE800F0030A10171800D9
:100E3000DF48006840F40030DD49086010E0002120
:100E4000201D02F093FC05460AE0002104F1240075
:100E500002F024FD054603E002E001E0012500BFA9
:100E600000BF55B9D2482430006820F00700616DFA
:100E70000843CF492431086000E02E43208800F465
:100E80000070B0F5007F33D1A06D802817D003DC4F
:100E900040B140281CD10CE0C02817D0B0F5807FAD
:100EA00016D114E0C248006840F40030C049086020
:100EB00010E00021201D02F059FC05460AE0002147
:100EC00004F1240002F0EAFC054603E002E001E040
:100ED000012500BF00BF55B9B5482430006820F493
:100EE000E070A16D0843B2492431086000E02E4350
:100EF000208800F48060B0F5806F38D1D4F8A40069
:100F0000B0F5800F19D004DC50B1B0F5001F1DD131
:100F10000DE0B0F5C00F17D0B0F5000F16D114E0FA
:100F2000A348006840F40030A149086010E00021A7
:100F3000201D02F01BFC05460AE0002104F12400FC
:100F400002F0ACFC054603E002E001E0012500BF31
:100F500000BF5DB996482C30006820F46000D4F8DA
:100F6000A410084392492C31086000E02E432088E9
:100F700000F40060B0F5006F38D1D4F8A800B0F1EB
:100F8000007F19D004DC50B1B0F1807F1DD10DE09D
:100F9000B0F1407F17D0B0F1806F16D114E08448D3
:100FA000006840F400308249086010E00021201DF4
:100FB00002F0DCFB05460AE0002104F1240002F007
:100FC0006DFC054603E002E001E0012500BF00BF23
:100FD0005DB977482C30006820F0E060D4F8A810A4
:100FE000084373492C31086000E02E43206800F06C
:100FF0000070B0F1007F27D1A06CA0B1102804D000
:10100000202809D030280FD10CE06948006840F44E
:1010100000306749086009E00221201D02F0A6FBAC
:10102000054603E002E001E0012500BF00BF55B91D
:101030005F482030006820F03000A16C08435C4914
:101040002031086000E02E43208800F48050B0F585
:10105000805F36D1E06DB0F5005F19D004DC50B18F
:10106000B0F5805F1DD10DE0B0F5405F17D0B0F551
:10107000804F16D114E04E48006840F400304C49CF
:10108000086010E00021201D02F070FB05460AE018
:10109000002104F1240002F001FC054603E002E017
:1010A00001E0012500BF00BF55B941482430006868
:1010B00020F4E040E16D08433D492431086000E040
:1010C0002E43208800F40050B0F5005F34D1206E2C
:1010D000B0F5403F1DD007DC68B1B0F5803F0BD0C4
:1010E000B0F5003F18D10DE0B0F5802F12D0B0F56B
:1010F000A02F11D10FE011E00121201D02F036FBDD
:1011000005460BE0012104F1240002F0C7FB05466F
:1011100004E003E002E001E0012500BF00BF55B993
:1011200023482430006820F4E020216E0843204941
:101130002431086000E02E43208800F48040B0F5A0
:10114000804F38D1D4F8AC00B0F1405F1DD007DC3F
:1011500068B1B0F1805F0BD0B0F1005F18D10DE045
:10116000B0F1804F12D0B0F1A04F11D10FE011E0DB
:101170000121201D02F0FAFA05460BE0012104F1DD
:10118000240002F08BFB054604E003E002E001E0EE
:10119000012500BF00BF6DB905482C30006820F064
:1011A000E040D4F8AC10084301492C31086002E05B
:1011B0002C4402582E43208800F40040B0F5004F24
:1011C00026D1E06E98B1B0F1805F03D0B0F1005F3E
:1011D0000ED106E0FA48006840F40030F849086093
:1011E00008E00121201D02F0C1FA054602E001E0FD
:1011F000012500BF00BF55B9F1482430006820F038
:101200004050E16E0843EE492431086000E02E436F
:10121000206800F08070B0F1807F27D1606CA0B1B1
:10122000012804D0022809D003280FD10CE0E4489B
:10123000006840F40030E249086009E00221201D06
:1012400002F094FA054603E002E001E0012500BF48
:1012500000BF55B9DA482030006820F00300616C07
:101260000843D7492031086000E02E43206800F48D
:101270008000B0F5800F7DD1D248006840F48070C6
:10128000D0490860FFF76EFA074606E0FFF76AFAF2
:10129000C01B642801D9032505E0CA48006800F492
:1012A00080700028F2D000BF8DBBC5484430006874
:1012B00000F44070B4F8B01001F44071884214D0CA
:1012C000BF484430006820F44078BD48443000688E
:1012D00040F48030BA49443108600846006820F480
:1012E000803008600846C0F80080D4F8B000B0F53F
:1012F000807F15D1FFF736FA074609E0FFF732FA8B
:10130000C01B41F28831884202D9032507E038E04A
:10131000AB4844300068C0F340000028EED000BF66
:101320004DBB00BFB4F8B00000F44070B0F5407F92
:101330000ED1A3481C38006820F47C51A24AD4F88E
:10134000B000104041EA10109D491C39086007E0C8
:101350009B481C38006820F47C5099491C3908606F
:10136000974844300068B4F8B010C1F30B0108434B
:10137000934901E006E002E04431086002E02E43B8
:1013800000E02E43207800F0010068B3A06F182819
:1013900019D005DC48B1082808D0102816D10BE078
:1013A000202811D0282811D10FE011E00121201DA3
:1013B00002F0DCF905460BE0012104F1240002F003
:1013C0006DFA054604E003E002E001E0012500BFFC
:1013D00000BF55B97A482830006820F03800A16F66
:1013E000084377492831086000E02E43207800F058
:1013F0000200022828D1606F062815D2DFE800F02D
:1014000003040A11121311E00121201D02F0AEF9AC
:1014100005460BE0012104F1240002F03FFA0546E5
:1014200004E003E002E001E0012500BF00BF55B980
:1014300063482830006820F00700616F0843604966
:101440002831086000E02E43207800F004000428D2
:101450002AD1D4F89000062815D2DFE800F0030462
:101460000A11121311E00121201D02F07FF9054637
:101470000BE0012104F1240002F010FA054604E01B
:1014800003E002E001E0012500BF00BF5DB94C4868
:101490002C30006820F00700D4F890100843484929
:1014A0002C31086000E02E43207800F02000202836
:1014B00036D1D4F88C00B0F1405F1DD007DC68B1A4
:1014C000B0F1805F0BD0B0F1005F18D10DE0B0F14A
:1014D000804F12D0B0F1A04F11D10FE011E00021E8
:1014E000201D02F043F905460BE0022104F124001F
:1014F00002F0D4F9054604E003E002E001E0012532
:1015000000BF00BF5DB92E482830006820F0E040E1
:10151000D4F88C1008432A492831086000E02E4393
:10152000207800F04000402836D1D4F89800B0F57B
:10153000406F1DD007DC68B1B0F5806F0BD0B0F5FF
:10154000006F18D10DE0B0F5805F12D0B0F5A05F4C
:1015500011D10FE011E00021201D02F007F905462E
:101560000BE0022104F1240002F098F9054604E0A2
:1015700003E002E001E0012500BF00BF5DB91048B3
:101580002C30006820F4E050D4F8981008430C493F
:101590002C31086000E02E43207800F08000802885
:1015A0003BD1D4F89C00B0F5C04F24D00EDCA0B1E4
:1015B000B0F5005F12D0B0F5804F1FD114E00000ED
:1015C0002C44025800480258FFFCFF0FB0F5004FB2
:1015D00012D0B0F5204F11D10FE011E00021201DF5
:1015E00002F0C4F805460BE0022104F1240002F0E9
:1015F00055F9054604E003E002E001E0012500BFE3
:1016000000BF4DB9B248006820F46040D4F89C1087
:101610000843AF49086000E02E43207800F008003E
:10162000082816D1D4F88000B0F5805F06D10221D9
:1016300004F1240002F032F906430AE0A448001F36
:10164000006820F44050D4F880100843A049091FD6
:101650000860207800F01000102814D1D4F894000D
:10166000B0F5807F06D1022104F1240002F016F9C2
:10167000064308E09648006820F44070D4F89410BF
:10168000084393490860206800F40020B0F5002F5B
:1016900026D1D4F8A00030B1B0F5803F09D0B0F524
:1016A000003F0ED10CE00021201D02F05FF805463E
:1016B00009E0022104F1240002F0F0F8054602E0FE
:1016C00001E0012500BF00BF4DB98148006820F44A
:1016D0004030D4F8A01008437D49086000E02E4354
:1016E000206800F48020B0F5802F2DD1D4F884003C
:1016F000B0F5801F06D0B0F5001F0CD0B0F5401F2C
:1017000011D10FE072482C38006840F40030704965
:101710002C39086009E0012104F1240002F0BEF830
:10172000054602E001E0012500BF00BF5DB9684841
:10173000001F006820F44010D4F884100843644966
:10174000091F086000E02E43206800F48030B0F5E7
:10175000803F24D1E06C18B1B0F5803F0FD108E094
:101760005B482C38006840F4003059492C39086037
:1017700007E00221201D01F0F9FF054601E00125E7
:1017800000BF00BF55B952480C38006820F48030C3
:10179000E16C08434E490C39086000E02E43206894
:1017A00000F00050B0F1005F05D1022104F12400E7
:1017B00002F074F80643206800F40030B0F5003FF2
:1017C00027D1E06FA0B1B0F5807F06D0B0F5007FE3
:1017D0000CD0B0F5407F0CD109E03D482C380068B2
:1017E00040F400303A492C39086004E003E002E09C
:1017F00001E0012500BF00BF55B93548001F006852
:1018000020F44070E16F08433149091F086000E08F
:101810002E43206800F48010B0F5801F09D12C48B9
:101820000838006820F00040216F08432849083933
:101830000860206800F08050B0F1805F0AD1244831
:101840004838006820F48040D4F8B4100843204998
:1018500048390860206800F40010B0F5001F09D175
:101860001B480838006820F08070A16E08431849B2
:1018700008390860206800F08040B0F1804F11D135
:1018800000BF13484838006820F400401049483928
:10189000086008460068D4F8B81008430C49483975
:1018A000086000BF206800F00040B0F1004F09D18F
:1018B00007480C38006820F04050216D0843044967
:1018C0000C39086016B90020BDE8F0810120FBE763
:1018D0005844025870B504460D4600268D480068ED
:1018E00000F00700A8420ED28A48006820F00700E6
:1018F0002843884908600846006800F00700A842AD
:1019000001D0012070BD207800F00200022807D12C
:101910008148006820F00F00E16808437E490860B4
:10192000207800F00100002851D07B48006820F4A6
:101930007060A1680843784908606068022807D190
:10194000754818380068C0F34040F8B90120D9E75D
:101950006068032807D1704818380068C0F34060F9
:10196000A0B90120CEE76068012807D16A4818387D
:101970000068C0F3002048B90120C3E76648183862
:101980000068C0F3800008B90120BBE7624808384E
:10199000006820F00700616808435F490839086063
:1019A000FEF7E0FE06466068022811D108E0FEF767
:1019B000D9FE801B41F28831884201D90320A1E77A
:1019C00055480838006800F038001028EFD13AE098
:1019D0006068032811D108E0FEF7C4FE801B41F2C5
:1019E0008831884201D903208CE74B4808380068C9
:1019F00000F038001828EFD125E06068012811D1E7
:101A000008E0FEF7AFFE801B41F28831884201D921
:101A1000032077E740480838006800F038000828BD
:101A2000EFD110E008E0FEF79DFE801B41F2883107
:101A3000884201D9032065E737480838006800F07C
:101A400038000028EFD13348006800F00700A842B2
:101A50000ED93048006820F0070028432D4908605F
:101A60000846006800F00700A84201D0012049E7BD
:101A7000207800F00400042807D12748006820F0EF
:101A800070002169084324490860207800F00800AC
:101A9000082809D12048001D006820F07000616905
:101AA00008431D49091D0860207800F01000102827
:101AB00009D11948001D006820F4E060A1690843BD
:101AC0001549091D0860207800F02000202809D160
:101AD00011480830006820F07000E16908430E49A1
:101AE0000831086000F066F80B49096801F470617C
:101AF0004FF4807292FAA2F2B2FA82F2D140074A0F
:101B0000515CC840064908600020FEF74BFE0020EB
:101B1000F8E600000020005218440258F84D000872
:101B20002C00002010B5FEF7DBFE0949096801F022
:101B30000F01012292FAA2F2B2FA82F2D140054AD2
:101B4000515CC840044908600846006810BD0000A8
:101B500018440258F84D00083000002010B5FFF777
:101B6000E1FF0749096801F07001102292FAA2F220
:101B7000B2FA82F2D140034A515CC84010BD000065
:101B80001C440258F84D000810B5FFF7CBFF074979
:101B9000096801F4E0614FF4807292FAA2F2B2FA9D
:101BA00082F2D140024A515CC84010BD1C44025828
:101BB000F84D000870B5012500EE905A0022012171
:101BC00000230024DFED861AB0EE610ADFED841AEF
:101BD000B0EE611A0020834D2D6805F0380535B14F
:101BE000082D15D0102D15D0182D7CD114E07D4D69
:101BF000103D2D68C5F3401545B17A4D103D2D6857
:101C0000C5F3C106784D25FA06F000E07648E5E018
:101C10007648E3E07648E1E0724D18352D6805F02E
:101C20000302704D18352D68C5F305116D4D1C3537
:101C30002D6805F001036B4D24352D68C5F3CC05E7
:101C400015FB03F501EE905AF8EE611AB0EE610A49
:101C500022B1012A4FD0022A7DD16BE0614D103DA7
:101C60002D68C5F340152DB35E4D103D2D68C5F3AD
:101C7000C1065D4D25FA06F4B4FBF1F501EE905A6C
:101C8000B8EE612ADFED5B1AC0EE212A554D2035F2
:101C90002D68C5F3080501EE905AF8EE611A72EE50
:101CA000A11AF7EE002A71EEA21A62EE211AB0EE26
:101CB000611A1FE04C4DB5FBF1F501EE905AB8EEFC
:101CC000612ADFED4C1AC0EE212A464D20352D68E1
:101CD000C5F3080501EE905AF8EE611A72EEA11AEA
:101CE000F7EE002A00E077E071EEA21A62EE211A08
:101CF000B0EE611A5EE03D4DB5FBF1F501EE905A94
:101D0000B8EE612ADFED3B1AC0EE212A354D2035B1
:101D10002D68C5F3080501EE905AF8EE611A72EECF
:101D2000A11AF7EE002A71EEA21A62EE211AB0EEA5
:101D3000611A3FE02E4DB5FBF1F501EE905AB8EE79
:101D4000612ADFED2C1AC0EE212A264D20352D68A0
:101D5000C5F3080500E00EE001EE905AF8EE611AB6
:101D600072EEA11AF7EE002A71EEA21A62EE211AA3
:101D7000B0EE611A1EE01D4DB5FBF1F501EE905A73
:101D8000F8EE612ADFED1B1A80EE212A154D203571
:101D90002D68C5F3080501EE905AF8EE611A72EE4F
:101DA000211AB7EE002A71EE821A62EEA11AB0EE85
:101DB000611A00BF00BF0B4D20352D68C5F34625C5
:101DC0006D1C00EE905AF8EE601A81EE212AFCEEAE
:101DD000C21A11EE900A01E0044800BF00BF70BDB6
:101DE00000000000104402580090D00300093D009C
:101DF00000127A000000004670B5044600252078E5
:101E000000F00100002870D0F748006800F03800AA
:101E100010280CD0F448006800F03800182812D1BF
:101E2000F1481830006800F0030002280BD1EE489A
:101E300010380068C0F34040002869D0606800286E
:101E400066D1012070BD00BF6068B0F5803F08D149
:101E5000E5481038006840F48030E34910390860E4
:101E60002EE0606868B9E0481038006820F48030DF
:101E7000DD49103908600846006820F480200860B9
:101E80001EE06068B0F5A02F0DD1D748103800686B
:101E900040F48020D449103908600846006840F4B6
:101EA000803008600CE0D0481038006820F48030A2
:101EB000CD49103908600846006820F48020086089
:101EC00000BF606890B1FEF74DFC054606E0FEF7E6
:101ED00049FC401B642801D90320B3E7C2481038ED
:101EE0000068C0F340400028F1D011E0FEF73AFC52
:101EF000054606E0FEF736FC401B642801D90320A6
:101F0000A0E7B94810380068C0F340400028F1D17C
:101F1000207800F00200022847D1B348006800F0A2
:101F2000380058B1B048006800F0380018283ED199
:101F3000AD481830006800F00300B8BBAA4810385C
:101F40000068C0F3800018B1E06808B9012079E7A3
:101F5000A5481038006820F01900E1680843A2493C
:101F600010390860FEF7FEFB054606E0FEF7FAFBB7
:101F7000401B022801D9032064E79B481038006801
:101F8000C0F380000028F1D097480C38006820F496
:101F90007C304FF47C3292FAA2F2B2FA82F22169DA
:101FA0009140084390490C3908604AE0FFE7E06837
:101FB00068B38D481038006820F01900E1680843C4
:101FC000894910390860FEF7CDFB054606E0FEF7AB
:101FD000C9FB401B022801D9032033E7824810388F
:101FE0000068C0F380000028F1D07F480C380068FA
:101FF00020F47C304FF47C3292FAA2F2B2FA82F2F0
:1020000021699140084378490C39086019E0764805
:102010001038006820F00100734910390860FEF79D
:10202000A1FB054606E0FEF79DFB401B022801D9F7
:10203000032007E76C4810380068C0F380000028D0
:10204000F1D1207800F01000102877D166480068A0
:1020500000F0380008280CD06348006800F0380011
:10206000182823D160481830006800F003000128C8
:102070001CD15D4810380068C0F3002020B1E06931
:10208000802801D00120DDE657480C38006820F098
:10209000F8404FF0F84292FAA2F2B2FA82F2216AC4
:1020A0009140084350490C39086047E0E06958B353
:1020B0004D481038006840F080004B4910390860E6
:1020C000FEF750FB054606E0FEF74CFB401B0228DE
:1020D00001D90320B6E6444810380068C0F3002058
:1020E0000028F1D040480C38006820F0F8404FF04C
:1020F000F84292FAA2F2B2FA82F2216A91400843BF
:1021000039490C39086019E037481038006820F068
:102110008000354910390860FEF724FB054606E0CB
:10212000FEF720FB401B022801D903208AE62E4837
:1021300010380068C0F300200028F1D1207800F0AA
:102140000800082836D16069D0B12748643000689B
:1021500040F00100244964310860FEF703FB0546A6
:1021600006E0FEF7FFFA401B022801D9032069E6CA
:102170001D4864300068C0F340000028F1D019E029
:1021800019486430006820F0010017496431086084
:10219000FEF7E8FA054606E0FEF7E4FA401B0228DF
:1021A00001D903204EE6104864300068C0F34000B7
:1021B0000028F1D1207800F02000202834D1A06937
:1021C000D8B109481038006840F4805006491039E9
:1021D0000860FEF7C7FA054608E0FEF7C3FA401BA1
:1021E000022803D903202DE610440258AF480068A6
:1021F000C0F340300028F0D016E0AC48006820F46E
:102200008050AA490860FEF7ADFA054606E0FEF7E1
:10221000A9FA401B022801D9032013E6A34800684D
:10222000C0F340300028F2D1207800F004000428E8
:102230007DD19F48006840F480709D490860FEF79A
:1022400091FA054606E0FEF78DFA401B642801D995
:102250000320F7E59648006800F480700028F2D06B
:1022600000BFA068012808D190487030006840F095
:1022700001008E49703108602DE0A06868B98B4874
:102280007030006820F0010088497031086008460D
:10229000006820F0040008601DE0A06805280DD14A
:1022A00082487030006840F0040080497031086056
:1022B0000846006840F0010008600CE07B48703080
:1022C000006820F001007949703108600846006814
:1022D00020F00400086000BFA068A0B1FEF742FA39
:1022E000054608E0FEF73EFA401B41F2883188427D
:1022F00001D90320A6E56D4870300068C0F34000A6
:102300000028EFD013E0FEF72DFA054608E0FEF7AF
:1023100029FA401B41F28831884201D9032091E516
:10232000624870300068C0F340000028EFD1606A56
:1023300000287CD05D481030006800F03800182874
:1023400076D0606A022874D15848006820F0807006
:1023500056490860FEF706FA054606E0FEF702FA5F
:10236000401B022801D903206CE550480068C0F3E7
:1023700040600028F2D100BFD4E90A1041EA001001
:102380004A492831096840F2F332914308434749EA
:1023900028310860208E401EC0F30800616B491E82
:1023A0004FF47E4202EA41210843218F491ED201A7
:1023B00002EA014108433C21095D491E120202EA7A
:1023C0000161084339493031086000BF081D0068C9
:1023D0004FF6F87188434FF6F87292FAA2F2B2FA09
:1023E00082F2A16C914008433049343108602F4893
:1023F0002C30006820F00C00216C08432B492C3154
:1024000008600846006820F00200616C0843274914
:102410002C3108600846006840F4803008600846A7
:10242000006840F4003008600846006802E03BE0C5
:1024300038E01FE040F4802008600846006840F063
:10244000010008601948006840F080701749086072
:10245000FEF788F9054606E0FEF784F9401B0228DE
:1024600001D90320EEE411480068C0F34060002861
:10247000F2D019E00D48006820F080700B49086028
:10248000FEF770F9054606E0FEF76CF9401B0228DE
:1024900001D90320D6E405480068C0F34060002855
:1024A000F2D101E00120CDE40020CBE40044025849
:1024B0000048025870B504462546681EB0F1807F7A
:1024C00001D301200FE0681E4FF0E02148610F2189
:1024D0004FF0FF3002F0FAFB00204FF0E02188615E
:1024E00007200861002070BD7047704710B5034693
:1024F000002200BF93F83C00012801D1022010BD4A
:10250000012083F83C0000BF22F0FF00CC6840EAC5
:10251000040222F440708C6840EA040222F48060D5
:102520004C6840EA040222F400600C6840EA0402AD
:1025300022F480500C6940EA040222F400504C69F5
:1025400040EA040222F480408C6A40EA040222F449
:1025500070200C8B40EA04420F4C1868A04203D054
:102560000E4C1868A0420ED122F470008C8C40EA08
:10257000045222F08070CC6940EA040222F000701C
:102580000C6A40EA04021868426400BF002083F825
:102590003C0000BF00BFB2E7000001400004014062
:1025A00030B502460B4600BF92F83C00012801D12D
:1025B000022030BD012082F83C0000BF1068416855
:1025C000106884680F4D1068A84203D00E4D106843
:1025D000A84203D121F470015868014321F0700131
:1025E0001868014324F0800498680443106841602F
:1025F0001068846000BF002082F83C0000BF00BF6C
:10260000D7E70000000001400004014010B5044677
:102610000CB9012010BD94F83D0028B9002084F8C1
:102620003C00204600F00CF8022084F83D00211DFB
:10263000206801F09DFA012084F83D000020E9E7C0
:1026400038B504460D492068884215D100BF0C48B2
:10265000006840F480700A4908600846006800F489
:102660008070009000BF00BF002203212D20FEF7E4
:10267000E5F82D20FEF7D2F838BD0000002000401C
:10268000E844025801460868C06840F001000A6842
:10269000D0600868008840F001000A6810800020BF
:1026A000704700002DE9F04104460D464FF0000848
:1026B0000026002714B90120BDE8F08194F83D0000
:1026C00028B9002084F83C00204600F047F802209A
:1026D00084F83D00206880681F49084021688860B0
:1026E000211D206801F044FA2068D0F80880206895
:1026F00086692068076A286840EA080840F20330C3
:102700008643A969A86840EA0120064340F60C40C8
:1027100086434FF2F0008643E969E86840EA012009
:10272000064328690001296A40EA0130064327F080
:10273000220727F088076969686840EA01100743A3
:102740002068C0F808802068866120680762012040
:1027500084F83D000020AFE7F8FFFEFF10B586B01B
:102760000446142101A8FDF7EBFD294920688842A1
:102770004CD100BF2748006840F00200254908609E
:102780000846006800F00200009000BF00BF00BFD4
:1027900020480838006840F001001E4908390860E8
:1027A0000846006800F00100009000BF00BF00BFB5
:1027B0000846006840F0040008600846006800F021
:1027C0000400009000BF00BF402001900220029052
:1027D0000020039004900220059001A90E48FDF707
:1027E00095FE80200190022002900020039004902A
:1027F0000220059001A90948FDF788FE0022012169
:102800001D20FEF71BF81D20FEF708F806B010BDCE
:1028100000040040E8440258000002580008025832
:1028200030B504460D4615B1042D0CD105E001224A
:102830000021206801F002FA10E001220421206842
:1028400001F0FCF90AE001220021206801F0F6F90C
:1028500001220421206801F0F1F900BF00BF2068C7
:10286000008840F0010021680880002030BD7047DA
:1028700010B5044620680069C0F34000D8B1206854
:10288000C068C0F34000B0B16FF002002168086179
:10289000012020772068806900F0030018B12046ED
:1028A000FFF7E5FF05E0204600F0EEF8204600F0D7
:1028B000D9F90020207720680069C0F38000D8B1E2
:1028C0002068C068C0F38000B0B16FF004002168D8
:1028D0000861022020772068806900F4407018B1F8
:1028E0002046FFF7C4FF05E0204600F0CDF8204663
:1028F00000F0B8F90020207720680069C0F3C0001C
:10290000D8B12068C068C0F3C000B0B16FF0080053
:1029100021680861042020772068C06900F0030066
:1029200018B12046FFF7A3FF05E0204600F0ACF801
:10293000204600F097F90020207720680069C0F356
:102940000010D8B12068C068C0F30010B0B16FF0BB
:10295000100021680861082020772068C06900F411
:10296000407018B12046FFF782FF05E0204600F0D6
:102970008BF8204600F076F9002020772068006967
:1029800000F0010058B12068C06800F0010030B1CB
:102990006FF0010021680861204600F09DF9206871
:1029A0000069C0F3C01058B12068C068C0F3C010FF
:1029B00030B16FF08000216808612046FFF794FD78
:1029C00020680069C0F3002058B12068C068C0F3D7
:1029D000C01030B16FF08000216808612046FFF719
:1029E00083FD20680069C0F3801058B12068C0687A
:1029F000C0F3801030B16FF04000216808612046BC
:102A000000F0AEF920680069C0F3401058B12068AA
:102A1000C068C0F3401030B16FF020002168086139
:102A20002046FFF762FD10BD10B586B004461421A4
:102A300001A8FDF785FC1149206888421BD100BF21
:102A40000F48006840F010000D4908600846006813
:102A500000F01000009000BF00BF4FF4285001901C
:102A6000022002900020039004900120059001A90B
:102A70000448FDF74BFD06B010BD0000000001400A
:102A8000E044025800100258704770B504460D46E5
:102A9000164600BF94F83C00012801D1022070BD09
:102AA000012084F83C0000BF022084F83D000C2E79
:102AB00051D005DC4EB1042E1ED0082E7AD133E061
:102AC000102E60D0142EF9D175E02946206801F04F
:102AD000C3F82068806940F0080021688861206898
:102AE000806920F004002168886120688069296974
:102AF00008432168886177E02946206801F004F9DD
:102B00002068806940F400602168886120688069DD
:102B100020F480602168886120688069296940EA22
:102B20000120216888615FE02946206801F04AF9A8
:102B30002068C06940F008002168C8612068C06949
:102B400020F004002168C8612068C0692969084331
:102B50002168C86148E02946206801F08DF92068A5
:102B6000C06940F400602168C8612068C06920F431
:102B700080602168C8612068C069296940EA012035
:102B80002168C86130E02946206801F0B1F9206869
:102B9000406D40F00800216848652068406D20F0D5
:102BA0000400216848652068406D29690843216850
:102BB000486519E017E02946206801F0D1F920683E
:102BC000406D40F40060216848652068406D20F445
:102BD0008060216848652068406D296940EA0120CD
:102BE0002168486500E000BF00BF012084F83D0077
:102BF00000BF002084F83C0000BF00BF4FE710B5C5
:102C000004460CB9012010BD94F83D0028B90020FD
:102C100084F83C00204600F00DF8022084F83D00C6
:102C2000211D206800F0A4FF012084F83D00002051
:102C3000E9E7000008B5094A016891420DD100BFDB
:102C40000749096841F00101054A11601146096808
:102C500001F00101009100BF00BF08BD000001406C
:102C6000F04402587047000030B504460D4601227A
:102C70002946206800F0E2FF1249206888420FD000
:102C80001149206888420BD010492068884207D03B
:102C90000F492068884203D00E492068884201D13C
:102CA000012000E0002028B12068406C40F4004082
:102CB000216848642068008840F00100216808808D
:102CC000002030BD000001400004014000400140F0
:102CD00000440140004801401B4A016812689142CB
:102CE00016D119490968496A09B2184A1160114692
:102CF000096847F6FF72914205D215490968491CD7
:102D0000134A116004E012490968491E104A116013
:102D1000104A01681268914214D10F490968491C90
:102D20000D4A116011460968491C09B9002111605A
:102D300007490968C1EB0141034A1268526A11440C
:102D4000064A11607047000074000020080000204F
:102D500000000020B40000200C000020040000202F
:102D600070477047704700002DE9F0410446206825
:102D7000C569206807682068866805F00F08B8F103
:102D8000000F0DD105F0200050B107F0200010B960
:102D900006F0805020B1204601F0F7F9BDE8F0813F
:102DA000B8F1000F72D05D48304018B907F4907048
:102DB00000287AD005F0010048B107F4807030B1E6
:102DC000012021680862E06F40F00100E06705F033
:102DD000020048B106F0010030B10220216808620B
:102DE000E06F40F00400E06705F0040048B106F031
:102DF000010030B1042021680862E06F40F0020059
:102E0000E06705F0080078B107F0200028B906F067
:102E1000805010B906F0010030B108202168086226
:102E2000E06F40F00800E067E06F70B305F020004D
:102E300040B107F0200010B906F0805010B12046D4
:102E400001F0A3F9E06F00F0080020B92068806865
:102E500000F0400018B3204601F077F92068806840
:102E600000F04000B8B12068806820F04000216880
:102E70008860606F58B12A48616F0865606FFDF720
:102E8000A5FA10B1606F016D88470DE00DE0204696
:102E9000FFF768FF08E02046FFF764FF04E02046E4
:102EA000FFF760FF0020E06778E705F4801078B155
:102EB00006F4800060B14FF4801021680862202081
:102EC00084F8790084F87A002046FFF74AFF65E726
:102ED00005F0800048B107F0800010B906F400004A
:102EE00018B1204601F068FE58E705F0400030B107
:102EF00007F0400018B1204601F037F94EE705F41D
:102F0000000040B107F0804028B12068006820F040
:102F100080402168086000BF40E700000100001009
:102F20003341000810B504460CB9012010BDA0695A
:102F300000B100E000BF94F8790028B9002084F8BF
:102F40007800204600F02AF8242084F879002068D0
:102F5000006820F0010021680860204601F05AF95D
:102F6000012800D1E2E7606B10B1204601F032F891
:102F70002068406820F4904021684860206880689C
:102F800020F02A00216888602068006840F0010075
:102F900021680860204601F092F8C7E710B586B0B6
:102FA0000446142101A8FDF7CBF92949206888427D
:102FB0004CD100BF2748006840F400302549086024
:102FC0000846006800F40030009000BF00BF00BF5A
:102FD00020480838006840F001001E4908390860A0
:102FE0000846006800F00100009000BF00BF00BF6D
:102FF0000846006840F0080008600846006800F0D5
:103000000800009000BF00BF08200190022002903D
:103010000020039004900720059001A90E48FDF7B9
:1030200075FA202001900220029000200390049065
:103030000720059001A90948FDF768FA002202213E
:103040002620FDF7FBFB2620FDF7E8FB06B010BDB0
:1030500000440040E844025800000258000C0258A6
:1030600010B5034693F87A00202867D101B10AB958
:10307000012010BD00BF93F87800012801D1022083
:10308000F7E7012083F8780000BF5966A3F86820AD
:10309000A3F86A2000BF9868B0F5805F0AD118696C
:1030A00020B940F2FF10A3F86C001CE0FF20A3F849
:1030B0006C0018E0986848B9186918B9FF20A3F89F
:1030C0006C0010E07F20A3F86C000CE09868B0F171
:1030D000805F08D1186918B97F20A3F86C0002E05E
:1030E0003F20A3F86C0000BF0020D867222083F89F
:1030F0007A0000BF002083F8780000BF186880685D
:1031000040F001001C68A0601868006800F00050E2
:1031100060B11868006840F480701C68206018680E
:10312000806840F080501C68A06005E01868006866
:1031300040F490701C68206000209AE7022098E715
:1031400070B50546002401226C496D48FFF788FFE1
:103150006A480478FF20694908707D2C70D169485D
:10316000007809286DD10020674908606749087018
:103170000DE0674865490978405C6349096808447F
:103180006149086061480078401C604908705F48E8
:1031900000780828EDDB5C4800686421B0FBF1F2A0
:1031A00001FB1200584908605948007A09688842B2
:1031B000D8D157484078102804D020281DD0302876
:1031C00077D175E05248807811280AD10122910305
:1031D0005048FDF7C1FA012208214F48FDF7BCFA1B
:1031E0000AE000224FF480414A48FDF7B5FA002278
:1031F00008214948FDF7B0FA5CE04548007801280D
:1032000006D002281ED0032835D079284DD14BE0B6
:103210003F48C178807800EBC00202EB001001EB60
:1032200080003E4908600846006840B108460068D2
:10323000B0F57A7F03D2084600683949486335E023
:103240003EE038E0324840793149097901EBC1026A
:1032500002EB011100EB810030490860084600686C
:1032600040B108460068B0F57A7F03D2084600688E
:103270002B4988631AE02648C179807900EBC002A7
:1032800002EB001001EB800024490860084600684A
:1032900040B108460068B0F57A7F03D2084600685E
:1032A0001F49C86302E004E000E000BF00BF01E086
:1032B00000E000BF00BF00201249087019490870E3
:1032C00018480078012810D10E480078082803DD3E
:1032D00000201449087008E00D480A490978445450
:1032E00008480078401C074908707B2C05D1012054
:1032F0000C49087000200349087070BD10000020C0
:1033000008010020120000201C00002018000020EE
:10331000F4000020000402580008025814000020A5
:103320000000014011000020704700BFFEE70000D0
:1033300000B587B0142102A8FDF702F800BF894844
:10334000006840F00400874908600846006800F003
:103350000400019000BF00BF00BF0846006840F0B5
:10336000200008600846006800F02000019000BFBF
:1033700000BF00BF0846006840F0800008600846B3
:10338000006800F08000019000BF00BF00BF084649
:10339000006840F0010008600846006800F0010085
:1033A000019000BF00BF00BF0846006840F0100059
:1033B00008600846006800F01000019000BF00BFE0
:1033C00000BF0846006840F0020008600846006838
:1033D00000F00200019000BF00BF00BF0846006877
:1033E00040F0080008600846006800F008000190FE
:1033F00000BF00BF00BF0846006840F04000086002
:103400000846006800F04000019000BF00BF0022A5
:1034100009215548FDF7A0F900224FF48141534896
:10342000FDF79AF9002240215148FDF795F94FF434
:10343000005002904F4803900020049002A94A488F
:10344000FDF764F80820029000200390049002A980
:103450004948FDF75BF80920029001200390002005
:103460000490059002A94048FDF750F832200290E0
:10347000022003900020049005900B20069002A9E2
:103480003948FDF743F8862002900220039000207F
:10349000049005900B20069002A93848FDF736F8F5
:1034A0004FF40050029002200390002004900590F9
:1034B0000B20069002A92D48FDF728F84FF4814013
:1034C00002900120039000200490059002A9274853
:1034D000FDF71CF84FF4407002900220039000208A
:1034E000049005900720069002A92548FDF70EF8E4
:1034F000402002900120039000200490059002A932
:103500001B48FDF703F880200290002003900490F0
:1035100002A91748FCF7FAFF4FF4E8500290022086
:1035200003900020049005900A20069002A91348F9
:10353000FCF7ECFF4FF42050029002200390002093
:10354000049005900B20069002A90948FCF7DEFFC5
:10355000012202212820FDF771F92820FDF75EF9EC
:1035600007B000BDE04402580008025800040258A9
:1035700000180258000011110014025800000258EF
:10358000000C025810B5094809490860C720486076
:10359000002107488160F921C1600021016181613A
:1035A000FFF734F808B1FCF710FF10BD0020004011
:1035B000B400002000B595B0002012901390149034
:1035C0001C210BA8FCF7BCFE2C216846FCF7B8FEBA
:1035D0002F48304908600120486000212D48816053
:1035E00040F2E731C1600021016141618161FFF773
:1035F00006FB08B1FCF7E9FE00201290139014902E
:1036000012A92448FEF7CCFF08B1FCF7DEFE6020CB
:103610000B904FF4FA700C9000200D900E900F90CC
:103620001090119000220BA91A48FFF72EFA08B14A
:10363000FCF7CBFE04220BA91648FFF726FA08B1C7
:10364000FCF7C3FE08220BA91248FFF71EFA08B1C7
:10365000FCF7BBFE002000900190029003900490C4
:103660004FF4005005900020069007904FF0007036
:103670000890002009900A9069460648FEF736FF38
:1036800008B1FCF7A2FE0348FFF7CEF915B000BD64
:10369000000001403400002000B58DB0242104A8B2
:1036A000FCF74EFE002001900290039019481A4941
:1036B0000860012048600021174881604FF6FF71C3
:1036C000C160002101618161032004900020059008
:1036D0000120069000200790052008900020099006
:1036E00001200A9000200B9005200C9004A90A48A4
:1036F000FEF7D8FF08B1FCF768FE002001900390A8
:1037000001A90548FEF74CFF08B1FCF75EFE0DB0BD
:1037100000BD0000000400407400002010B50F48F8
:103720000F4908604FF4E130486000210C48816087
:10373000C16001610C21416100218161C1610162AF
:1037400041628162C1620163002005494863084605
:10375000FFF7E8FB08B1FCF738FE10BD004400405D
:103760000801002000BFFEE7704770472DE9F041D7
:1037700004460E4600274848006800F0030003286E
:1037800002D10120BDE8F08143482838006820F0CC
:103790008060414928390860FCF7E4FF054606E0EF
:1037A000FCF7E0FF401B022801D90320EAE73A4872
:1037B00028380068C0F3C0600028F1D100BF364847
:1037C000006820F47C30216840EA0130324908600A
:1037D000A088401EC0F30800A168491E4FF47E4235
:1037E00002EA41210843A189491ED20102EA0141AE
:1037F0000843217C491E120202EA0161084326495E
:103800001031086000BF2448001D006820F0C0008F
:10381000616908432049091D08600846006820F0D6
:103820002000A16908431C49091D08602EB90846FB
:10383000006840F40020086012E0012E08D116480C
:10384000001D006840F480101349091D086007E05E
:103850001148001D006840F400100F49091D086060
:103860000D482838006840F080600B49283908600E
:10387000FCF778FF054606E0FCF774FF401B0228C2
:1038800001D903207EE7044828380068C0F3C060EF
:103890000028F1D0384675E7284402582DE9F04158
:1038A00004460E4600274848006800F0030003283D
:1038B00002D10120BDE8F08143482838006820F09B
:1038C0008050414928390860FCF74CFF054606E066
:1038D000FCF748FF401B022801D90320EAE73A48D9
:1038E00028380068C0F340700028F1D100BF364886
:1038F000006820F07C70218840EA0150324908605D
:10390000A088401EC0F30800A168491E4FF47E4203
:1039100002EA41210843A189491ED20102EA01417C
:103920000843217C491E120202EA0161084326492C
:103930001831086000BF2448001D006820F4406072
:10394000616908432049091D08600846006820F4A1
:103950000070A16908431C49091D08602EB908467A
:10396000006840F48000086012E0012E08D116487B
:10397000001D006840F400001349091D086007E0BD
:103980001148001D006840F080700F49091D086053
:103990000D482838006840F080500B4928390860ED
:1039A000FCF7E0FE054606E0FCF7DCFE401B0228C3
:1039B00001D903207EE7044828380068C0F340702E
:1039C0000028F1D0384675E728440258704710B5F2
:1039D000FCF7CEFE10BD000000B5CBB04C2138A8DE
:1039E000FCF7AEFC202130A8FCF7AAFCBC2101A802
:1039F000FCF7A6FC3048006820F004002E4908605F
:103A000000BF002000902C480C30006840F440407B
:103A100029490C3108600846006800F440400090D5
:103A200000BF00BF00BF24480C30006800F4005005
:103A3000B0F5005FF7D10220389001203B902020A4
:103A40003C9002204190002138A881620421C1628B
:103A50003221016302214163042181630221C16398
:103A60000C210164002141648164FEF7C5F908B1AD
:103A7000FCF7ABFC3F2030900320319000203290C7
:103A8000082033904020349035900001369040203B
:103A90003790022130A8FDF71DFF08B1FCF795FC17
:103AA0000220019000201E9001A8FDF777F908B1CF
:103AB000FCF78BFC4BB000BD0C4802582048006856
:103AC00040F470001E4908601E48006840F0010084
:103AD0001C49086000201B49103108601948006823
:103AE0001949084017490860002016491831086034
:103AF000091D0860091D0860124928310860091D68
:103B00000860091D0860091D0860091D0860091D7D
:103B10000860091D0860091D08600A48006820F453
:103B200080200849086000200649603108600120B3
:103B300006490860C00602498039086070470000E5
:103B400088ED00E0004402587FEDF6EA088100515C
:103B500010B50248FEF78CFE10BD00007400002076
:103B600010B50248FEF784FE10BD0000B40000202E
:103B700010B500220288294B98420ED0B0F1804F38
:103B80000BD0274B984208D0264B984205D0264BA5
:103B9000984202D0254B984203D122F070024B6824
:103BA0001A431E4B984217D0B0F1804F14D01C4BD3
:103BB000984211D01B4B98420ED01B4B98420BD011
:103BC0001A4B984208D01A4B984205D0194B98428C
:103BD00002D0194B984203D122F44072CB681A43A9
:103BE00022F080034C6943EA040202808B68C362BE
:103BF0000B880385094B98420BD00C4B984208D098
:103C00000B4B984205D00B4B984202D00A4B98427E
:103C100001D10B8A03860123436110BD00000140DE
:103C20000004004000080040000C00400004014077
:103C300000400140004401400048014030B50023ED
:103C4000012404FA01F3046A9C430462046A02FA40
:103C500001F52C43046230BD30B50024002200235E
:103C6000056A25F001050562026A43688469204DF2
:103C70002C4024F003040D682C4322F002028D68CE
:103C80002A431C4DA84200D10FE01B4DA84200D191
:103C90000BE01A4DA84200D107E0194DA84200D10F
:103CA00003E0184DA84206D100BF22F00802CD68FB
:103CB0002A4322F004020F4DA8420BD00E4DA84219
:103CC00008D00E4DA84205D00D4DA84202D00D4D92
:103CD000A84207D123F4807323F400734D692B436A
:103CE0008D692B43436084614D684563026230BD3A
:103CF0008FFFFEFF00000140000401400040014032
:103D0000004401400048014030B500240022002357
:103D1000056A25F010050562026A43688469234D2F
:103D20002C4024F440740D6844EA052422F020025B
:103D30008D6842EA05121E4DA84200D10FE01D4DCC
:103D4000A84200D10BE01C4DA84200D100BF1B4D82
:103D5000A84200D100BF1A4DA84207D106E022F0C8
:103D60008002CD6842EA051222F04002104DA842BE
:103D70000BD0104DA84208D00F4DA84205D00F4DD2
:103D8000A84202D00E4DA84209D123F4806323F447
:103D900000634D6943EA85038D6943EA8503436007
:103DA00084614D688563026230BD0000FF8FFFFEB5
:103DB0000000014000040140004001400044014077
:103DC0000048014030B5002400220023056A25F494
:103DD00080750562026A4368C46924F0700424F0A7
:103DE00003040D682C4322F400728D6842EA052218
:103DF0001C4DA84200D10FE01B4DA84200D10BE0A2
:103E00001A4DA84200D100BF194DA84200D100BFF1
:103E1000184DA84207D106E022F40062CD6842EABC
:103E2000052222F480620F4DA8420BD00E4DA8420D
:103E300008D00E4DA84205D00D4DA84202D00D4D20
:103E4000A84209D123F4805323F400534D6943EA77
:103E500005138D6943EA05134360C4614D68C5636A
:103E6000026230BD000001400004014000400140FA
:103E7000004401400048014030B5002200230024E6
:103E8000056A25F480550562036A4468C26922F414
:103E9000E04222F440720D6842EA052223F4005306
:103EA0008D6843EA05330D4DA8420BD00C4DA84256
:103EB00008D00C4DA84205D00B4DA84202D00B4DA6
:103EC000A84204D124F480444D6944EA8514446036
:103ED000C2614D680564036230BD0000000001400E
:103EE00000040140004001400044014000480140FE
:103EF00030B5002300220024056A25F480350562D0
:103F0000026A4468436D23F070030D682B4322F46A
:103F100000320D8942EA05420C4DA8420BD00C4DEF
:103F2000A84208D00B4DA84205D00B4DA84202D0A4
:103F30000A4DA84204D124F480344D6944EA052492
:103F4000446043654D688565026230BD00000140F4
:103F5000000401400040014000440140004801408D
:103F600030B5002200230024056A25F4801505627F
:103F7000036A4468426D22F4E0420D6842EA052279
:103F800023F400130D8943EA05530D4DA8420BD0CD
:103F90000C4DA84208D00C4DA84205D00B4DA842AC
:103FA00002D00B4DA84204D124F400344D6944EAF8
:103FB0008524446042654D68C565036230BD0000DC
:103FC0000000014000040140004001400044014065
:103FD0000048014090F8341001F0010139B1016846
:103FE000496821F40031826B11430268516090F8F6
:103FF000341001F0020139B10168496821F48031BF
:10400000C26B11430268516090F8341001F0040152
:1040100039B10168496821F48021026C11430268BA
:10402000516090F8341001F0080139B10168496815
:1040300021F40041426C11430268516090F8341041
:1040400001F0100139B10168896821F48051826C56
:1040500011430268916090F8341001F0200139B1E9
:104060000168896821F40051C26C114302689160B3
:1040700090F8341001F0400199B10168496821F4C9
:104080008011026D114302685160016DB1F5801F0E
:1040900007D10168496821F4C001426D11430268EB
:1040A000516090F8341001F0800139B1016849681D
:1040B00021F40021826D114302685160704738B5C8
:1040C000044600250020E067FCF74CFB054620680D
:1040D000006800F0080008280CD16FF07E402B46E5
:1040E00000224FF400110090204600F0A6FD08B118
:1040F000032038BD2068006800F0040004280CD1BB
:104100006FF07E402B4600224FF480010090204645
:1041100000F093FD08B10320EBE7202084F879003C
:1041200084F87A0000BF002084F8780000BF00BF48
:10413000DFE770B50546AC6B0020A4F86A00A4F870
:1041400062002046FEF70EFE70BD0168096821F48A
:104150009071026811600168896821F001010268AC
:104160009160202180F87A10704710B504462068CD
:10417000006820F0400021680860202084F8790061
:104180002046FFF7D1F8002010BD2DE9F04104468C
:10419000B4F86C7094F87A00222833D12068858CAA
:1041A000A068B0F5805F09D1206938B9666E05EA6C
:1041B00007003080606E801C606605E0F8B2284021
:1041C000626E511C61661070B4F86A00401E80B2C5
:1041D000A4F86A00A0B92068006820F490702168F3
:1041E00008602068806820F0010021688860202035
:1041F00084F87A002046FEF7A3FF0020BDE8F08196
:104200000020FBE72068008B40F00800216808834D
:104210000220F3E72DE9F04F89B0044600254FF066
:104220008008A946AA4600200890FA4920688842DA
:1042300001D1012000E0002000B100E000BFA06A31
:10424000B0F1005F00D100BF2169A0680843616937
:104250000843E16940EA0105A06A05432068006857
:10426000ED4908402843216808602068406820F430
:104270004050E168084321684860A569E549206825
:10428000884201D1012000E0002008B9206A0543DE
:10429000A06AB0F1005F03D1D4E90B0108430543E4
:1042A00020688068DD4908402843216888602068CC
:1042B000C06A20F00F00616A08432168C86200BF2D
:1042C000D7492068884224D1D648006800F03800D9
:1042D000182814D005DC48B108280AD0102817D1B6
:1042E0000AE020280ED0282812D10EE04FF0010855
:1042F0000EE04FF004080BE04FF0400808E04FF0EC
:10430000080805E04FF0100802E04FF0200800BF59
:1043100017E1C549206888421DD1C248006800F0F5
:104320000700062816D2DFE800F00306090C0F127A
:104330004FF000080EE04FF004080BE04FF040088B
:1043400008E04FF0080805E04FF0100802E04FF0D9
:10435000200800BFF5E0B549206888421DD1B1486A
:10436000006800F00700062816D2DFE800F0030618
:10437000090C0F124FF000080EE04FF004080BE09C
:104380004FF0400808E04FF0080805E04FF0100833
:1043900002E04FF0200800BFD3E0A5492068884222
:1043A0001DD1A048006800F00700062816D2DFE8FB
:1043B00000F00306090C0F124FF000080EE04FF05A
:1043C00004080BE04FF0400808E04FF0080805E053
:1043D0004FF0100802E04FF0200800BFB1E095490F
:1043E000206888421DD18F48006800F00700062829
:1043F00016D2DFE800F00306090C0F124FF0000898
:104400000EE04FF004080BE04FF0400808E04FF0DA
:10441000080805E04FF0100802E04FF0200800BF48
:104420008FE085492068884224D17E48006800F0EA
:104430003800182814D005DC48B108280AD0102804
:1044400017D10AE020280ED0282812D10EE04FF014
:1044500001080EE04FF004080BE04FF0400808E0C0
:104460004FF0080805E04FF0100802E04FF0200878
:1044700000BF66E07149206888421DD16948006824
:1044800000F00700062816D2DFE800F00306090C4A
:104490000F124FF000080EE04FF004080BE04FF051
:1044A000400808E04FF0080805E04FF0100802E06F
:1044B0004FF0200800BF44E06149206888421DD1C8
:1044C0005848006800F00700062816D2DFE800F020
:1044D0000306090C0F124FF000080EE04FF004081D
:1044E0000BE04FF0400808E04FF0080805E04FF0FF
:1044F000100802E04FF0200800BF22E04549206884
:1045000088421ED14748001D006800F007000628B9
:1045100016D2DFE800F00306090C0F124FF0020874
:104520000EE04FF004080BE04FF0400808E04FF0B9
:10453000080805E04FF0100802E04FF0200800BF27
:1045400000BF00BF33492068884201D1012000E04C
:10455000002000285DD00025B8F1100F33D009DC11
:10456000B8F1020F10D0B8F1040F11D0B8F1080F54
:104570002ED117E0B8F1200F27D0B8F1400F0CD0A2
:10458000B8F1800F24D124E0FCF7C6F9054623E0FA
:1045900005A8FCF7D7F9069D1EE002A8FCF7E8FA8B
:1045A000039D19E01F4854380068C0F3401040B123
:1045B0001C4854380068C0F3C101224820FA01F5B4
:1045C00000E0204D08E0204D06E04FF4004503E0F8
:1045D00000BF0120089000BF00BF002D0AD0606816
:1045E00000EB4000A84203D860680003A84202D252
:1045F00001200890D4E2B8F1100F7CD026DCB8F18D
:10460000020F2DD0B8F1040F52D0B8F1080F73D1BA
:104610009EE03FE1000C0058F369FFCFFFF4FF116B
:10462000001001405444025800440040004800403B
:10463000004C004000500040001401400078004051
:10464000007C00400090D00300093D00B8F1200F2D
:104650007DD0B8F1400F54D0B8F1800FD7D109E127
:10466000FCF75AF900270646FB49606A31F810C08A
:1046700062463B4630463946FBF72AFE4FF48076C9
:1046800000220346A3FB060701FB067103FB02138E
:1046900061684908064671185A41CDE900126668FA
:1046A0003246002308460199FBF712FE0546E4E076
:1046B00005A8FCF747F9DDF818C0E749606A31F84A
:1046C00010B05A46002360461946FBF701FE4FF42E
:1046D000807C0022A0FB0C3B01FB0CB100FB021014
:1046E000616849085E1840EB0201D4F804C06246D4
:1046F0000023304601E079E0BBE0FBF7E9FD054629
:10470000BBE002A8FCF734FADDF80CC0D249606ABD
:1047100031F810B05A46002360461946FBF7D8FD21
:104720004FF4807C0022A0FB0C3B01FB0CB100FB92
:104730000210616849085E1840EB0201D4F804C019
:10474000624600233046FBF7C3FD054695E06EE068
:10475000C2480068C0F3401038B3C0480068C0F3D6
:10476000C101BF4820FA01FCBB49606A31F810B0B2
:104770005A46002360461946FBF7AAFD4FF4807C99
:104780000022A0FB0C3B01FB0CB100FB0210616896
:1047900049085E1840EB0201D4F804C062460023C9
:1047A0003046FBF795FD05461FE0AB49606A31F8DE
:1047B00010C062460023AA481946FBF789FD4FF452
:1047C000807C0022A0FB0C3B01FB0CB100FB021023
:1047D000616849085E1840EB0201D4F804C06246E3
:1047E00000233046FBF774FD054646E09A49606AAF
:1047F00031F810C0624600239A481946FBF768FD5D
:104800004FF4807C0022A0FB0C3B01FB0CB100FBB1
:104810000210616849085E1840EB0201D4F804C038
:10482000624600233046FBF753FD054625E08A49E2
:10483000606A31F810C0624600234FF40040194608
:10484000FBF746FD4FF4807C0022A0FB0C3B01FBF4
:104850000CB100FB0210616849085E1840EB0201D0
:10486000D4F804C0624600233046FBF731FD05460C
:1048700003E000BF0120089000BF00BFB5F5407FF6
:1048800005D3B5F5801F02D22068C56088E10120FC
:10489000089085E1E069B0F5004F7CD1B8F1100FC8
:1048A0007AD00CDCB8F1000F13D0B8F1010F21D091
:1048B000B8F1040F2FD0B8F1080F6ED151E0B8F164
:1048C000200F6BD0B8F1400F38D0B8F1800F64D111
:1048D00097E0FDF743F9604A616A32F81110B0FBC6
:1048E000F1F04000616800EB5100B0FBF1F01FFAFD
:1048F00080FA89E0FDF748F9574A616A32F81110E9
:10490000B0FBF1F04000616800EB5100B0FBF1F04A
:104910001FFA80FA78E005A8FCF714F806994E4AC9
:10492000606A32F81000B1FBF0F04000616800EB03
:104930005100B0FBF1F01FFA80FA65E002A8FCF725
:1049400017F90399444A606A32F81000B1FBF0F09D
:104950004000616800EB5100B0FBF1F01FFA80FAF3
:1049600052E03E480068C0F34010C0B13B480068C8
:10497000C0F3C1013A48C840374A616A32F81110A1
:10498000B0FBF1F04000616800EB5100B0FBF1F0CA
:104990001FFA80FA12E044E011E031E01FE02E49F6
:1049A000606A31F810002E49B1FBF0F040006168F8
:1049B00000EB5100B0FBF1F01FFA80FA24E0264929
:1049C000606A31F810002749B1FBF0F040006168DF
:1049D00000EB5100B0FBF1F01FFA80FA14E01E4921
:1049E000606A31F810004FF40041B1FBF0F0400074
:1049F000616800EB5100B0FBF1F01FFA80FA03E0B0
:104A000000BF0120089000BF00BF4FF6F0700AEA17
:104A10000009CAF3420049EA00092068C0F80C9076
:104A2000BEE0B8F1100F7CD00CDCB8F1000F1BD049
:104A3000B8F1010F29D0B8F1040F37D0B8F1080F41
:104A400070D159E0B8F1200F6DD0B8F1400F40D0CF
:104A5000B8F1800F66D19FE0C84D000800440258AD
:104A60000090D00300093D00FDF778F84E4A616AD6
:104A700032F81110B0FBF1F0616800EB5100B0FBAF
:104A8000F1F080B22168C86089E0FDF77DF8464A00
:104A9000616A32F81110B0FBF1F0616800EB51006F
:104AA000B0FBF1F080B22168C86078E005A8FBF7A0
:104AB00049FF06993C4A606A32F81000B1FBF0F0F9
:104AC000616800EB5100B0FBF1F080B22168C86072
:104AD00065E002A8FCF74CF80399334A606A32F8A3
:104AE0001000B1FBF0F0616800EB5100B0FBF1F099
:104AF00080B22168C86052E02C480068C0F34010C2
:104B0000C0B12A480068C0F3C1012948C840264AFC
:104B1000616A32F81110B0FBF1F0616800EB5100EE
:104B200002E017E037E025E0B0FBF1F080B2216849
:104B3000C8600EE01C49606A31F810001C49B1FBE6
:104B4000F0F0616800EB5100B0FBF1F080B2216839
:104B5000C86024E01449606A31F810001549B1FBBF
:104B6000F0F0616800EB5100B0FBF1F080B2216819
:104B7000C86014E00C49606A31F810004FF400413D
:104B8000B1FBF0F0616800EB5100B0FBF1F080B2D6
:104B90002168C86003E000BF0120089000BF00BF8B
:104BA000089809B0BDE8F08FC84D000800440258CD
:104BB0000090D00300093D00014691F879002128BA
:104BC00039D1B1F86200C8B90868006800F0005037
:104BD00030B10868806820F400000B68986005E038
:104BE0000868006820F080000B681860086800689A
:104BF00040F040000B681860002070478868B0F5EE
:104C0000805F0BD1086948B9CA6D1088C0F30800ED
:104C10000B681885C86D801CC86505E0CB6D581CF5
:104C2000C86518780B681885B1F86200401EA1F8B5
:104C300062000020E1E70220DFE72DE9F0410446B1
:104C40000D4617469846069E21E0701CF8B12EB11D
:104C5000FBF788FDA0EB0800B04218D92068006877
:104C600020F4D070216808602068806820F001007E
:104C700021688860202084F8790084F87A0000BFD9
:104C8000002084F8780000BF0320BDE8F081206890
:104C9000C0692840A84201D1012000E00020B842AC
:104CA000D3D00020F1E7000010B50248FEF75CF811
:104CB00010BD00000801002000BFFEE702480068A8
:104CC000C0F30220704700000CED00E010B5002892
:104CD00004DB0A07130E054A135406E00A07140EF4
:104CE000034A00F00F031B1FD45410BD00E400E082
:104CF00018ED00E002E008C8121F08C1002AFAD12E
:104D000070477047002001E001C1121F002AFBD14B
:104D100070470000FBF738FDFEF75EFEFEF708FB6C
:104D2000FEF7FCFCFEF746FCFEF7B6FCFEF72AFC9D
:104D30001C48FDF7A7FC00211B48FDF795FF4FF429
:104D4000FE701A494863012219491A48FEF788F98A
:104D500000211448FDF764FD04211248FDF760FDB1
:104D600010480068406A00B21349086000200D49ED
:104D700009684862114908601148FDF783FC0FE09B
:104D8000012280210F48FBF7E7FCC820FBF79AFBC4
:104D9000002280210B48FBF7DFFCC820FBF792FBC9
:104DA000EEE7000074000020340000200000014005
:104DB0001000002008010020040000200000002056
:104DC000B4000020000402580100020004000600A4
:104DD00008000A000C0010002000400080000001C4
:104DE000010002000400060008000A000C00100088
:104DF00020004000800000010000000001020304C8
:104E00000102030406070809284E000800000020DC
:104E100034000000F44C00085C4E00083400002010
:104E200054050000044D00080000000000000000D0
:104E30000000000000000000000000000000000072
:104E40000000000000000000000000001000000052
:0C4E5000010000000090D0030090D0038F
:040000050800029954
:00000001FF
